{
  "contractName": "MintToken",
  "abi": [
    {
      "inputs": [
        {
          "internalType": "string",
          "name": "_name",
          "type": "string"
        },
        {
          "internalType": "string",
          "name": "_symbol",
          "type": "string"
        },
        {
          "internalType": "uint256",
          "name": "_priceWei",
          "type": "uint256"
        },
        {
          "internalType": "uint256",
          "name": "_startTime",
          "type": "uint256"
        },
        {
          "internalType": "address",
          "name": "_owner",
          "type": "address"
        },
        {
          "internalType": "address payable[]",
          "name": "_creators",
          "type": "address[]"
        },
        {
          "internalType": "uint256[]",
          "name": "_amounts",
          "type": "uint256[]"
        },
        {
          "internalType": "uint256[]",
          "name": "_percentages",
          "type": "uint256[]"
        }
      ],
      "stateMutability": "nonpayable",
      "type": "constructor"
    },
    {
      "inputs": [],
      "name": "Empty",
      "type": "error"
    },
    {
      "inputs": [],
      "name": "TooEarly",
      "type": "error"
    },
    {
      "inputs": [],
      "name": "TooLate",
      "type": "error"
    },
    {
      "inputs": [],
      "name": "Unauthorized",
      "type": "error"
    },
    {
      "anonymous": false,
      "inputs": [
        {
          "indexed": true,
          "internalType": "address",
          "name": "owner",
          "type": "address"
        },
        {
          "indexed": true,
          "internalType": "address",
          "name": "approved",
          "type": "address"
        },
        {
          "indexed": true,
          "internalType": "uint256",
          "name": "tokenId",
          "type": "uint256"
        }
      ],
      "name": "Approval",
      "type": "event"
    },
    {
      "anonymous": false,
      "inputs": [
        {
          "indexed": true,
          "internalType": "address",
          "name": "owner",
          "type": "address"
        },
        {
          "indexed": true,
          "internalType": "address",
          "name": "operator",
          "type": "address"
        },
        {
          "indexed": false,
          "internalType": "bool",
          "name": "approved",
          "type": "bool"
        }
      ],
      "name": "ApprovalForAll",
      "type": "event"
    },
    {
      "anonymous": false,
      "inputs": [
        {
          "indexed": false,
          "internalType": "uint256",
          "name": "tokenId",
          "type": "uint256"
        },
        {
          "indexed": false,
          "internalType": "string",
          "name": "url",
          "type": "string"
        },
        {
          "indexed": true,
          "internalType": "address",
          "name": "sender",
          "type": "address"
        }
      ],
      "name": "Mint",
      "type": "event"
    },
    {
      "anonymous": false,
      "inputs": [
        {
          "indexed": true,
          "internalType": "address",
          "name": "from",
          "type": "address"
        },
        {
          "indexed": true,
          "internalType": "address",
          "name": "to",
          "type": "address"
        },
        {
          "indexed": true,
          "internalType": "uint256",
          "name": "tokenId",
          "type": "uint256"
        }
      ],
      "name": "Transfer",
      "type": "event"
    },
    {
      "inputs": [
        {
          "internalType": "uint256",
          "name": "",
          "type": "uint256"
        }
      ],
      "name": "amounts",
      "outputs": [
        {
          "internalType": "uint256",
          "name": "",
          "type": "uint256"
        }
      ],
      "stateMutability": "view",
      "type": "function"
    },
    {
      "inputs": [
        {
          "internalType": "address",
          "name": "to",
          "type": "address"
        },
        {
          "internalType": "uint256",
          "name": "tokenId",
          "type": "uint256"
        }
      ],
      "name": "approve",
      "outputs": [],
      "stateMutability": "nonpayable",
      "type": "function"
    },
    {
      "inputs": [
        {
          "internalType": "address",
          "name": "owner",
          "type": "address"
        }
      ],
      "name": "balanceOf",
      "outputs": [
        {
          "internalType": "uint256",
          "name": "",
          "type": "uint256"
        }
      ],
      "stateMutability": "view",
      "type": "function"
    },
    {
      "inputs": [
        {
          "internalType": "uint256",
          "name": "",
          "type": "uint256"
        }
      ],
      "name": "candidates",
      "outputs": [
        {
          "internalType": "string",
          "name": "",
          "type": "string"
        }
      ],
      "stateMutability": "view",
      "type": "function"
    },
    {
      "inputs": [
        {
          "internalType": "uint256",
          "name": "",
          "type": "uint256"
        }
      ],
      "name": "creators",
      "outputs": [
        {
          "internalType": "address payable",
          "name": "",
          "type": "address"
        }
      ],
      "stateMutability": "view",
      "type": "function"
    },
    {
      "inputs": [
        {
          "internalType": "uint256",
          "name": "tokenId",
          "type": "uint256"
        }
      ],
      "name": "getApproved",
      "outputs": [
        {
          "internalType": "address",
          "name": "",
          "type": "address"
        }
      ],
      "stateMutability": "view",
      "type": "function"
    },
    {
      "inputs": [
        {
          "internalType": "address",
          "name": "owner",
          "type": "address"
        },
        {
          "internalType": "address",
          "name": "operator",
          "type": "address"
        }
      ],
      "name": "isApprovedForAll",
      "outputs": [
        {
          "internalType": "bool",
          "name": "",
          "type": "bool"
        }
      ],
      "stateMutability": "view",
      "type": "function"
    },
    {
      "inputs": [],
      "name": "name",
      "outputs": [
        {
          "internalType": "string",
          "name": "",
          "type": "string"
        }
      ],
      "stateMutability": "view",
      "type": "function"
    },
    {
      "inputs": [],
      "name": "owner",
      "outputs": [
        {
          "internalType": "address payable",
          "name": "",
          "type": "address"
        }
      ],
      "stateMutability": "view",
      "type": "function"
    },
    {
      "inputs": [
        {
          "internalType": "uint256",
          "name": "tokenId",
          "type": "uint256"
        }
      ],
      "name": "ownerOf",
      "outputs": [
        {
          "internalType": "address",
          "name": "",
          "type": "address"
        }
      ],
      "stateMutability": "view",
      "type": "function"
    },
    {
      "inputs": [
        {
          "internalType": "uint256",
          "name": "",
          "type": "uint256"
        }
      ],
      "name": "percentages",
      "outputs": [
        {
          "internalType": "uint256",
          "name": "",
          "type": "uint256"
        }
      ],
      "stateMutability": "view",
      "type": "function"
    },
    {
      "inputs": [],
      "name": "priceWei",
      "outputs": [
        {
          "internalType": "uint256",
          "name": "",
          "type": "uint256"
        }
      ],
      "stateMutability": "view",
      "type": "function"
    },
    {
      "inputs": [
        {
          "internalType": "address",
          "name": "from",
          "type": "address"
        },
        {
          "internalType": "address",
          "name": "to",
          "type": "address"
        },
        {
          "internalType": "uint256",
          "name": "tokenId",
          "type": "uint256"
        }
      ],
      "name": "safeTransferFrom",
      "outputs": [],
      "stateMutability": "nonpayable",
      "type": "function"
    },
    {
      "inputs": [
        {
          "internalType": "address",
          "name": "from",
          "type": "address"
        },
        {
          "internalType": "address",
          "name": "to",
          "type": "address"
        },
        {
          "internalType": "uint256",
          "name": "tokenId",
          "type": "uint256"
        },
        {
          "internalType": "bytes",
          "name": "_data",
          "type": "bytes"
        }
      ],
      "name": "safeTransferFrom",
      "outputs": [],
      "stateMutability": "nonpayable",
      "type": "function"
    },
    {
      "inputs": [
        {
          "internalType": "address",
          "name": "operator",
          "type": "address"
        },
        {
          "internalType": "bool",
          "name": "approved",
          "type": "bool"
        }
      ],
      "name": "setApprovalForAll",
      "outputs": [],
      "stateMutability": "nonpayable",
      "type": "function"
    },
    {
      "inputs": [],
      "name": "startTime",
      "outputs": [
        {
          "internalType": "uint256",
          "name": "",
          "type": "uint256"
        }
      ],
      "stateMutability": "view",
      "type": "function"
    },
    {
      "inputs": [
        {
          "internalType": "bytes4",
          "name": "interfaceId",
          "type": "bytes4"
        }
      ],
      "name": "supportsInterface",
      "outputs": [
        {
          "internalType": "bool",
          "name": "",
          "type": "bool"
        }
      ],
      "stateMutability": "view",
      "type": "function"
    },
    {
      "inputs": [],
      "name": "symbol",
      "outputs": [
        {
          "internalType": "string",
          "name": "",
          "type": "string"
        }
      ],
      "stateMutability": "view",
      "type": "function"
    },
    {
      "inputs": [
        {
          "internalType": "uint256",
          "name": "tokenId",
          "type": "uint256"
        }
      ],
      "name": "tokenURI",
      "outputs": [
        {
          "internalType": "string",
          "name": "",
          "type": "string"
        }
      ],
      "stateMutability": "view",
      "type": "function"
    },
    {
      "inputs": [
        {
          "internalType": "address",
          "name": "from",
          "type": "address"
        },
        {
          "internalType": "address",
          "name": "to",
          "type": "address"
        },
        {
          "internalType": "uint256",
          "name": "tokenId",
          "type": "uint256"
        }
      ],
      "name": "transferFrom",
      "outputs": [],
      "stateMutability": "nonpayable",
      "type": "function"
    },
    {
      "inputs": [
        {
          "internalType": "string[]",
          "name": "_candidates",
          "type": "string[]"
        }
      ],
      "name": "addBatch",
      "outputs": [],
      "stateMutability": "nonpayable",
      "type": "function"
    },
    {
      "inputs": [],
      "name": "getTotalMined",
      "outputs": [
        {
          "internalType": "uint256",
          "name": "",
          "type": "uint256"
        }
      ],
      "stateMutability": "view",
      "type": "function"
    },
    {
      "inputs": [],
      "name": "getAllCandidates",
      "outputs": [
        {
          "internalType": "string[]",
          "name": "",
          "type": "string[]"
        }
      ],
      "stateMutability": "view",
      "type": "function"
    },
    {
      "inputs": [],
      "name": "getBalance",
      "outputs": [
        {
          "internalType": "uint256",
          "name": "",
          "type": "uint256"
        }
      ],
      "stateMutability": "view",
      "type": "function"
    },
    {
      "inputs": [],
      "name": "mintRandom",
      "outputs": [],
      "stateMutability": "payable",
      "type": "function"
    },
    {
      "inputs": [],
      "name": "withdraw",
      "outputs": [],
      "stateMutability": "nonpayable",
      "type": "function"
    }
  ],
  "bytecode": "0x60806040523480156200001157600080fd5b506040516200480138038062004801833981810160405281019062000037919062000606565b8787816000908051906020019062000051929190620001a5565b5080600190805190602001906200006a929190620001a5565b50505084600c81905550600067ffffffffffffffff811115620000b6577f4e487b7100000000000000000000000000000000000000000000000000000000600052604160045260246000fd5b604051908082528060200260200182016040528015620000eb57816020015b6060815260200190600190039081620000d55790505b50600e90805190602001906200010392919062000236565b5083600860006101000a81548173ffffffffffffffffffffffffffffffffffffffff021916908373ffffffffffffffffffffffffffffffffffffffff16021790555085600d819055508260099080519060200190620001649291906200029d565b5081600a90805190602001906200017d9291906200032c565b5080600b9080519060200190620001969291906200032c565b505050505050505050620009b4565b828054620001b3906200088b565b90600052602060002090601f016020900481019282620001d7576000855562000223565b82601f10620001f257805160ff191683800117855562000223565b8280016001018555821562000223579182015b828111156200022257825182559160200191906001019062000205565b5b5090506200023291906200037e565b5090565b8280548282559060005260206000209081019282156200028a579160200282015b828111156200028957825182908051906020019062000278929190620001a5565b509160200191906001019062000257565b5b5090506200029991906200039d565b5090565b82805482825590600052602060002090810192821562000319579160200282015b82811115620003185782518260006101000a81548173ffffffffffffffffffffffffffffffffffffffff021916908373ffffffffffffffffffffffffffffffffffffffff16021790555091602001919060010190620002be565b5b5090506200032891906200037e565b5090565b8280548282559060005260206000209081019282156200036b579160200282015b828111156200036a5782518255916020019190600101906200034d565b5b5090506200037a91906200037e565b5090565b5b80821115620003995760008160009055506001016200037f565b5090565b5b80821115620003c15760008181620003b79190620003c5565b506001016200039e565b5090565b508054620003d3906200088b565b6000825580601f10620003e7575062000408565b601f0160209004906000526020600020908101906200040791906200037e565b5b50565b6000620004226200041c846200076f565b62000746565b905080838252602082019050828560208602820111156200044257600080fd5b60005b858110156200047657816200045b888262000551565b84526020840193506020830192505060018101905062000445565b5050509392505050565b60006200049762000491846200079e565b62000746565b90508083825260208201905082856020860282011115620004b757600080fd5b60005b85811015620004eb5781620004d08882620005ef565b845260208401935060208301925050600181019050620004ba565b5050509392505050565b60006200050c6200050684620007cd565b62000746565b9050828152602081018484840111156200052557600080fd5b6200053284828562000855565b509392505050565b6000815190506200054b8162000966565b92915050565b600081519050620005628162000980565b92915050565b600082601f8301126200057a57600080fd5b81516200058c8482602086016200040b565b91505092915050565b600082601f830112620005a757600080fd5b8151620005b984826020860162000480565b91505092915050565b600082601f830112620005d457600080fd5b8151620005e6848260208601620004f5565b91505092915050565b60008151905062000600816200099a565b92915050565b600080600080600080600080610100898b0312156200062457600080fd5b600089015167ffffffffffffffff8111156200063f57600080fd5b6200064d8b828c01620005c2565b985050602089015167ffffffffffffffff8111156200066b57600080fd5b620006798b828c01620005c2565b97505060406200068c8b828c01620005ef565b96505060606200069f8b828c01620005ef565b9550506080620006b28b828c016200053a565b94505060a089015167ffffffffffffffff811115620006d057600080fd5b620006de8b828c0162000568565b93505060c089015167ffffffffffffffff811115620006fc57600080fd5b6200070a8b828c0162000595565b92505060e089015167ffffffffffffffff8111156200072857600080fd5b620007368b828c0162000595565b9150509295985092959890939650565b60006200075262000765565b9050620007608282620008c1565b919050565b6000604051905090565b600067ffffffffffffffff8211156200078d576200078c62000926565b5b602082029050602081019050919050565b600067ffffffffffffffff821115620007bc57620007bb62000926565b5b602082029050602081019050919050565b600067ffffffffffffffff821115620007eb57620007ea62000926565b5b620007f68262000955565b9050602081019050919050565b600062000810826200082b565b9050919050565b600062000824826200082b565b9050919050565b600073ffffffffffffffffffffffffffffffffffffffff82169050919050565b6000819050919050565b60005b838110156200087557808201518184015260208101905062000858565b8381111562000885576000848401525b50505050565b60006002820490506001821680620008a457607f821691505b60208210811415620008bb57620008ba620008f7565b5b50919050565b620008cc8262000955565b810181811067ffffffffffffffff82111715620008ee57620008ed62000926565b5b80604052505050565b7f4e487b7100000000000000000000000000000000000000000000000000000000600052602260045260246000fd5b7f4e487b7100000000000000000000000000000000000000000000000000000000600052604160045260246000fd5b6000601f19601f8301169050919050565b620009718162000803565b81146200097d57600080fd5b50565b6200098b8162000817565b81146200099757600080fd5b50565b620009a5816200084b565b8114620009b157600080fd5b50565b613e3d80620009c46000396000f3fe60806040526004361061019e576000357c01000000000000000000000000000000000000000000000000000000009004806370a08231116100ee578063b155d7fa116100a7578063c87b56dd11610081578063c87b56dd14610580578063cd53d08e146105bd578063e985e9c5146105fa578063f8858386146106375761019e565b8063b155d7fa14610522578063b7ec20861461052c578063b88d4fde146105575761019e565b806370a082311461041057806378e979251461044d5780638c2d1549146104785780638da5cb5b146104a357806395d89b41146104ce578063a22cb465146104f95761019e565b80632e6997fe1161015b57806342842e0e1161013557806342842e0e1461034457806345f0a44f1461036d578063531285b9146103aa5780636352211e146103d35761019e565b80632e6997fe146102c55780633477ee2e146102f05780633ccfd60b1461032d5761019e565b806301ffc9a7146101a357806306fdde03146101e0578063081812fc1461020b578063095ea7b31461024857806312065fe01461027157806323b872dd1461029c575b600080fd5b3480156101af57600080fd5b506101ca60048036038101906101c59190612c17565b610674565b6040516101d79190613191565b60405180910390f35b3480156101ec57600080fd5b506101f5610756565b60405161020291906131ac565b60405180910390f35b34801561021757600080fd5b50610232600480360381019061022d9190612c69565b6107e8565b60405161023f91906130ed565b60405180910390f35b34801561025457600080fd5b5061026f600480360381019061026a9190612b96565b61086d565b005b34801561027d57600080fd5b50610286610985565b60405161029391906133ee565b60405180910390f35b3480156102a857600080fd5b506102c360048036038101906102be9190612a90565b610a9c565b005b3480156102d157600080fd5b506102da610afc565b6040516102e7919061316f565b60405180910390f35b3480156102fc57600080fd5b5061031760048036038101906103129190612c69565b610bd5565b60405161032491906131ac565b60405180910390f35b34801561033957600080fd5b50610342610c81565b005b34801561035057600080fd5b5061036b60048036038101906103669190612a90565b610e7a565b005b34801561037957600080fd5b50610394600480360381019061038f9190612c69565b610e9a565b6040516103a191906133ee565b60405180910390f35b3480156103b657600080fd5b506103d160048036038101906103cc9190612bd2565b610ebe565b005b3480156103df57600080fd5b506103fa60048036038101906103f59190612c69565b611033565b60405161040791906130ed565b60405180910390f35b34801561041c57600080fd5b5061043760048036038101906104329190612a2b565b6110e5565b60405161044491906133ee565b60405180910390f35b34801561045957600080fd5b5061046261119d565b60405161046f91906133ee565b60405180910390f35b34801561048457600080fd5b5061048d6111a3565b60405161049a91906133ee565b60405180910390f35b3480156104af57600080fd5b506104b86111b4565b6040516104c59190613108565b60405180910390f35b3480156104da57600080fd5b506104e36111da565b6040516104f091906131ac565b60405180910390f35b34801561050557600080fd5b50610520600480360381019061051b9190612b5a565b61126c565b005b61052a611282565b005b34801561053857600080fd5b5061054161164b565b60405161054e91906133ee565b60405180910390f35b34801561056357600080fd5b5061057e60048036038101906105799190612adf565b611651565b005b34801561058c57600080fd5b506105a760048036038101906105a29190612c69565b6116b3565b6040516105b491906131ac565b60405180910390f35b3480156105c957600080fd5b506105e460048036038101906105df9190612c69565b611805565b6040516105f19190613108565b60405180910390f35b34801561060657600080fd5b50610621600480360381019061061c9190612a54565b611844565b60405161062e9190613191565b60405180910390f35b34801561064357600080fd5b5061065e60048036038101906106599190612c69565b6118d8565b60405161066b91906133ee565b60405180910390f35b60007f80ac58cd000000000000000000000000000000000000000000000000000000007bffffffffffffffffffffffffffffffffffffffffffffffffffffffff1916827bffffffffffffffffffffffffffffffffffffffffffffffffffffffff1916148061073f57507f5b5e139f000000000000000000000000000000000000000000000000000000007bffffffffffffffffffffffffffffffffffffffffffffffffffffffff1916827bffffffffffffffffffffffffffffffffffffffffffffffffffffffff1916145b8061074f575061074e826118fc565b5b9050919050565b60606000805461076590613750565b80601f016020809104026020016040519081016040528092919081815260200182805461079190613750565b80156107de5780601f106107b3576101008083540402835291602001916107de565b820191906000526020600020905b8154815290600101906020018083116107c157829003601f168201915b5050505050905090565b60006107f382611966565b610832576040517f08c379a00000000000000000000000000000000000000000000000000000000081526004016108299061334e565b60405180910390fd5b6004600083815260200190815260200160002060009054906101000a900473ffffffffffffffffffffffffffffffffffffffff169050919050565b600061087882611033565b90508073ffffffffffffffffffffffffffffffffffffffff168373ffffffffffffffffffffffffffffffffffffffff1614156108e9576040517f08c379a00000000000000000000000000000000000000000000000000000000081526004016108e0906133ae565b60405180910390fd5b8073ffffffffffffffffffffffffffffffffffffffff166109086119d2565b73ffffffffffffffffffffffffffffffffffffffff1614806109375750610936816109316119d2565b611844565b5b610976576040517f08c379a000000000000000000000000000000000000000000000000000000000815260040161096d9061328e565b60405180910390fd5b61098083836119da565b505050565b600080600090505b600980549050811015610a93573373ffffffffffffffffffffffffffffffffffffffff16600982815481106109eb577f4e487b7100000000000000000000000000000000000000000000000000000000600052603260045260246000fd5b9060005260206000200160009054906101000a900473ffffffffffffffffffffffffffffffffffffffff1673ffffffffffffffffffffffffffffffffffffffff161415610a7f57600a8181548110610a6c577f4e487b7100000000000000000000000000000000000000000000000000000000600052603260045260246000fd5b9060005260206000200154915050610a99565b600181610a8c9190613573565b905061098d565b50600090505b90565b610aad610aa76119d2565b82611a93565b610aec576040517f08c379a0000000000000000000000000000000000000000000000000000000008152600401610ae3906133ce565b60405180910390fd5b610af7838383611b71565b505050565b6060600e805480602002602001604051908101604052809291908181526020016000905b82821015610bcc578382906000526020600020018054610b3f90613750565b80601f0160208091040260200160405190810160405280929190818152602001828054610b6b90613750565b8015610bb85780601f10610b8d57610100808354040283529160200191610bb8565b820191906000526020600020905b815481529060010190602001808311610b9b57829003601f168201915b505050505081526020019060010190610b20565b50505050905090565b600e8181548110610be557600080fd5b906000526020600020016000915090508054610c0090613750565b80601f0160208091040260200160405190810160405280929190818152602001828054610c2c90613750565b8015610c795780601f10610c4e57610100808354040283529160200191610c79565b820191906000526020600020905b815481529060010190602001808311610c5c57829003601f168201915b505050505081565b60005b600980549050811015610e77573373ffffffffffffffffffffffffffffffffffffffff1660098281548110610ce2577f4e487b7100000000000000000000000000000000000000000000000000000000600052603260045260246000fd5b9060005260206000200160009054906101000a900473ffffffffffffffffffffffffffffffffffffffff1673ffffffffffffffffffffffffffffffffffffffff161415610e635760098181548110610d63577f4e487b7100000000000000000000000000000000000000000000000000000000600052603260045260246000fd5b9060005260206000200160009054906101000a900473ffffffffffffffffffffffffffffffffffffffff1673ffffffffffffffffffffffffffffffffffffffff166108fc600a8381548110610de1577f4e487b7100000000000000000000000000000000000000000000000000000000600052603260045260246000fd5b90600052602060002001549081150290604051600060405180830381858888f19350505050158015610e17573d6000803e3d6000fd5b506000600a8281548110610e54577f4e487b7100000000000000000000000000000000000000000000000000000000600052603260045260246000fd5b90600052602060002001819055505b600181610e709190613573565b9050610c84565b50565b610e9583838360405180602001604052806000815250611651565b505050565b600a8181548110610eaa57600080fd5b906000526020600020016000915090505481565b600860009054906101000a900473ffffffffffffffffffffffffffffffffffffffff168073ffffffffffffffffffffffffffffffffffffffff163373ffffffffffffffffffffffffffffffffffffffff1614610f46576040517f82b4290000000000000000000000000000000000000000000000000000000000815260040160405180910390fd5b600c5480421115610f83576040517fecdd1c2900000000000000000000000000000000000000000000000000000000815260040160405180910390fd5b60005b8484905081101561102c57600e858583818110610fcc577f4e487b7100000000000000000000000000000000000000000000000000000000600052603260045260246000fd5b9050602002810190610fde9190613439565b9091806001815401808255809150506001900390600052602060002001600090919290919290919290919250919061101792919061271a565b506001816110259190613573565b9050610f86565b5050505050565b6000806002600084815260200190815260200160002060009054906101000a900473ffffffffffffffffffffffffffffffffffffffff169050600073ffffffffffffffffffffffffffffffffffffffff168173ffffffffffffffffffffffffffffffffffffffff1614156110dc576040517f08c379a00000000000000000000000000000000000000000000000000000000081526004016110d3906132ce565b60405180910390fd5b80915050919050565b60008073ffffffffffffffffffffffffffffffffffffffff168273ffffffffffffffffffffffffffffffffffffffff161415611156576040517f08c379a000000000000000000000000000000000000000000000000000000000815260040161114d906132ae565b60405180910390fd5b600360008373ffffffffffffffffffffffffffffffffffffffff1673ffffffffffffffffffffffffffffffffffffffff168152602001908152602001600020549050919050565b600c5481565b60006111af6007611dcd565b905090565b600860009054906101000a900473ffffffffffffffffffffffffffffffffffffffff1681565b6060600180546111e990613750565b80601f016020809104026020016040519081016040528092919081815260200182805461121590613750565b80156112625780601f1061123757610100808354040283529160200191611262565b820191906000526020600020905b81548152906001019060200180831161124557829003601f168201915b5050505050905090565b61127e6112776119d2565b8383611ddb565b5050565b600d543410156112c7576040517f08c379a00000000000000000000000000000000000000000000000000000000081526004016112be9061326e565b60405180910390fd5b60006112d36007611dcd565b90506000600e805490501415611315576040517f3db2a12a00000000000000000000000000000000000000000000000000000000815260040160405180910390fd5b600061131f611f48565b90506000600e80549050826113349190613806565b90506000600e8281548110611372577f4e487b7100000000000000000000000000000000000000000000000000000000600052603260045260246000fd5b90600052602060002001805461138790613750565b80601f01602080910402602001604051908101604052809291908181526020018280546113b390613750565b80156114005780601f106113d557610100808354040283529160200191611400565b820191906000526020600020905b8154815290600101906020018083116113e357829003601f168201915b50505050509050600e6001600e8054905061141b9190613654565b81548110611452577f4e487b7100000000000000000000000000000000000000000000000000000000600052603260045260246000fd5b90600052602060002001600e8381548110611496577f4e487b7100000000000000000000000000000000000000000000000000000000600052603260045260246000fd5b906000526020600020019080546114ac90613750565b6114b79291906127a0565b50600e8054806114f0577f4e487b7100000000000000000000000000000000000000000000000000000000600052603160045260246000fd5b60019003818190600052602060002001600061150c919061282d565b90556115183385611f7c565b6115228482611f9a565b61152c600761200e565b60005b6009805490508110156115f4576064600b8281548110611578577f4e487b7100000000000000000000000000000000000000000000000000000000600052603260045260246000fd5b90600052602060002001543461158e91906135fa565b61159891906135c9565b600a82815481106115d2577f4e487b7100000000000000000000000000000000000000000000000000000000600052603260045260246000fd5b90600052602060002001819055506001816115ed9190613573565b905061152f565b503373ffffffffffffffffffffffffffffffffffffffff167f983d37d8751fcfa80e95e5fe2c0f46fb7b541b280961dc7ac00aa2670e2edd87858360405161163d929190613409565b60405180910390a250505050565b600d5481565b61166261165c6119d2565b83611a93565b6116a1576040517f08c379a0000000000000000000000000000000000000000000000000000000008152600401611698906133ce565b60405180910390fd5b6116ad84848484612024565b50505050565b60606116be82611966565b6116fd576040517f08c379a00000000000000000000000000000000000000000000000000000000081526004016116f49061332e565b60405180910390fd5b600060066000848152602001908152602001600020805461171d90613750565b80601f016020809104026020016040519081016040528092919081815260200182805461174990613750565b80156117965780601f1061176b57610100808354040283529160200191611796565b820191906000526020600020905b81548152906001019060200180831161177957829003601f168201915b5050505050905060006117a7612080565b90506000815114156117bd578192505050611800565b6000825111156117f25780826040516020016117da92919061309d565b60405160208183030381529060405292505050611800565b6117fb84612097565b925050505b919050565b6009818154811061181557600080fd5b906000526020600020016000915054906101000a900473ffffffffffffffffffffffffffffffffffffffff1681565b6000600560008473ffffffffffffffffffffffffffffffffffffffff1673ffffffffffffffffffffffffffffffffffffffff16815260200190815260200160002060008373ffffffffffffffffffffffffffffffffffffffff1673ffffffffffffffffffffffffffffffffffffffff16815260200190815260200160002060009054906101000a900460ff16905092915050565b600b81815481106118e857600080fd5b906000526020600020016000915090505481565b60007f01ffc9a7000000000000000000000000000000000000000000000000000000007bffffffffffffffffffffffffffffffffffffffffffffffffffffffff1916827bffffffffffffffffffffffffffffffffffffffffffffffffffffffff1916149050919050565b60008073ffffffffffffffffffffffffffffffffffffffff166002600084815260200190815260200160002060009054906101000a900473ffffffffffffffffffffffffffffffffffffffff1673ffffffffffffffffffffffffffffffffffffffff1614159050919050565b600033905090565b816004600083815260200190815260200160002060006101000a81548173ffffffffffffffffffffffffffffffffffffffff021916908373ffffffffffffffffffffffffffffffffffffffff160217905550808273ffffffffffffffffffffffffffffffffffffffff16611a4d83611033565b73ffffffffffffffffffffffffffffffffffffffff167f8c5be1e5ebec7d5bd14f71427d1e84f3dd0314c0f7b2291e5b200ac8c7c3b92560405160405180910390a45050565b6000611a9e82611966565b611add576040517f08c379a0000000000000000000000000000000000000000000000000000000008152600401611ad49061324e565b60405180910390fd5b6000611ae883611033565b90508073ffffffffffffffffffffffffffffffffffffffff168473ffffffffffffffffffffffffffffffffffffffff161480611b5757508373ffffffffffffffffffffffffffffffffffffffff16611b3f846107e8565b73ffffffffffffffffffffffffffffffffffffffff16145b80611b685750611b678185611844565b5b91505092915050565b8273ffffffffffffffffffffffffffffffffffffffff16611b9182611033565b73ffffffffffffffffffffffffffffffffffffffff1614611be7576040517f08c379a0000000000000000000000000000000000000000000000000000000008152600401611bde9061336e565b60405180910390fd5b600073ffffffffffffffffffffffffffffffffffffffff168273ffffffffffffffffffffffffffffffffffffffff161415611c57576040517f08c379a0000000000000000000000000000000000000000000000000000000008152600401611c4e9061320e565b60405180910390fd5b611c6283838361213e565b611c6d6000826119da565b6001600360008573ffffffffffffffffffffffffffffffffffffffff1673ffffffffffffffffffffffffffffffffffffffff1681526020019081526020016000206000828254611cbd9190613654565b925050819055506001600360008473ffffffffffffffffffffffffffffffffffffffff1673ffffffffffffffffffffffffffffffffffffffff1681526020019081526020016000206000828254611d149190613573565b92505081905550816002600083815260200190815260200160002060006101000a81548173ffffffffffffffffffffffffffffffffffffffff021916908373ffffffffffffffffffffffffffffffffffffffff160217905550808273ffffffffffffffffffffffffffffffffffffffff168473ffffffffffffffffffffffffffffffffffffffff167fddf252ad1be2c89b69c2b068fc378daa952ba7f163c4a11628f55a4df523b3ef60405160405180910390a4505050565b600081600001549050919050565b8173ffffffffffffffffffffffffffffffffffffffff168373ffffffffffffffffffffffffffffffffffffffff161415611e4a576040517f08c379a0000000000000000000000000000000000000000000000000000000008152600401611e419061322e565b60405180910390fd5b80600560008573ffffffffffffffffffffffffffffffffffffffff1673ffffffffffffffffffffffffffffffffffffffff16815260200190815260200160002060008473ffffffffffffffffffffffffffffffffffffffff1673ffffffffffffffffffffffffffffffffffffffff16815260200190815260200160002060006101000a81548160ff0219169083151502179055508173ffffffffffffffffffffffffffffffffffffffff168373ffffffffffffffffffffffffffffffffffffffff167f17307eab39ab6107e8899845ad3d59bd9653f200f220920489ca2b5937696c3183604051611f3b9190613191565b60405180910390a3505050565b60004442604051602001611f5d9291906130c1565b6040516020818303038152906040528051906020012060019004905090565b611f96828260405180602001604052806000815250612143565b5050565b611fa382611966565b611fe2576040517f08c379a0000000000000000000000000000000000000000000000000000000008152600401611fd9906132ee565b60405180910390fd5b8060066000848152602001908152602001600020908051906020019061200992919061286d565b505050565b6001816000016000828254019250508190555050565b61202f848484611b71565b61203b8484848461219e565b61207a576040517f08c379a0000000000000000000000000000000000000000000000000000000008152600401612071906131ce565b60405180910390fd5b50505050565b606060405180602001604052806000815250905090565b60606120a282611966565b6120e1576040517f08c379a00000000000000000000000000000000000000000000000000000000081526004016120d89061338e565b60405180910390fd5b60006120eb612080565b9050600081511161210b5760405180602001604052806000815250612136565b806121158461236d565b60405160200161212692919061309d565b6040516020818303038152906040525b915050919050565b505050565b61214d8383612539565b61215a600084848461219e565b612199576040517f08c379a0000000000000000000000000000000000000000000000000000000008152600401612190906131ce565b60405180910390fd5b505050565b60006121bf8473ffffffffffffffffffffffffffffffffffffffff16612707565b15612360578373ffffffffffffffffffffffffffffffffffffffff1663150b7a026121e86119d2565b8786866040518563ffffffff167c01000000000000000000000000000000000000000000000000000000000281526004016122269493929190613123565b602060405180830381600087803b15801561224057600080fd5b505af192505050801561227157506040513d601f19601f8201168201806040525081019061226e9190612c40565b60015b6122f4573d80600081146122a1576040519150601f19603f3d011682016040523d82523d6000602084013e6122a6565b606091505b506000815114156122ec576040517f08c379a00000000000000000000000000000000000000000000000000000000081526004016122e3906131ce565b60405180910390fd5b805181602001fd5b63150b7a027c0100000000000000000000000000000000000000000000000000000000027bffffffffffffffffffffffffffffffffffffffffffffffffffffffff1916817bffffffffffffffffffffffffffffffffffffffffffffffffffffffff191614915050612365565b600190505b949350505050565b606060008214156123b5576040518060400160405280600181526020017f30000000000000000000000000000000000000000000000000000000000000008152509050612534565b600082905060005b600082146123e75780806123d0906137b3565b915050600a826123e091906135c9565b91506123bd565b60008167ffffffffffffffff811115612429577f4e487b7100000000000000000000000000000000000000000000000000000000600052604160045260246000fd5b6040519080825280601f01601f19166020018201604052801561245b5781602001600182028036833780820191505090505b5090505b6000851461252d576001826124749190613654565b9150600a856124839190613806565b603061248f9190613573565b7f0100000000000000000000000000000000000000000000000000000000000000028183815181106124ea577f4e487b7100000000000000000000000000000000000000000000000000000000600052603260045260246000fd5b60200101907effffffffffffffffffffffffffffffffffffffffffffffffffffffffffffff1916908160001a905350600a8561252691906135c9565b945061245f565b8093505050505b919050565b600073ffffffffffffffffffffffffffffffffffffffff168273ffffffffffffffffffffffffffffffffffffffff1614156125a9576040517f08c379a00000000000000000000000000000000000000000000000000000000081526004016125a09061330e565b60405180910390fd5b6125b281611966565b156125f2576040517f08c379a00000000000000000000000000000000000000000000000000000000081526004016125e9906131ee565b60405180910390fd5b6125fe6000838361213e565b6001600360008473ffffffffffffffffffffffffffffffffffffffff1673ffffffffffffffffffffffffffffffffffffffff168152602001908152602001600020600082825461264e9190613573565b92505081905550816002600083815260200190815260200160002060006101000a81548173ffffffffffffffffffffffffffffffffffffffff021916908373ffffffffffffffffffffffffffffffffffffffff160217905550808273ffffffffffffffffffffffffffffffffffffffff16600073ffffffffffffffffffffffffffffffffffffffff167fddf252ad1be2c89b69c2b068fc378daa952ba7f163c4a11628f55a4df523b3ef60405160405180910390a45050565b600080823b905060008111915050919050565b82805461272690613750565b90600052602060002090601f016020900481019282612748576000855561278f565b82601f1061276157803560ff191683800117855561278f565b8280016001018555821561278f579182015b8281111561278e578235825591602001919060010190612773565b5b50905061279c91906128f3565b5090565b8280546127ac90613750565b90600052602060002090601f0160209004810192826127ce576000855561281c565b82601f106127df578054855561281c565b8280016001018555821561281c57600052602060002091601f016020900482015b8281111561281b578254825591600101919060010190612800565b5b50905061282991906128f3565b5090565b50805461283990613750565b6000825580601f1061284b575061286a565b601f01602090049060005260206000209081019061286991906128f3565b5b50565b82805461287990613750565b90600052602060002090601f01602090048101928261289b57600085556128e2565b82601f106128b457805160ff19168380011785556128e2565b828001600101855582156128e2579182015b828111156128e15782518255916020019190600101906128c6565b5b5090506128ef91906128f3565b5090565b5b8082111561290c5760008160009055506001016128f4565b5090565b600061292361291e846134b5565b613490565b90508281526020810184848401111561293b57600080fd5b61294684828561370e565b509392505050565b60008135905061295d81613dab565b92915050565b60008083601f84011261297557600080fd5b8235905067ffffffffffffffff81111561298e57600080fd5b6020830191508360208202830111156129a657600080fd5b9250929050565b6000813590506129bc81613dc2565b92915050565b6000813590506129d181613dd9565b92915050565b6000815190506129e681613dd9565b92915050565b600082601f8301126129fd57600080fd5b8135612a0d848260208601612910565b91505092915050565b600081359050612a2581613df0565b92915050565b600060208284031215612a3d57600080fd5b6000612a4b8482850161294e565b91505092915050565b60008060408385031215612a6757600080fd5b6000612a758582860161294e565b9250506020612a868582860161294e565b9150509250929050565b600080600060608486031215612aa557600080fd5b6000612ab38682870161294e565b9350506020612ac48682870161294e565b9250506040612ad586828701612a16565b9150509250925092565b60008060008060808587031215612af557600080fd5b6000612b038782880161294e565b9450506020612b148782880161294e565b9350506040612b2587828801612a16565b925050606085013567ffffffffffffffff811115612b4257600080fd5b612b4e878288016129ec565b91505092959194509250565b60008060408385031215612b6d57600080fd5b6000612b7b8582860161294e565b9250506020612b8c858286016129ad565b9150509250929050565b60008060408385031215612ba957600080fd5b6000612bb78582860161294e565b9250506020612bc885828601612a16565b9150509250929050565b60008060208385031215612be557600080fd5b600083013567ffffffffffffffff811115612bff57600080fd5b612c0b85828601612963565b92509250509250929050565b600060208284031215612c2957600080fd5b6000612c37848285016129c2565b91505092915050565b600060208284031215612c5257600080fd5b6000612c60848285016129d7565b91505092915050565b600060208284031215612c7b57600080fd5b6000612c8984828501612a16565b91505092915050565b6000612c9e8383612d81565b905092915050565b612caf8161369a565b82525050565b612cbe81613688565b82525050565b6000612ccf826134f6565b612cd98185613524565b935083602082028501612ceb856134e6565b8060005b85811015612d275784840389528151612d088582612c92565b9450612d1383613517565b925060208a01995050600181019050612cef565b50829750879550505050505092915050565b612d42816136ac565b82525050565b6000612d5382613501565b612d5d8185613535565b9350612d6d81856020860161371d565b612d76816138f3565b840191505092915050565b6000612d8c8261350c565b612d968185613546565b9350612da681856020860161371d565b612daf816138f3565b840191505092915050565b6000612dc58261350c565b612dcf8185613557565b9350612ddf81856020860161371d565b612de8816138f3565b840191505092915050565b6000612dfe8261350c565b612e088185613568565b9350612e1881856020860161371d565b80840191505092915050565b6000612e31603283613557565b9150612e3c82613904565b604082019050919050565b6000612e54601c83613557565b9150612e5f82613953565b602082019050919050565b6000612e77602483613557565b9150612e828261397c565b604082019050919050565b6000612e9a601983613557565b9150612ea5826139cb565b602082019050919050565b6000612ebd602c83613557565b9150612ec8826139f4565b604082019050919050565b6000612ee0601283613557565b9150612eeb82613a43565b602082019050919050565b6000612f03603883613557565b9150612f0e82613a6c565b604082019050919050565b6000612f26602a83613557565b9150612f3182613abb565b604082019050919050565b6000612f49602983613557565b9150612f5482613b0a565b604082019050919050565b6000612f6c602e83613557565b9150612f7782613b59565b604082019050919050565b6000612f8f602083613557565b9150612f9a82613ba8565b602082019050919050565b6000612fb2603183613557565b9150612fbd82613bd1565b604082019050919050565b6000612fd5602c83613557565b9150612fe082613c20565b604082019050919050565b6000612ff8602983613557565b915061300382613c6f565b604082019050919050565b600061301b602f83613557565b915061302682613cbe565b604082019050919050565b600061303e602183613557565b915061304982613d0d565b604082019050919050565b6000613061603183613557565b915061306c82613d5c565b604082019050919050565b61308081613704565b82525050565b61309761309282613704565b6137fc565b82525050565b60006130a98285612df3565b91506130b58284612df3565b91508190509392505050565b60006130cd8285613086565b6020820191506130dd8284613086565b6020820191508190509392505050565b60006020820190506131026000830184612cb5565b92915050565b600060208201905061311d6000830184612ca6565b92915050565b60006080820190506131386000830187612cb5565b6131456020830186612cb5565b6131526040830185613077565b81810360608301526131648184612d48565b905095945050505050565b600060208201905081810360008301526131898184612cc4565b905092915050565b60006020820190506131a66000830184612d39565b92915050565b600060208201905081810360008301526131c68184612dba565b905092915050565b600060208201905081810360008301526131e781612e24565b9050919050565b6000602082019050818103600083015261320781612e47565b9050919050565b6000602082019050818103600083015261322781612e6a565b9050919050565b6000602082019050818103600083015261324781612e8d565b9050919050565b6000602082019050818103600083015261326781612eb0565b9050919050565b6000602082019050818103600083015261328781612ed3565b9050919050565b600060208201905081810360008301526132a781612ef6565b9050919050565b600060208201905081810360008301526132c781612f19565b9050919050565b600060208201905081810360008301526132e781612f3c565b9050919050565b6000602082019050818103600083015261330781612f5f565b9050919050565b6000602082019050818103600083015261332781612f82565b9050919050565b6000602082019050818103600083015261334781612fa5565b9050919050565b6000602082019050818103600083015261336781612fc8565b9050919050565b6000602082019050818103600083015261338781612feb565b9050919050565b600060208201905081810360008301526133a78161300e565b9050919050565b600060208201905081810360008301526133c781613031565b9050919050565b600060208201905081810360008301526133e781613054565b9050919050565b60006020820190506134036000830184613077565b92915050565b600060408201905061341e6000830185613077565b81810360208301526134308184612dba565b90509392505050565b6000808335600160200384360303811261345257600080fd5b80840192508235915067ffffffffffffffff82111561347057600080fd5b60208301925060018202360383131561348857600080fd5b509250929050565b600061349a6134ab565b90506134a68282613782565b919050565b6000604051905090565b600067ffffffffffffffff8211156134d0576134cf6138c4565b5b6134d9826138f3565b9050602081019050919050565b6000819050602082019050919050565b600081519050919050565b600081519050919050565b600081519050919050565b6000602082019050919050565b600082825260208201905092915050565b600082825260208201905092915050565b600082825260208201905092915050565b600082825260208201905092915050565b600081905092915050565b600061357e82613704565b915061358983613704565b9250827fffffffffffffffffffffffffffffffffffffffffffffffffffffffffffffffff038211156135be576135bd613837565b5b828201905092915050565b60006135d482613704565b91506135df83613704565b9250826135ef576135ee613866565b5b828204905092915050565b600061360582613704565b915061361083613704565b9250817fffffffffffffffffffffffffffffffffffffffffffffffffffffffffffffffff048311821515161561364957613648613837565b5b828202905092915050565b600061365f82613704565b915061366a83613704565b92508282101561367d5761367c613837565b5b828203905092915050565b6000613693826136e4565b9050919050565b60006136a5826136e4565b9050919050565b60008115159050919050565b60007fffffffff0000000000000000000000000000000000000000000000000000000082169050919050565b600073ffffffffffffffffffffffffffffffffffffffff82169050919050565b6000819050919050565b82818337600083830152505050565b60005b8381101561373b578082015181840152602081019050613720565b8381111561374a576000848401525b50505050565b6000600282049050600182168061376857607f821691505b6020821081141561377c5761377b613895565b5b50919050565b61378b826138f3565b810181811067ffffffffffffffff821117156137aa576137a96138c4565b5b80604052505050565b60006137be82613704565b91507fffffffffffffffffffffffffffffffffffffffffffffffffffffffffffffffff8214156137f1576137f0613837565b5b600182019050919050565b6000819050919050565b600061381182613704565b915061381c83613704565b92508261382c5761382b613866565b5b828206905092915050565b7f4e487b7100000000000000000000000000000000000000000000000000000000600052601160045260246000fd5b7f4e487b7100000000000000000000000000000000000000000000000000000000600052601260045260246000fd5b7f4e487b7100000000000000000000000000000000000000000000000000000000600052602260045260246000fd5b7f4e487b7100000000000000000000000000000000000000000000000000000000600052604160045260246000fd5b6000601f19601f8301169050919050565b7f4552433732313a207472616e7366657220746f206e6f6e20455243373231526560008201527f63656976657220696d706c656d656e7465720000000000000000000000000000602082015250565b7f4552433732313a20746f6b656e20616c7265616479206d696e74656400000000600082015250565b7f4552433732313a207472616e7366657220746f20746865207a65726f2061646460008201527f7265737300000000000000000000000000000000000000000000000000000000602082015250565b7f4552433732313a20617070726f766520746f2063616c6c657200000000000000600082015250565b7f4552433732313a206f70657261746f7220717565727920666f72206e6f6e657860008201527f697374656e7420746f6b656e0000000000000000000000000000000000000000602082015250565b7f496e73756666696369656e742070726963650000000000000000000000000000600082015250565b7f4552433732313a20617070726f76652063616c6c6572206973206e6f74206f7760008201527f6e6572206e6f7220617070726f76656420666f7220616c6c0000000000000000602082015250565b7f4552433732313a2062616c616e636520717565727920666f7220746865207a6560008201527f726f206164647265737300000000000000000000000000000000000000000000602082015250565b7f4552433732313a206f776e657220717565727920666f72206e6f6e657869737460008201527f656e7420746f6b656e0000000000000000000000000000000000000000000000602082015250565b7f45524337323155524953746f726167653a2055524920736574206f66206e6f6e60008201527f6578697374656e7420746f6b656e000000000000000000000000000000000000602082015250565b7f4552433732313a206d696e7420746f20746865207a65726f2061646472657373600082015250565b7f45524337323155524953746f726167653a2055524920717565727920666f722060008201527f6e6f6e6578697374656e7420746f6b656e000000000000000000000000000000602082015250565b7f4552433732313a20617070726f76656420717565727920666f72206e6f6e657860008201527f697374656e7420746f6b656e0000000000000000000000000000000000000000602082015250565b7f4552433732313a207472616e73666572206f6620746f6b656e2074686174206960008201527f73206e6f74206f776e0000000000000000000000000000000000000000000000602082015250565b7f4552433732314d657461646174613a2055524920717565727920666f72206e6f60008201527f6e6578697374656e7420746f6b656e0000000000000000000000000000000000602082015250565b7f4552433732313a20617070726f76616c20746f2063757272656e74206f776e6560008201527f7200000000000000000000000000000000000000000000000000000000000000602082015250565b7f4552433732313a207472616e736665722063616c6c6572206973206e6f74206f60008201527f776e6572206e6f7220617070726f766564000000000000000000000000000000602082015250565b613db481613688565b8114613dbf57600080fd5b50565b613dcb816136ac565b8114613dd657600080fd5b50565b613de2816136b8565b8114613ded57600080fd5b50565b613df981613704565b8114613e0457600080fd5b5056fea2646970667358221220cd24ed7e6fb9877a3a3335c1ea1accfa72d8634e8a308896d31f727269a6b1fa64736f6c63430008040033",
  "immutableReferences": {},
  "source": "pragma solidity ^0.8.0;\r\n\r\nimport \"@openzeppelin/contracts/utils/Strings.sol\";\r\nimport \"@openzeppelin/contracts/token/ERC721/extensions/ERC721URIStorage.sol\";\r\nimport \"@openzeppelin/contracts/utils/Counters.sol\";\r\nimport \"@openzeppelin/contracts/utils/math/SafeMath.sol\";\r\n\r\nimport {Base64} from \"../libraries/Base64.sol\";\r\n\r\ncontract MintToken is ERC721URIStorage {\r\n    using Counters for Counters.Counter;\r\n    using SafeMath for uint256;\r\n    Counters.Counter private _tokenIds;\r\n\r\n    address payable public owner;\r\n    address payable[] public creators;\r\n    uint256[] public amounts;\r\n    uint256[] public percentages;\r\n\r\n    uint256 public startTime;\r\n    uint256 public priceWei;\r\n\r\n    string[] public candidates;\r\n\r\n    error Unauthorized();\r\n    error TooEarly();\r\n    error TooLate();\r\n    error Empty();\r\n    event Mint(uint256 tokenId, string url, address indexed sender);\r\n\r\n    constructor(\r\n        string memory _name,\r\n        string memory _symbol,\r\n        uint256 _priceWei,\r\n        uint256 _startTime,\r\n        address _owner,\r\n        address payable[] memory _creators,\r\n        uint256[] memory _amounts,\r\n        uint256[] memory _percentages\r\n    ) ERC721(_name, _symbol) {\r\n        startTime = _startTime;\r\n        candidates = new string[](0);\r\n        owner = payable(_owner);\r\n        priceWei = _priceWei;\r\n        creators = _creators;\r\n        amounts = _amounts;\r\n        percentages = _percentages;\r\n    }\r\n\r\n    modifier onlyBy(address _account) {\r\n        if (msg.sender != _account) revert Unauthorized();\r\n        _;\r\n    }\r\n\r\n    modifier onlyAfter(uint256 _time) {\r\n        if (block.timestamp < _time) revert TooEarly();\r\n        _;\r\n    }\r\n\r\n    modifier onlyBefore(uint256 _time) {\r\n        if (block.timestamp > _time) revert TooLate();\r\n        _;\r\n    }\r\n\r\n    function addBatch(string[] calldata _candidates)\r\n        public\r\n        onlyBy(owner)\r\n        onlyBefore(startTime)\r\n    {\r\n        for (uint256 i = 0; i < _candidates.length; i += 1) {\r\n            candidates.push(_candidates[i]);\r\n        }\r\n    }\r\n\r\n    function random() private view returns (uint256) {\r\n        return\r\n            uint256(\r\n                keccak256(abi.encodePacked(block.difficulty, block.timestamp))\r\n            );\r\n    }\r\n\r\n    function getTotalMined() public view returns (uint256) {\r\n        return _tokenIds.current();\r\n    }\r\n\r\n    function getAllCandidates() public view returns (string[] memory) {\r\n        return candidates;\r\n    }\r\n\r\n    function getBalance() public view returns (uint256) {\r\n        for (uint256 i = 0; i < creators.length; i += 1) {\r\n            if (creators[i] == msg.sender) {\r\n                return amounts[i];\r\n            }\r\n        }\r\n        return 0;\r\n    }\r\n\r\n    function mintRandom() public payable {\r\n        require(msg.value >= priceWei, \"Insufficient price\");\r\n\r\n        uint256 newItemId = _tokenIds.current();\r\n        if (candidates.length == 0) {\r\n            revert Empty();\r\n        }\r\n        uint256 rand = random();\r\n        uint256 idx = rand % candidates.length;\r\n        string memory element = candidates[idx];\r\n        candidates[idx] = candidates[candidates.length - 1];\r\n        candidates.pop();\r\n\r\n        _safeMint(msg.sender, newItemId);\r\n        _setTokenURI(newItemId, element);\r\n\r\n        _tokenIds.increment();\r\n        for (uint256 i = 0; i < creators.length; i += 1) {\r\n            amounts[i] = uint256((msg.value * percentages[i]) / 100);\r\n        }\r\n        emit Mint(newItemId, element, msg.sender);\r\n    }\r\n\r\n    function withdraw() public {\r\n        for (uint256 i = 0; i < creators.length; i += 1) {\r\n            if (creators[i] == msg.sender) {\r\n                creators[i].transfer(amounts[i]);\r\n                amounts[i] = 0;\r\n            }\r\n        }\r\n    }\r\n}\r\n",
  "sourcePath": "C:\\Users\\kumquatexpress\\projects\\nifty-ethglobal-hack\\web3\\contracts\\polygon\\MintToken.sol",
  "compiler": {
    "name": "solc",
    "version": "0.8.4+commit.c7e474f2.Emscripten.clang"
  },
  "schemaVersion": "3.4.4",
  "updatedAt": "2022-01-16T01:11:50.872Z",
  "devdoc": {
    "kind": "dev",
    "methods": {
      "approve(address,uint256)": {
        "details": "See {IERC721-approve}."
      },
      "balanceOf(address)": {
        "details": "See {IERC721-balanceOf}."
      },
      "getApproved(uint256)": {
        "details": "See {IERC721-getApproved}."
      },
      "isApprovedForAll(address,address)": {
        "details": "See {IERC721-isApprovedForAll}."
      },
      "name()": {
        "details": "See {IERC721Metadata-name}."
      },
      "ownerOf(uint256)": {
        "details": "See {IERC721-ownerOf}."
      },
      "safeTransferFrom(address,address,uint256)": {
        "details": "See {IERC721-safeTransferFrom}."
      },
      "safeTransferFrom(address,address,uint256,bytes)": {
        "details": "See {IERC721-safeTransferFrom}."
      },
      "setApprovalForAll(address,bool)": {
        "details": "See {IERC721-setApprovalForAll}."
      },
      "supportsInterface(bytes4)": {
        "details": "See {IERC165-supportsInterface}."
      },
      "symbol()": {
        "details": "See {IERC721Metadata-symbol}."
      },
      "tokenURI(uint256)": {
        "details": "See {IERC721Metadata-tokenURI}."
      },
      "transferFrom(address,address,uint256)": {
        "details": "See {IERC721-transferFrom}."
      }
    },
    "version": 1
  },
  "userdoc": {
    "kind": "user",
    "methods": {},
    "version": 1
  },
  "db": {
    "callBytecode": {
      "id": "0x1acfd57927ac65678f8e93c97f7a8d5a89d8588fc843ed3e597208e0eb95d1a5"
    },
    "createBytecode": {
      "id": "0xc5ffa1264b4bd70f50a3d17a162644959e115499b6d476812d95b3d6894d1a3f"
    },
    "contract": {
      "id": "0x1a962ae584b0b7bdd28193cb125b0bbccbdc9b3dc0a82bbbdd03bcfaa2535a9c"
    }
  }
}