{
  "contractName": "Config",
  "abi": [
    {
      "inputs": [
        {
          "internalType": "uint256",
          "name": "_startTime",
          "type": "uint256"
        }
      ],
      "stateMutability": "nonpayable",
      "type": "constructor"
    },
    {
      "inputs": [],
      "name": "Empty",
      "type": "error"
    },
    {
      "inputs": [],
      "name": "TooEarly",
      "type": "error"
    },
    {
      "inputs": [],
      "name": "TooLate",
      "type": "error"
    },
    {
      "inputs": [],
      "name": "Unauthorized",
      "type": "error"
    },
    {
      "anonymous": false,
      "inputs": [
        {
          "indexed": false,
          "internalType": "string",
          "name": "url",
          "type": "string"
        },
        {
          "indexed": true,
          "internalType": "address",
          "name": "sender",
          "type": "address"
        }
      ],
      "name": "Mint",
      "type": "event"
    },
    {
      "inputs": [],
      "name": "owner",
      "outputs": [
        {
          "internalType": "address",
          "name": "",
          "type": "address"
        }
      ],
      "stateMutability": "view",
      "type": "function",
      "constant": true
    },
    {
      "inputs": [],
      "name": "startTime",
      "outputs": [
        {
          "internalType": "uint256",
          "name": "",
          "type": "uint256"
        }
      ],
      "stateMutability": "view",
      "type": "function",
      "constant": true
    },
    {
      "inputs": [
        {
          "internalType": "string[]",
          "name": "_candidates",
          "type": "string[]"
        }
      ],
      "name": "addBatch",
      "outputs": [],
      "stateMutability": "nonpayable",
      "type": "function"
    },
    {
      "inputs": [],
      "name": "getOne",
      "outputs": [
        {
          "internalType": "string",
          "name": "",
          "type": "string"
        }
      ],
      "stateMutability": "view",
      "type": "function",
      "constant": true
    },
    {
      "inputs": [],
      "name": "popOne",
      "outputs": [
        {
          "internalType": "string",
          "name": "",
          "type": "string"
        }
      ],
      "stateMutability": "nonpayable",
      "type": "function"
    },
    {
      "inputs": [],
      "name": "getAll",
      "outputs": [
        {
          "internalType": "string[]",
          "name": "",
          "type": "string[]"
        }
      ],
      "stateMutability": "view",
      "type": "function",
      "constant": true
    }
  ],
  "bytecode": "0x6080604052336000806101000a81548173ffffffffffffffffffffffffffffffffffffffff021916908373ffffffffffffffffffffffffffffffffffffffff1602179055503480156200005157600080fd5b50604051620011a4380380620011a48339818101604052810190620000779190620002b1565b80600181905550600067ffffffffffffffff811115620000c0577f4e487b7100000000000000000000000000000000000000000000000000000000600052604160045260246000fd5b604051908082528060200260200182016040528015620000f557816020015b6060815260200190600190039081620000df5790505b50600290805190602001906200010d92919062000115565b505062000366565b82805482825590600052602060002090810192821562000169579160200282015b8281111562000168578251829080519060200190620001579291906200017c565b509160200191906001019062000136565b5b5090506200017891906200020d565b5090565b8280546200018a90620002e7565b90600052602060002090601f016020900481019282620001ae5760008555620001fa565b82601f10620001c957805160ff1916838001178555620001fa565b82800160010185558215620001fa579182015b82811115620001f9578251825591602001919060010190620001dc565b5b50905062000209919062000235565b5090565b5b8082111562000231576000818162000227919062000254565b506001016200020e565b5090565b5b808211156200025057600081600090555060010162000236565b5090565b5080546200026290620002e7565b6000825580601f1062000276575062000297565b601f01602090049060005260206000209081019062000296919062000235565b5b50565b600081519050620002ab816200034c565b92915050565b600060208284031215620002c457600080fd5b6000620002d4848285016200029a565b91505092915050565b6000819050919050565b600060028204905060018216806200030057607f821691505b602082108114156200031757620003166200031d565b5b50919050565b7f4e487b7100000000000000000000000000000000000000000000000000000000600052602260045260246000fd5b6200035781620002dd565b81146200036357600080fd5b50565b610e2e80620003766000396000f3fe608060405234801561001057600080fd5b506004361061007f576000357c010000000000000000000000000000000000000000000000000000000090048063531285b91461008457806353b8a6c6146100a057806353ed5143146100be57806378e97925146100dc5780638da5cb5b146100fa578063ab5ed15014610118575b600080fd5b61009e6004803603810190610099919061091c565b610136565b005b6100a86102a9565b6040516100b59190610afa565b60405180910390f35b6100c661053b565b6040516100d39190610ad8565b60405180910390f35b6100e4610614565b6040516100f19190610b1c565b60405180910390f35b61010261061a565b60405161010f9190610abd565b60405180910390f35b61012061063e565b60405161012d9190610afa565b60405180910390f35b60008054906101000a900473ffffffffffffffffffffffffffffffffffffffff168073ffffffffffffffffffffffffffffffffffffffff163373ffffffffffffffffffffffffffffffffffffffff16146101bc576040517f82b4290000000000000000000000000000000000000000000000000000000000815260040160405180910390fd5b600154804211156101f9576040517fecdd1c2900000000000000000000000000000000000000000000000000000000815260040160405180910390fd5b60005b848490508110156102a2576002858583818110610242577f4e487b7100000000000000000000000000000000000000000000000000000000600052603260045260246000fd5b90506020028101906102549190610b37565b9091806001815401808255809150506001900390600052602060002001600090919290919290919290919250919061028d929190610762565b5060018161029b9190610bf4565b90506101fc565b5050505050565b6060600060028054905014156102eb576040517f3db2a12a00000000000000000000000000000000000000000000000000000000815260040160405180910390fd5b60006102f561072e565b905060006002805490508261030a9190610d29565b9050600060028281548110610348577f4e487b7100000000000000000000000000000000000000000000000000000000600052603260045260246000fd5b90600052602060002001805461035d90610ced565b80601f016020809104026020016040519081016040528092919081815260200182805461038990610ced565b80156103d65780601f106103ab576101008083540402835291602001916103d6565b820191906000526020600020905b8154815290600101906020018083116103b957829003601f168201915b50505050509050600260016002805490506103f19190610c4a565b81548110610428577f4e487b7100000000000000000000000000000000000000000000000000000000600052603260045260246000fd5b906000526020600020016002838154811061046c577f4e487b7100000000000000000000000000000000000000000000000000000000600052603260045260246000fd5b9060005260206000200190805461048290610ced565b61048d9291906107e8565b5060028054806104c6577f4e487b7100000000000000000000000000000000000000000000000000000000600052603160045260246000fd5b6001900381819060005260206000200160006104e29190610875565b90553373ffffffffffffffffffffffffffffffffffffffff167f79b04a02d84fec4f53dec01c843dee92deee8a6d7dc31a65ae8c2c6b60200cf38260405161052a9190610afa565b60405180910390a280935050505090565b60606002805480602002602001604051908101604052809291908181526020016000905b8282101561060b57838290600052602060002001805461057e90610ced565b80601f01602080910402602001604051908101604052809291908181526020018280546105aa90610ced565b80156105f75780601f106105cc576101008083540402835291602001916105f7565b820191906000526020600020905b8154815290600101906020018083116105da57829003601f168201915b50505050508152602001906001019061055f565b50505050905090565b60015481565b60008054906101000a900473ffffffffffffffffffffffffffffffffffffffff1681565b6060600061064a61072e565b9050600280805490508261065e9190610d29565b81548110610695577f4e487b7100000000000000000000000000000000000000000000000000000000600052603260045260246000fd5b9060005260206000200180546106aa90610ced565b80601f01602080910402602001604051908101604052809291908181526020018280546106d690610ced565b80156107235780601f106106f857610100808354040283529160200191610723565b820191906000526020600020905b81548152906001019060200180831161070657829003601f168201915b505050505091505090565b60004442604051602001610743929190610a91565b6040516020818303038152906040528051906020012060019004905090565b82805461076e90610ced565b90600052602060002090601f01602090048101928261079057600085556107d7565b82601f106107a957803560ff19168380011785556107d7565b828001600101855582156107d7579182015b828111156107d65782358255916020019190600101906107bb565b5b5090506107e491906108b5565b5090565b8280546107f490610ced565b90600052602060002090601f0160209004810192826108165760008555610864565b82601f106108275780548555610864565b8280016001018555821561086457600052602060002091601f016020900482015b82811115610863578254825591600101919060010190610848565b5b50905061087191906108b5565b5090565b50805461088190610ced565b6000825580601f1061089357506108b2565b601f0160209004906000526020600020908101906108b191906108b5565b5b50565b5b808211156108ce5760008160009055506001016108b6565b5090565b60008083601f8401126108e457600080fd5b8235905067ffffffffffffffff8111156108fd57600080fd5b60208301915083602082028301111561091557600080fd5b9250929050565b6000806020838503121561092f57600080fd5b600083013567ffffffffffffffff81111561094957600080fd5b610955858286016108d2565b92509250509250929050565b600061096d83836109f9565b905092915050565b61097e81610c7e565b82525050565b600061098f82610b9e565b6109998185610bc1565b9350836020820285016109ab85610b8e565b8060005b858110156109e757848403895281516109c88582610961565b94506109d383610bb4565b925060208a019950506001810190506109af565b50829750879550505050505092915050565b6000610a0482610ba9565b610a0e8185610bd2565b9350610a1e818560208601610cba565b610a2781610de7565b840191505092915050565b6000610a3d82610ba9565b610a478185610be3565b9350610a57818560208601610cba565b610a6081610de7565b840191505092915050565b610a7481610cb0565b82525050565b610a8b610a8682610cb0565b610d1f565b82525050565b6000610a9d8285610a7a565b602082019150610aad8284610a7a565b6020820191508190509392505050565b6000602082019050610ad26000830184610975565b92915050565b60006020820190508181036000830152610af28184610984565b905092915050565b60006020820190508181036000830152610b148184610a32565b905092915050565b6000602082019050610b316000830184610a6b565b92915050565b60008083356001602003843603038112610b5057600080fd5b80840192508235915067ffffffffffffffff821115610b6e57600080fd5b602083019250600182023603831315610b8657600080fd5b509250929050565b6000819050602082019050919050565b600081519050919050565b600081519050919050565b6000602082019050919050565b600082825260208201905092915050565b600082825260208201905092915050565b600082825260208201905092915050565b6000610bff82610cb0565b9150610c0a83610cb0565b9250827fffffffffffffffffffffffffffffffffffffffffffffffffffffffffffffffff03821115610c3f57610c3e610d5a565b5b828201905092915050565b6000610c5582610cb0565b9150610c6083610cb0565b925082821015610c7357610c72610d5a565b5b828203905092915050565b6000610c8982610c90565b9050919050565b600073ffffffffffffffffffffffffffffffffffffffff82169050919050565b6000819050919050565b60005b83811015610cd8578082015181840152602081019050610cbd565b83811115610ce7576000848401525b50505050565b60006002820490506001821680610d0557607f821691505b60208210811415610d1957610d18610db8565b5b50919050565b6000819050919050565b6000610d3482610cb0565b9150610d3f83610cb0565b925082610d4f57610d4e610d89565b5b828206905092915050565b7f4e487b7100000000000000000000000000000000000000000000000000000000600052601160045260246000fd5b7f4e487b7100000000000000000000000000000000000000000000000000000000600052601260045260246000fd5b7f4e487b7100000000000000000000000000000000000000000000000000000000600052602260045260246000fd5b6000601f19601f830116905091905056fea264697066735822122063e3abb5722e607dc7fb5b915b0ca38ce459c1f9fff4410645829fb41b4e0b7d64736f6c63430008040033",
  "immutableReferences": {},
  "source": "// SPDX-License-Identifier: MIT\r\npragma solidity ^0.8.0;\r\n\r\ncontract Config {\r\n    address public owner = msg.sender;\r\n    uint256 public startTime;\r\n\r\n    string[] candidates;\r\n\r\n    error Unauthorized();\r\n    error TooEarly();\r\n    error TooLate();\r\n    error Empty();\r\n    event Mint(string url, address indexed sender);\r\n\r\n    modifier onlyBy(address _account) {\r\n        if (msg.sender != _account) revert Unauthorized();\r\n        _;\r\n    }\r\n\r\n    modifier onlyAfter(uint256 _time) {\r\n        if (block.timestamp < _time) revert TooEarly();\r\n        _;\r\n    }\r\n\r\n    modifier onlyBefore(uint256 _time) {\r\n        if (block.timestamp > _time) revert TooLate();\r\n        _;\r\n    }\r\n\r\n    constructor(uint256 _startTime) {\r\n        startTime = _startTime;\r\n        candidates = new string[](0);\r\n    }\r\n\r\n    function addBatch(string[] calldata _candidates)\r\n        public\r\n        onlyBy(owner)\r\n        onlyBefore(startTime)\r\n    {\r\n        for (uint256 i = 0; i < _candidates.length; i += 1) {\r\n            candidates.push(_candidates[i]);\r\n        }\r\n    }\r\n\r\n    function random() private view returns (uint256) {\r\n        return\r\n            uint256(\r\n                keccak256(abi.encodePacked(block.difficulty, block.timestamp))\r\n            );\r\n    }\r\n\r\n    function getOne() public view returns (string memory) {\r\n        uint256 rand = random();\r\n        return candidates[rand % candidates.length];\r\n    }\r\n\r\n    function popOne() public returns (string memory) {\r\n        if (candidates.length == 0) {\r\n            revert Empty();\r\n        }\r\n        uint256 rand = random();\r\n        uint256 idx = rand % candidates.length;\r\n        string memory element = candidates[idx];\r\n        candidates[idx] = candidates[candidates.length - 1];\r\n        candidates.pop();\r\n        emit Mint(element, msg.sender);\r\n        return element;\r\n    }\r\n\r\n    function getAll() public view returns (string[] memory) {\r\n        return candidates;\r\n    }\r\n}\r\n",
  "sourcePath": "C:\\Users\\kumquatexpress\\projects\\test-polygon\\src\\contracts\\contracts\\polygon\\Config.sol",
  "compiler": {
    "name": "solc",
    "version": "0.8.4+commit.c7e474f2.Emscripten.clang"
  },
  "schemaVersion": "3.4.4",
  "updatedAt": "2022-01-12T04:28:21.682Z",
  "networkType": "ethereum",
  "devdoc": {
    "kind": "dev",
    "methods": {},
    "version": 1
  },
  "userdoc": {
    "kind": "user",
    "methods": {},
    "version": 1
  },
  "db": {
    "callBytecode": {
      "id": "0xf1311774ea101a6a3cedbe2935f849bcc3422bb80a3c667f24dfa70178c058cc"
    },
    "createBytecode": {
      "id": "0x2d48bd8ed70d7f8efaf948281366ad940f4d328324e2194066cc03881d380c0d"
    },
    "contract": {
      "id": "0x3e2c18eb1f7cee62ec66fd9d5198855f200a9242c99d980c4b9594a11c16b9ab"
    }
  }
}