{
  "contractName": "Machine",
  "abi": [
    {
      "anonymous": false,
      "inputs": [
        {
          "indexed": true,
          "internalType": "address",
          "name": "configAddress",
          "type": "address"
        },
        {
          "indexed": true,
          "internalType": "address",
          "name": "sender",
          "type": "address"
        }
      ],
      "name": "Create",
      "type": "event"
    },
    {
      "inputs": [],
      "name": "owner",
      "outputs": [
        {
          "internalType": "address",
          "name": "",
          "type": "address"
        }
      ],
      "stateMutability": "view",
      "type": "function",
      "constant": true
    },
    {
      "inputs": [
        {
          "internalType": "string",
          "name": "_name",
          "type": "string"
        },
        {
          "internalType": "string",
          "name": "_symbol",
          "type": "string"
        },
        {
          "internalType": "uint256",
          "name": "_priceWei",
          "type": "uint256"
        },
        {
          "internalType": "uint256",
          "name": "_startTime",
          "type": "uint256"
        },
        {
          "internalType": "address payable[]",
          "name": "_creators",
          "type": "address[]"
        },
        {
          "internalType": "uint256[]",
          "name": "_amounts",
          "type": "uint256[]"
        },
        {
          "internalType": "uint256[]",
          "name": "_percentages",
          "type": "uint256[]"
        }
      ],
      "name": "create",
      "outputs": [
        {
          "internalType": "address",
          "name": "configAddress",
          "type": "address"
        }
      ],
      "stateMutability": "nonpayable",
      "type": "function"
    }
  ],
  "bytecode": "0x6080604052336000806101000a81548173ffffffffffffffffffffffffffffffffffffffff021916908373ffffffffffffffffffffffffffffffffffffffff16021790555034801561005057600080fd5b5061506a806100606000396000f3fe60806040523480156200001157600080fd5b506004361062000057576000357c0100000000000000000000000000000000000000000000000000000000900480638da5cb5b146200005c578063973eb3c7146200007e575b600080fd5b62000066620000b4565b60405162000075919062000636565b60405180910390f35b6200009c60048036038101906200009691906200037f565b620000d8565b604051620000ab919062000636565b60405180910390f35b60008054906101000a900473ffffffffffffffffffffffffffffffffffffffff1681565b6000808888888833898989604051620000f1906200018d565b6200010498979695949392919062000653565b604051809103906000f08015801562000121573d6000803e3d6000fd5b5090503373ffffffffffffffffffffffffffffffffffffffff168173ffffffffffffffffffffffffffffffffffffffff167f96b5b9b8a7193304150caccf9b80d150675fa3d6af57761d8d8ef1d6f9a1a90960405160405180910390a380915050979650505050505050565b6146a4806200099183390190565b6000620001b2620001ac846200072d565b62000704565b90508083825260208201905082856020860282011115620001d257600080fd5b60005b85811015620002065781620001eb8882620002ca565b845260208401935060208301925050600181019050620001d5565b5050509392505050565b60006200022762000221846200075c565b62000704565b905080838252602082019050828560208602820111156200024757600080fd5b60005b858110156200027b578162000260888262000368565b8452602084019350602083019250506001810190506200024a565b5050509392505050565b60006200029c62000296846200078b565b62000704565b905082815260208101848484011115620002b557600080fd5b620002c2848285620008a1565b509392505050565b600081359050620002db816200095c565b92915050565b600082601f830112620002f357600080fd5b8135620003058482602086016200019b565b91505092915050565b600082601f8301126200032057600080fd5b81356200033284826020860162000210565b91505092915050565b600082601f8301126200034d57600080fd5b81356200035f84826020860162000285565b91505092915050565b600081359050620003798162000976565b92915050565b600080600080600080600060e0888a0312156200039b57600080fd5b600088013567ffffffffffffffff811115620003b657600080fd5b620003c48a828b016200033b565b975050602088013567ffffffffffffffff811115620003e257600080fd5b620003f08a828b016200033b565b9650506040620004038a828b0162000368565b9550506060620004168a828b0162000368565b945050608088013567ffffffffffffffff8111156200043457600080fd5b620004428a828b01620002e1565b93505060a088013567ffffffffffffffff8111156200046057600080fd5b6200046e8a828b016200030e565b92505060c088013567ffffffffffffffff8111156200048c57600080fd5b6200049a8a828b016200030e565b91505092959891949750929550565b6000620004b78383620004dd565b60208301905092915050565b6000620004d1838362000614565b60208301905092915050565b620004e88162000863565b82525050565b620004f9816200084f565b82525050565b60006200050c82620007e1565b6200051881856200081c565b93506200052583620007c1565b8060005b838110156200055c578151620005408882620004a9565b97506200054d8362000802565b92505060018101905062000529565b5085935050505092915050565b60006200057682620007ec565b6200058281856200082d565b93506200058f83620007d1565b8060005b83811015620005c6578151620005aa8882620004c3565b9750620005b7836200080f565b92505060018101905062000593565b5085935050505092915050565b6000620005e082620007f7565b620005ec81856200083e565b9350620005fe818560208601620008b0565b62000609816200094b565b840191505092915050565b6200061f8162000897565b82525050565b620006308162000897565b82525050565b60006020820190506200064d6000830184620004ee565b92915050565b600061010082019050818103600083015262000670818b620005d3565b9050818103602083015262000686818a620005d3565b905062000697604083018962000625565b620006a6606083018862000625565b620006b56080830187620004ee565b81810360a0830152620006c98186620004ff565b905081810360c0830152620006df818562000569565b905081810360e0830152620006f5818462000569565b90509998505050505050505050565b60006200071062000723565b90506200071e8282620008e6565b919050565b6000604051905090565b600067ffffffffffffffff8211156200074b576200074a6200091c565b5b602082029050602081019050919050565b600067ffffffffffffffff8211156200077a57620007796200091c565b5b602082029050602081019050919050565b600067ffffffffffffffff821115620007a957620007a86200091c565b5b620007b4826200094b565b9050602081019050919050565b6000819050602082019050919050565b6000819050602082019050919050565b600081519050919050565b600081519050919050565b600081519050919050565b6000602082019050919050565b6000602082019050919050565b600082825260208201905092915050565b600082825260208201905092915050565b600082825260208201905092915050565b60006200085c8262000877565b9050919050565b6000620008708262000877565b9050919050565b600073ffffffffffffffffffffffffffffffffffffffff82169050919050565b6000819050919050565b82818337600083830152505050565b60005b83811015620008d0578082015181840152602081019050620008b3565b83811115620008e0576000848401525b50505050565b620008f1826200094b565b810181811067ffffffffffffffff821117156200091357620009126200091c565b5b80604052505050565b7f4e487b7100000000000000000000000000000000000000000000000000000000600052604160045260246000fd5b6000601f19601f8301169050919050565b620009678162000863565b81146200097357600080fd5b50565b620009818162000897565b81146200098d57600080fd5b5056fe60806040523480156200001157600080fd5b50604051620046a4380380620046a4833981810160405281019062000037919062000606565b8787816000908051906020019062000051929190620001a5565b5080600190805190602001906200006a929190620001a5565b50505084600c81905550600067ffffffffffffffff811115620000b6577f4e487b7100000000000000000000000000000000000000000000000000000000600052604160045260246000fd5b604051908082528060200260200182016040528015620000eb57816020015b6060815260200190600190039081620000d55790505b50600e90805190602001906200010392919062000236565b5083600860006101000a81548173ffffffffffffffffffffffffffffffffffffffff021916908373ffffffffffffffffffffffffffffffffffffffff16021790555085600d819055508260099080519060200190620001649291906200029d565b5081600a90805190602001906200017d9291906200032c565b5080600b9080519060200190620001969291906200032c565b505050505050505050620009b4565b828054620001b3906200088b565b90600052602060002090601f016020900481019282620001d7576000855562000223565b82601f10620001f257805160ff191683800117855562000223565b8280016001018555821562000223579182015b828111156200022257825182559160200191906001019062000205565b5b5090506200023291906200037e565b5090565b8280548282559060005260206000209081019282156200028a579160200282015b828111156200028957825182908051906020019062000278929190620001a5565b509160200191906001019062000257565b5b5090506200029991906200039d565b5090565b82805482825590600052602060002090810192821562000319579160200282015b82811115620003185782518260006101000a81548173ffffffffffffffffffffffffffffffffffffffff021916908373ffffffffffffffffffffffffffffffffffffffff16021790555091602001919060010190620002be565b5b5090506200032891906200037e565b5090565b8280548282559060005260206000209081019282156200036b579160200282015b828111156200036a5782518255916020019190600101906200034d565b5b5090506200037a91906200037e565b5090565b5b80821115620003995760008160009055506001016200037f565b5090565b5b80821115620003c15760008181620003b79190620003c5565b506001016200039e565b5090565b508054620003d3906200088b565b6000825580601f10620003e7575062000408565b601f0160209004906000526020600020908101906200040791906200037e565b5b50565b6000620004226200041c846200076f565b62000746565b905080838252602082019050828560208602820111156200044257600080fd5b60005b858110156200047657816200045b888262000551565b84526020840193506020830192505060018101905062000445565b5050509392505050565b60006200049762000491846200079e565b62000746565b90508083825260208201905082856020860282011115620004b757600080fd5b60005b85811015620004eb5781620004d08882620005ef565b845260208401935060208301925050600181019050620004ba565b5050509392505050565b60006200050c6200050684620007cd565b62000746565b9050828152602081018484840111156200052557600080fd5b6200053284828562000855565b509392505050565b6000815190506200054b8162000966565b92915050565b600081519050620005628162000980565b92915050565b600082601f8301126200057a57600080fd5b81516200058c8482602086016200040b565b91505092915050565b600082601f830112620005a757600080fd5b8151620005b984826020860162000480565b91505092915050565b600082601f830112620005d457600080fd5b8151620005e6848260208601620004f5565b91505092915050565b60008151905062000600816200099a565b92915050565b600080600080600080600080610100898b0312156200062457600080fd5b600089015167ffffffffffffffff8111156200063f57600080fd5b6200064d8b828c01620005c2565b985050602089015167ffffffffffffffff8111156200066b57600080fd5b620006798b828c01620005c2565b97505060406200068c8b828c01620005ef565b96505060606200069f8b828c01620005ef565b9550506080620006b28b828c016200053a565b94505060a089015167ffffffffffffffff811115620006d057600080fd5b620006de8b828c0162000568565b93505060c089015167ffffffffffffffff811115620006fc57600080fd5b6200070a8b828c0162000595565b92505060e089015167ffffffffffffffff8111156200072857600080fd5b620007368b828c0162000595565b9150509295985092959890939650565b60006200075262000765565b9050620007608282620008c1565b919050565b6000604051905090565b600067ffffffffffffffff8211156200078d576200078c62000926565b5b602082029050602081019050919050565b600067ffffffffffffffff821115620007bc57620007bb62000926565b5b602082029050602081019050919050565b600067ffffffffffffffff821115620007eb57620007ea62000926565b5b620007f68262000955565b9050602081019050919050565b600062000810826200082b565b9050919050565b600062000824826200082b565b9050919050565b600073ffffffffffffffffffffffffffffffffffffffff82169050919050565b6000819050919050565b60005b838110156200087557808201518184015260208101905062000858565b8381111562000885576000848401525b50505050565b60006002820490506001821680620008a457607f821691505b60208210811415620008bb57620008ba620008f7565b5b50919050565b620008cc8262000955565b810181811067ffffffffffffffff82111715620008ee57620008ed62000926565b5b80604052505050565b7f4e487b7100000000000000000000000000000000000000000000000000000000600052602260045260246000fd5b7f4e487b7100000000000000000000000000000000000000000000000000000000600052604160045260246000fd5b6000601f19601f8301169050919050565b620009718162000803565b81146200097d57600080fd5b50565b6200098b8162000817565b81146200099757600080fd5b50565b620009a5816200084b565b8114620009b157600080fd5b50565b613ce080620009c46000396000f3fe608060405260043610610183576000357c01000000000000000000000000000000000000000000000000000000009004806370a08231116100ee578063b155d7fa116100a7578063c87b56dd11610081578063c87b56dd1461053a578063cd53d08e14610577578063e985e9c5146105b4578063f8858386146105f157610183565b8063b155d7fa146104dc578063b7ec2086146104e6578063b88d4fde1461051157610183565b806370a08231146103ca57806378e97925146104075780638c2d1549146104325780638da5cb5b1461045d57806395d89b4114610488578063a22cb465146104b357610183565b80633477ee2e116101405780633477ee2e146102aa5780633ccfd60b146102e757806342842e0e146102fe57806345f0a44f14610327578063531285b9146103645780636352211e1461038d57610183565b806301ffc9a71461018857806306fdde03146101c5578063081812fc146101f0578063095ea7b31461022d57806323b872dd146102565780632e6997fe1461027f575b600080fd5b34801561019457600080fd5b506101af60048036038101906101aa9190612aba565b61062e565b6040516101bc9190613034565b60405180910390f35b3480156101d157600080fd5b506101da610710565b6040516101e7919061304f565b60405180910390f35b3480156101fc57600080fd5b5061021760048036038101906102129190612b0c565b6107a2565b6040516102249190612f90565b60405180910390f35b34801561023957600080fd5b50610254600480360381019061024f9190612a39565b610827565b005b34801561026257600080fd5b5061027d60048036038101906102789190612933565b61093f565b005b34801561028b57600080fd5b5061029461099f565b6040516102a19190613012565b60405180910390f35b3480156102b657600080fd5b506102d160048036038101906102cc9190612b0c565b610a78565b6040516102de919061304f565b60405180910390f35b3480156102f357600080fd5b506102fc610b24565b005b34801561030a57600080fd5b5061032560048036038101906103209190612933565b610d1d565b005b34801561033357600080fd5b5061034e60048036038101906103499190612b0c565b610d3d565b60405161035b9190613291565b60405180910390f35b34801561037057600080fd5b5061038b60048036038101906103869190612a75565b610d61565b005b34801561039957600080fd5b506103b460048036038101906103af9190612b0c565b610ed6565b6040516103c19190612f90565b60405180910390f35b3480156103d657600080fd5b506103f160048036038101906103ec91906128ce565b610f88565b6040516103fe9190613291565b60405180910390f35b34801561041357600080fd5b5061041c611040565b6040516104299190613291565b60405180910390f35b34801561043e57600080fd5b50610447611046565b6040516104549190613291565b60405180910390f35b34801561046957600080fd5b50610472611057565b60405161047f9190612fab565b60405180910390f35b34801561049457600080fd5b5061049d61107d565b6040516104aa919061304f565b60405180910390f35b3480156104bf57600080fd5b506104da60048036038101906104d591906129fd565b61110f565b005b6104e4611125565b005b3480156104f257600080fd5b506104fb6114ee565b6040516105089190613291565b60405180910390f35b34801561051d57600080fd5b5061053860048036038101906105339190612982565b6114f4565b005b34801561054657600080fd5b50610561600480360381019061055c9190612b0c565b611556565b60405161056e919061304f565b60405180910390f35b34801561058357600080fd5b5061059e60048036038101906105999190612b0c565b6116a8565b6040516105ab9190612fab565b60405180910390f35b3480156105c057600080fd5b506105db60048036038101906105d691906128f7565b6116e7565b6040516105e89190613034565b60405180910390f35b3480156105fd57600080fd5b5061061860048036038101906106139190612b0c565b61177b565b6040516106259190613291565b60405180910390f35b60007f80ac58cd000000000000000000000000000000000000000000000000000000007bffffffffffffffffffffffffffffffffffffffffffffffffffffffff1916827bffffffffffffffffffffffffffffffffffffffffffffffffffffffff191614806106f957507f5b5e139f000000000000000000000000000000000000000000000000000000007bffffffffffffffffffffffffffffffffffffffffffffffffffffffff1916827bffffffffffffffffffffffffffffffffffffffffffffffffffffffff1916145b8061070957506107088261179f565b5b9050919050565b60606000805461071f906135f3565b80601f016020809104026020016040519081016040528092919081815260200182805461074b906135f3565b80156107985780601f1061076d57610100808354040283529160200191610798565b820191906000526020600020905b81548152906001019060200180831161077b57829003601f168201915b5050505050905090565b60006107ad82611809565b6107ec576040517f08c379a00000000000000000000000000000000000000000000000000000000081526004016107e3906131f1565b60405180910390fd5b6004600083815260200190815260200160002060009054906101000a900473ffffffffffffffffffffffffffffffffffffffff169050919050565b600061083282610ed6565b90508073ffffffffffffffffffffffffffffffffffffffff168373ffffffffffffffffffffffffffffffffffffffff1614156108a3576040517f08c379a000000000000000000000000000000000000000000000000000000000815260040161089a90613251565b60405180910390fd5b8073ffffffffffffffffffffffffffffffffffffffff166108c2611875565b73ffffffffffffffffffffffffffffffffffffffff1614806108f157506108f0816108eb611875565b6116e7565b5b610930576040517f08c379a000000000000000000000000000000000000000000000000000000000815260040161092790613131565b60405180910390fd5b61093a838361187d565b505050565b61095061094a611875565b82611936565b61098f576040517f08c379a000000000000000000000000000000000000000000000000000000000815260040161098690613271565b60405180910390fd5b61099a838383611a14565b505050565b6060600e805480602002602001604051908101604052809291908181526020016000905b82821015610a6f5783829060005260206000200180546109e2906135f3565b80601f0160208091040260200160405190810160405280929190818152602001828054610a0e906135f3565b8015610a5b5780601f10610a3057610100808354040283529160200191610a5b565b820191906000526020600020905b815481529060010190602001808311610a3e57829003601f168201915b5050505050815260200190600101906109c3565b50505050905090565b600e8181548110610a8857600080fd5b906000526020600020016000915090508054610aa3906135f3565b80601f0160208091040260200160405190810160405280929190818152602001828054610acf906135f3565b8015610b1c5780601f10610af157610100808354040283529160200191610b1c565b820191906000526020600020905b815481529060010190602001808311610aff57829003601f168201915b505050505081565b60005b600980549050811015610d1a573373ffffffffffffffffffffffffffffffffffffffff1660098281548110610b85577f4e487b7100000000000000000000000000000000000000000000000000000000600052603260045260246000fd5b9060005260206000200160009054906101000a900473ffffffffffffffffffffffffffffffffffffffff1673ffffffffffffffffffffffffffffffffffffffff161415610d065760098181548110610c06577f4e487b7100000000000000000000000000000000000000000000000000000000600052603260045260246000fd5b9060005260206000200160009054906101000a900473ffffffffffffffffffffffffffffffffffffffff1673ffffffffffffffffffffffffffffffffffffffff166108fc600a8381548110610c84577f4e487b7100000000000000000000000000000000000000000000000000000000600052603260045260246000fd5b90600052602060002001549081150290604051600060405180830381858888f19350505050158015610cba573d6000803e3d6000fd5b506000600a8281548110610cf7577f4e487b7100000000000000000000000000000000000000000000000000000000600052603260045260246000fd5b90600052602060002001819055505b600181610d139190613416565b9050610b27565b50565b610d38838383604051806020016040528060008152506114f4565b505050565b600a8181548110610d4d57600080fd5b906000526020600020016000915090505481565b600860009054906101000a900473ffffffffffffffffffffffffffffffffffffffff168073ffffffffffffffffffffffffffffffffffffffff163373ffffffffffffffffffffffffffffffffffffffff1614610de9576040517f82b4290000000000000000000000000000000000000000000000000000000000815260040160405180910390fd5b600c5480421115610e26576040517fecdd1c2900000000000000000000000000000000000000000000000000000000815260040160405180910390fd5b60005b84849050811015610ecf57600e858583818110610e6f577f4e487b7100000000000000000000000000000000000000000000000000000000600052603260045260246000fd5b9050602002810190610e8191906132dc565b90918060018154018082558091505060019003906000526020600020016000909192909192909192909192509190610eba9291906125bd565b50600181610ec89190613416565b9050610e29565b5050505050565b6000806002600084815260200190815260200160002060009054906101000a900473ffffffffffffffffffffffffffffffffffffffff169050600073ffffffffffffffffffffffffffffffffffffffff168173ffffffffffffffffffffffffffffffffffffffff161415610f7f576040517f08c379a0000000000000000000000000000000000000000000000000000000008152600401610f7690613171565b60405180910390fd5b80915050919050565b60008073ffffffffffffffffffffffffffffffffffffffff168273ffffffffffffffffffffffffffffffffffffffff161415610ff9576040517f08c379a0000000000000000000000000000000000000000000000000000000008152600401610ff090613151565b60405180910390fd5b600360008373ffffffffffffffffffffffffffffffffffffffff1673ffffffffffffffffffffffffffffffffffffffff168152602001908152602001600020549050919050565b600c5481565b60006110526007611c70565b905090565b600860009054906101000a900473ffffffffffffffffffffffffffffffffffffffff1681565b60606001805461108c906135f3565b80601f01602080910402602001604051908101604052809291908181526020018280546110b8906135f3565b80156111055780601f106110da57610100808354040283529160200191611105565b820191906000526020600020905b8154815290600101906020018083116110e857829003601f168201915b5050505050905090565b61112161111a611875565b8383611c7e565b5050565b600d5434101561116a576040517f08c379a000000000000000000000000000000000000000000000000000000000815260040161116190613111565b60405180910390fd5b60006111766007611c70565b90506000600e8054905014156111b8576040517f3db2a12a00000000000000000000000000000000000000000000000000000000815260040160405180910390fd5b60006111c2611deb565b90506000600e80549050826111d791906136a9565b90506000600e8281548110611215577f4e487b7100000000000000000000000000000000000000000000000000000000600052603260045260246000fd5b90600052602060002001805461122a906135f3565b80601f0160208091040260200160405190810160405280929190818152602001828054611256906135f3565b80156112a35780601f10611278576101008083540402835291602001916112a3565b820191906000526020600020905b81548152906001019060200180831161128657829003601f168201915b50505050509050600e6001600e805490506112be91906134f7565b815481106112f5577f4e487b7100000000000000000000000000000000000000000000000000000000600052603260045260246000fd5b90600052602060002001600e8381548110611339577f4e487b7100000000000000000000000000000000000000000000000000000000600052603260045260246000fd5b9060005260206000200190805461134f906135f3565b61135a929190612643565b50600e805480611393577f4e487b7100000000000000000000000000000000000000000000000000000000600052603160045260246000fd5b6001900381819060005260206000200160006113af91906126d0565b90556113bb3385611e1f565b6113c58482611e3d565b6113cf6007611eb1565b60005b600980549050811015611497576064600b828154811061141b577f4e487b7100000000000000000000000000000000000000000000000000000000600052603260045260246000fd5b906000526020600020015434611431919061349d565b61143b919061346c565b600a8281548110611475577f4e487b7100000000000000000000000000000000000000000000000000000000600052603260045260246000fd5b90600052602060002001819055506001816114909190613416565b90506113d2565b503373ffffffffffffffffffffffffffffffffffffffff167f983d37d8751fcfa80e95e5fe2c0f46fb7b541b280961dc7ac00aa2670e2edd8785836040516114e09291906132ac565b60405180910390a250505050565b600d5481565b6115056114ff611875565b83611936565b611544576040517f08c379a000000000000000000000000000000000000000000000000000000000815260040161153b90613271565b60405180910390fd5b61155084848484611ec7565b50505050565b606061156182611809565b6115a0576040517f08c379a0000000000000000000000000000000000000000000000000000000008152600401611597906131d1565b60405180910390fd5b60006006600084815260200190815260200160002080546115c0906135f3565b80601f01602080910402602001604051908101604052809291908181526020018280546115ec906135f3565b80156116395780601f1061160e57610100808354040283529160200191611639565b820191906000526020600020905b81548152906001019060200180831161161c57829003601f168201915b50505050509050600061164a611f23565b90506000815114156116605781925050506116a3565b60008251111561169557808260405160200161167d929190612f40565b604051602081830303815290604052925050506116a3565b61169e84611f3a565b925050505b919050565b600981815481106116b857600080fd5b906000526020600020016000915054906101000a900473ffffffffffffffffffffffffffffffffffffffff1681565b6000600560008473ffffffffffffffffffffffffffffffffffffffff1673ffffffffffffffffffffffffffffffffffffffff16815260200190815260200160002060008373ffffffffffffffffffffffffffffffffffffffff1673ffffffffffffffffffffffffffffffffffffffff16815260200190815260200160002060009054906101000a900460ff16905092915050565b600b818154811061178b57600080fd5b906000526020600020016000915090505481565b60007f01ffc9a7000000000000000000000000000000000000000000000000000000007bffffffffffffffffffffffffffffffffffffffffffffffffffffffff1916827bffffffffffffffffffffffffffffffffffffffffffffffffffffffff1916149050919050565b60008073ffffffffffffffffffffffffffffffffffffffff166002600084815260200190815260200160002060009054906101000a900473ffffffffffffffffffffffffffffffffffffffff1673ffffffffffffffffffffffffffffffffffffffff1614159050919050565b600033905090565b816004600083815260200190815260200160002060006101000a81548173ffffffffffffffffffffffffffffffffffffffff021916908373ffffffffffffffffffffffffffffffffffffffff160217905550808273ffffffffffffffffffffffffffffffffffffffff166118f083610ed6565b73ffffffffffffffffffffffffffffffffffffffff167f8c5be1e5ebec7d5bd14f71427d1e84f3dd0314c0f7b2291e5b200ac8c7c3b92560405160405180910390a45050565b600061194182611809565b611980576040517f08c379a0000000000000000000000000000000000000000000000000000000008152600401611977906130f1565b60405180910390fd5b600061198b83610ed6565b90508073ffffffffffffffffffffffffffffffffffffffff168473ffffffffffffffffffffffffffffffffffffffff1614806119fa57508373ffffffffffffffffffffffffffffffffffffffff166119e2846107a2565b73ffffffffffffffffffffffffffffffffffffffff16145b80611a0b5750611a0a81856116e7565b5b91505092915050565b8273ffffffffffffffffffffffffffffffffffffffff16611a3482610ed6565b73ffffffffffffffffffffffffffffffffffffffff1614611a8a576040517f08c379a0000000000000000000000000000000000000000000000000000000008152600401611a8190613211565b60405180910390fd5b600073ffffffffffffffffffffffffffffffffffffffff168273ffffffffffffffffffffffffffffffffffffffff161415611afa576040517f08c379a0000000000000000000000000000000000000000000000000000000008152600401611af1906130b1565b60405180910390fd5b611b05838383611fe1565b611b1060008261187d565b6001600360008573ffffffffffffffffffffffffffffffffffffffff1673ffffffffffffffffffffffffffffffffffffffff1681526020019081526020016000206000828254611b6091906134f7565b925050819055506001600360008473ffffffffffffffffffffffffffffffffffffffff1673ffffffffffffffffffffffffffffffffffffffff1681526020019081526020016000206000828254611bb79190613416565b92505081905550816002600083815260200190815260200160002060006101000a81548173ffffffffffffffffffffffffffffffffffffffff021916908373ffffffffffffffffffffffffffffffffffffffff160217905550808273ffffffffffffffffffffffffffffffffffffffff168473ffffffffffffffffffffffffffffffffffffffff167fddf252ad1be2c89b69c2b068fc378daa952ba7f163c4a11628f55a4df523b3ef60405160405180910390a4505050565b600081600001549050919050565b8173ffffffffffffffffffffffffffffffffffffffff168373ffffffffffffffffffffffffffffffffffffffff161415611ced576040517f08c379a0000000000000000000000000000000000000000000000000000000008152600401611ce4906130d1565b60405180910390fd5b80600560008573ffffffffffffffffffffffffffffffffffffffff1673ffffffffffffffffffffffffffffffffffffffff16815260200190815260200160002060008473ffffffffffffffffffffffffffffffffffffffff1673ffffffffffffffffffffffffffffffffffffffff16815260200190815260200160002060006101000a81548160ff0219169083151502179055508173ffffffffffffffffffffffffffffffffffffffff168373ffffffffffffffffffffffffffffffffffffffff167f17307eab39ab6107e8899845ad3d59bd9653f200f220920489ca2b5937696c3183604051611dde9190613034565b60405180910390a3505050565b60004442604051602001611e00929190612f64565b6040516020818303038152906040528051906020012060019004905090565b611e39828260405180602001604052806000815250611fe6565b5050565b611e4682611809565b611e85576040517f08c379a0000000000000000000000000000000000000000000000000000000008152600401611e7c90613191565b60405180910390fd5b80600660008481526020019081526020016000209080519060200190611eac929190612710565b505050565b6001816000016000828254019250508190555050565b611ed2848484611a14565b611ede84848484612041565b611f1d576040517f08c379a0000000000000000000000000000000000000000000000000000000008152600401611f1490613071565b60405180910390fd5b50505050565b606060405180602001604052806000815250905090565b6060611f4582611809565b611f84576040517f08c379a0000000000000000000000000000000000000000000000000000000008152600401611f7b90613231565b60405180910390fd5b6000611f8e611f23565b90506000815111611fae5760405180602001604052806000815250611fd9565b80611fb884612210565b604051602001611fc9929190612f40565b6040516020818303038152906040525b915050919050565b505050565b611ff083836123dc565b611ffd6000848484612041565b61203c576040517f08c379a000000000000000000000000000000000000000000000000000000000815260040161203390613071565b60405180910390fd5b505050565b60006120628473ffffffffffffffffffffffffffffffffffffffff166125aa565b15612203578373ffffffffffffffffffffffffffffffffffffffff1663150b7a0261208b611875565b8786866040518563ffffffff167c01000000000000000000000000000000000000000000000000000000000281526004016120c99493929190612fc6565b602060405180830381600087803b1580156120e357600080fd5b505af192505050801561211457506040513d601f19601f820116820180604052508101906121119190612ae3565b60015b612197573d8060008114612144576040519150601f19603f3d011682016040523d82523d6000602084013e612149565b606091505b5060008151141561218f576040517f08c379a000000000000000000000000000000000000000000000000000000000815260040161218690613071565b60405180910390fd5b805181602001fd5b63150b7a027c0100000000000000000000000000000000000000000000000000000000027bffffffffffffffffffffffffffffffffffffffffffffffffffffffff1916817bffffffffffffffffffffffffffffffffffffffffffffffffffffffff191614915050612208565b600190505b949350505050565b60606000821415612258576040518060400160405280600181526020017f300000000000000000000000000000000000000000000000000000000000000081525090506123d7565b600082905060005b6000821461228a57808061227390613656565b915050600a82612283919061346c565b9150612260565b60008167ffffffffffffffff8111156122cc577f4e487b7100000000000000000000000000000000000000000000000000000000600052604160045260246000fd5b6040519080825280601f01601f1916602001820160405280156122fe5781602001600182028036833780820191505090505b5090505b600085146123d05760018261231791906134f7565b9150600a8561232691906136a9565b60306123329190613416565b7f01000000000000000000000000000000000000000000000000000000000000000281838151811061238d577f4e487b7100000000000000000000000000000000000000000000000000000000600052603260045260246000fd5b60200101907effffffffffffffffffffffffffffffffffffffffffffffffffffffffffffff1916908160001a905350600a856123c9919061346c565b9450612302565b8093505050505b919050565b600073ffffffffffffffffffffffffffffffffffffffff168273ffffffffffffffffffffffffffffffffffffffff16141561244c576040517f08c379a0000000000000000000000000000000000000000000000000000000008152600401612443906131b1565b60405180910390fd5b61245581611809565b15612495576040517f08c379a000000000000000000000000000000000000000000000000000000000815260040161248c90613091565b60405180910390fd5b6124a160008383611fe1565b6001600360008473ffffffffffffffffffffffffffffffffffffffff1673ffffffffffffffffffffffffffffffffffffffff16815260200190815260200160002060008282546124f19190613416565b92505081905550816002600083815260200190815260200160002060006101000a81548173ffffffffffffffffffffffffffffffffffffffff021916908373ffffffffffffffffffffffffffffffffffffffff160217905550808273ffffffffffffffffffffffffffffffffffffffff16600073ffffffffffffffffffffffffffffffffffffffff167fddf252ad1be2c89b69c2b068fc378daa952ba7f163c4a11628f55a4df523b3ef60405160405180910390a45050565b600080823b905060008111915050919050565b8280546125c9906135f3565b90600052602060002090601f0160209004810192826125eb5760008555612632565b82601f1061260457803560ff1916838001178555612632565b82800160010185558215612632579182015b82811115612631578235825591602001919060010190612616565b5b50905061263f9190612796565b5090565b82805461264f906135f3565b90600052602060002090601f01602090048101928261267157600085556126bf565b82601f1061268257805485556126bf565b828001600101855582156126bf57600052602060002091601f016020900482015b828111156126be5782548255916001019190600101906126a3565b5b5090506126cc9190612796565b5090565b5080546126dc906135f3565b6000825580601f106126ee575061270d565b601f01602090049060005260206000209081019061270c9190612796565b5b50565b82805461271c906135f3565b90600052602060002090601f01602090048101928261273e5760008555612785565b82601f1061275757805160ff1916838001178555612785565b82800160010185558215612785579182015b82811115612784578251825591602001919060010190612769565b5b5090506127929190612796565b5090565b5b808211156127af576000816000905550600101612797565b5090565b60006127c66127c184613358565b613333565b9050828152602081018484840111156127de57600080fd5b6127e98482856135b1565b509392505050565b60008135905061280081613c4e565b92915050565b60008083601f84011261281857600080fd5b8235905067ffffffffffffffff81111561283157600080fd5b60208301915083602082028301111561284957600080fd5b9250929050565b60008135905061285f81613c65565b92915050565b60008135905061287481613c7c565b92915050565b60008151905061288981613c7c565b92915050565b600082601f8301126128a057600080fd5b81356128b08482602086016127b3565b91505092915050565b6000813590506128c881613c93565b92915050565b6000602082840312156128e057600080fd5b60006128ee848285016127f1565b91505092915050565b6000806040838503121561290a57600080fd5b6000612918858286016127f1565b9250506020612929858286016127f1565b9150509250929050565b60008060006060848603121561294857600080fd5b6000612956868287016127f1565b9350506020612967868287016127f1565b9250506040612978868287016128b9565b9150509250925092565b6000806000806080858703121561299857600080fd5b60006129a6878288016127f1565b94505060206129b7878288016127f1565b93505060406129c8878288016128b9565b925050606085013567ffffffffffffffff8111156129e557600080fd5b6129f18782880161288f565b91505092959194509250565b60008060408385031215612a1057600080fd5b6000612a1e858286016127f1565b9250506020612a2f85828601612850565b9150509250929050565b60008060408385031215612a4c57600080fd5b6000612a5a858286016127f1565b9250506020612a6b858286016128b9565b9150509250929050565b60008060208385031215612a8857600080fd5b600083013567ffffffffffffffff811115612aa257600080fd5b612aae85828601612806565b92509250509250929050565b600060208284031215612acc57600080fd5b6000612ada84828501612865565b91505092915050565b600060208284031215612af557600080fd5b6000612b038482850161287a565b91505092915050565b600060208284031215612b1e57600080fd5b6000612b2c848285016128b9565b91505092915050565b6000612b418383612c24565b905092915050565b612b528161353d565b82525050565b612b618161352b565b82525050565b6000612b7282613399565b612b7c81856133c7565b935083602082028501612b8e85613389565b8060005b85811015612bca5784840389528151612bab8582612b35565b9450612bb6836133ba565b925060208a01995050600181019050612b92565b50829750879550505050505092915050565b612be58161354f565b82525050565b6000612bf6826133a4565b612c0081856133d8565b9350612c108185602086016135c0565b612c1981613796565b840191505092915050565b6000612c2f826133af565b612c3981856133e9565b9350612c498185602086016135c0565b612c5281613796565b840191505092915050565b6000612c68826133af565b612c7281856133fa565b9350612c828185602086016135c0565b612c8b81613796565b840191505092915050565b6000612ca1826133af565b612cab818561340b565b9350612cbb8185602086016135c0565b80840191505092915050565b6000612cd46032836133fa565b9150612cdf826137a7565b604082019050919050565b6000612cf7601c836133fa565b9150612d02826137f6565b602082019050919050565b6000612d1a6024836133fa565b9150612d258261381f565b604082019050919050565b6000612d3d6019836133fa565b9150612d488261386e565b602082019050919050565b6000612d60602c836133fa565b9150612d6b82613897565b604082019050919050565b6000612d836012836133fa565b9150612d8e826138e6565b602082019050919050565b6000612da66038836133fa565b9150612db18261390f565b604082019050919050565b6000612dc9602a836133fa565b9150612dd48261395e565b604082019050919050565b6000612dec6029836133fa565b9150612df7826139ad565b604082019050919050565b6000612e0f602e836133fa565b9150612e1a826139fc565b604082019050919050565b6000612e326020836133fa565b9150612e3d82613a4b565b602082019050919050565b6000612e556031836133fa565b9150612e6082613a74565b604082019050919050565b6000612e78602c836133fa565b9150612e8382613ac3565b604082019050919050565b6000612e9b6029836133fa565b9150612ea682613b12565b604082019050919050565b6000612ebe602f836133fa565b9150612ec982613b61565b604082019050919050565b6000612ee16021836133fa565b9150612eec82613bb0565b604082019050919050565b6000612f046031836133fa565b9150612f0f82613bff565b604082019050919050565b612f23816135a7565b82525050565b612f3a612f35826135a7565b61369f565b82525050565b6000612f4c8285612c96565b9150612f588284612c96565b91508190509392505050565b6000612f708285612f29565b602082019150612f808284612f29565b6020820191508190509392505050565b6000602082019050612fa56000830184612b58565b92915050565b6000602082019050612fc06000830184612b49565b92915050565b6000608082019050612fdb6000830187612b58565b612fe86020830186612b58565b612ff56040830185612f1a565b81810360608301526130078184612beb565b905095945050505050565b6000602082019050818103600083015261302c8184612b67565b905092915050565b60006020820190506130496000830184612bdc565b92915050565b600060208201905081810360008301526130698184612c5d565b905092915050565b6000602082019050818103600083015261308a81612cc7565b9050919050565b600060208201905081810360008301526130aa81612cea565b9050919050565b600060208201905081810360008301526130ca81612d0d565b9050919050565b600060208201905081810360008301526130ea81612d30565b9050919050565b6000602082019050818103600083015261310a81612d53565b9050919050565b6000602082019050818103600083015261312a81612d76565b9050919050565b6000602082019050818103600083015261314a81612d99565b9050919050565b6000602082019050818103600083015261316a81612dbc565b9050919050565b6000602082019050818103600083015261318a81612ddf565b9050919050565b600060208201905081810360008301526131aa81612e02565b9050919050565b600060208201905081810360008301526131ca81612e25565b9050919050565b600060208201905081810360008301526131ea81612e48565b9050919050565b6000602082019050818103600083015261320a81612e6b565b9050919050565b6000602082019050818103600083015261322a81612e8e565b9050919050565b6000602082019050818103600083015261324a81612eb1565b9050919050565b6000602082019050818103600083015261326a81612ed4565b9050919050565b6000602082019050818103600083015261328a81612ef7565b9050919050565b60006020820190506132a66000830184612f1a565b92915050565b60006040820190506132c16000830185612f1a565b81810360208301526132d38184612c5d565b90509392505050565b600080833560016020038436030381126132f557600080fd5b80840192508235915067ffffffffffffffff82111561331357600080fd5b60208301925060018202360383131561332b57600080fd5b509250929050565b600061333d61334e565b90506133498282613625565b919050565b6000604051905090565b600067ffffffffffffffff82111561337357613372613767565b5b61337c82613796565b9050602081019050919050565b6000819050602082019050919050565b600081519050919050565b600081519050919050565b600081519050919050565b6000602082019050919050565b600082825260208201905092915050565b600082825260208201905092915050565b600082825260208201905092915050565b600082825260208201905092915050565b600081905092915050565b6000613421826135a7565b915061342c836135a7565b9250827fffffffffffffffffffffffffffffffffffffffffffffffffffffffffffffffff03821115613461576134606136da565b5b828201905092915050565b6000613477826135a7565b9150613482836135a7565b92508261349257613491613709565b5b828204905092915050565b60006134a8826135a7565b91506134b3836135a7565b9250817fffffffffffffffffffffffffffffffffffffffffffffffffffffffffffffffff04831182151516156134ec576134eb6136da565b5b828202905092915050565b6000613502826135a7565b915061350d836135a7565b9250828210156135205761351f6136da565b5b828203905092915050565b600061353682613587565b9050919050565b600061354882613587565b9050919050565b60008115159050919050565b60007fffffffff0000000000000000000000000000000000000000000000000000000082169050919050565b600073ffffffffffffffffffffffffffffffffffffffff82169050919050565b6000819050919050565b82818337600083830152505050565b60005b838110156135de5780820151818401526020810190506135c3565b838111156135ed576000848401525b50505050565b6000600282049050600182168061360b57607f821691505b6020821081141561361f5761361e613738565b5b50919050565b61362e82613796565b810181811067ffffffffffffffff8211171561364d5761364c613767565b5b80604052505050565b6000613661826135a7565b91507fffffffffffffffffffffffffffffffffffffffffffffffffffffffffffffffff821415613694576136936136da565b5b600182019050919050565b6000819050919050565b60006136b4826135a7565b91506136bf836135a7565b9250826136cf576136ce613709565b5b828206905092915050565b7f4e487b7100000000000000000000000000000000000000000000000000000000600052601160045260246000fd5b7f4e487b7100000000000000000000000000000000000000000000000000000000600052601260045260246000fd5b7f4e487b7100000000000000000000000000000000000000000000000000000000600052602260045260246000fd5b7f4e487b7100000000000000000000000000000000000000000000000000000000600052604160045260246000fd5b6000601f19601f8301169050919050565b7f4552433732313a207472616e7366657220746f206e6f6e20455243373231526560008201527f63656976657220696d706c656d656e7465720000000000000000000000000000602082015250565b7f4552433732313a20746f6b656e20616c7265616479206d696e74656400000000600082015250565b7f4552433732313a207472616e7366657220746f20746865207a65726f2061646460008201527f7265737300000000000000000000000000000000000000000000000000000000602082015250565b7f4552433732313a20617070726f766520746f2063616c6c657200000000000000600082015250565b7f4552433732313a206f70657261746f7220717565727920666f72206e6f6e657860008201527f697374656e7420746f6b656e0000000000000000000000000000000000000000602082015250565b7f496e73756666696369656e742070726963650000000000000000000000000000600082015250565b7f4552433732313a20617070726f76652063616c6c6572206973206e6f74206f7760008201527f6e6572206e6f7220617070726f76656420666f7220616c6c0000000000000000602082015250565b7f4552433732313a2062616c616e636520717565727920666f7220746865207a6560008201527f726f206164647265737300000000000000000000000000000000000000000000602082015250565b7f4552433732313a206f776e657220717565727920666f72206e6f6e657869737460008201527f656e7420746f6b656e0000000000000000000000000000000000000000000000602082015250565b7f45524337323155524953746f726167653a2055524920736574206f66206e6f6e60008201527f6578697374656e7420746f6b656e000000000000000000000000000000000000602082015250565b7f4552433732313a206d696e7420746f20746865207a65726f2061646472657373600082015250565b7f45524337323155524953746f726167653a2055524920717565727920666f722060008201527f6e6f6e6578697374656e7420746f6b656e000000000000000000000000000000602082015250565b7f4552433732313a20617070726f76656420717565727920666f72206e6f6e657860008201527f697374656e7420746f6b656e0000000000000000000000000000000000000000602082015250565b7f4552433732313a207472616e73666572206f6620746f6b656e2074686174206960008201527f73206e6f74206f776e0000000000000000000000000000000000000000000000602082015250565b7f4552433732314d657461646174613a2055524920717565727920666f72206e6f60008201527f6e6578697374656e7420746f6b656e0000000000000000000000000000000000602082015250565b7f4552433732313a20617070726f76616c20746f2063757272656e74206f776e6560008201527f7200000000000000000000000000000000000000000000000000000000000000602082015250565b7f4552433732313a207472616e736665722063616c6c6572206973206e6f74206f60008201527f776e6572206e6f7220617070726f766564000000000000000000000000000000602082015250565b613c578161352b565b8114613c6257600080fd5b50565b613c6e8161354f565b8114613c7957600080fd5b50565b613c858161355b565b8114613c9057600080fd5b50565b613c9c816135a7565b8114613ca757600080fd5b5056fea2646970667358221220a5250c6ca23b4380cec456f124dc0e950d97f457a9b02ea618baa9dcfeb6614d64736f6c63430008040033a2646970667358221220613a278fb4681436b68dafa11c02dc328b8f4785cd37aa1845c453f830b401a564736f6c63430008040033",
  "immutableReferences": {},
  "source": "// SPDX-License-Identifier: MIT\r\npragma solidity ^0.8.0;\r\n\r\nimport \"@openzeppelin/contracts/utils/math/SafeMath.sol\";\r\nimport \"./MintToken.sol\";\r\n\r\ncontract Machine {\r\n    using SafeMath for uint256;\r\n    address public owner = msg.sender;\r\n\r\n    event Create(address indexed configAddress, address indexed sender);\r\n\r\n    function create(\r\n        string memory _name,\r\n        string memory _symbol,\r\n        uint256 _priceWei,\r\n        uint256 _startTime,\r\n        address payable[] memory _creators,\r\n        uint256[] memory _amounts,\r\n        uint256[] memory _percentages\r\n    ) public returns (address configAddress) {\r\n        address config = address(\r\n            new MintToken(\r\n                _name,\r\n                _symbol,\r\n                _priceWei,\r\n                _startTime,\r\n                msg.sender,\r\n                _creators,\r\n                _amounts,\r\n                _percentages\r\n            )\r\n        );\r\n        emit Create(config, msg.sender);\r\n        return config;\r\n    }\r\n}\r\n",
  "sourcePath": "C:\\Users\\kumquatexpress\\projects\\nifty-ethglobal-hack\\web3\\contracts\\polygon\\Machine.sol",
  "compiler": {
    "name": "solc",
    "version": "0.8.4+commit.c7e474f2.Emscripten.clang"
  },
  "schemaVersion": "3.4.4",
  "updatedAt": "2022-01-14T23:17:15.265Z",
  "networkType": "ethereum",
  "devdoc": {
    "kind": "dev",
    "methods": {},
    "version": 1
  },
  "userdoc": {
    "kind": "user",
    "methods": {},
    "version": 1
  },
  "db": {
    "callBytecode": {
      "id": "0xa5cc6d72c9c95f6914e2c39822880e3a7cadc12ec9adc07148c752119693b5d0"
    },
    "createBytecode": {
      "id": "0xc62c5ad6e51ec44979baf4170a123a6693af08d0d308a6eb644c5e9b6809fc36"
    },
    "contract": {
      "id": "0x9fa3a1afea779b02ec519e9b6fb6438fdbd270a229957343de9ef15182472619"
    }
  }
}