{
  "contractName": "MintToken",
  "abi": [
    {
      "inputs": [
        {
          "internalType": "string",
          "name": "_name",
          "type": "string"
        },
        {
          "internalType": "string",
          "name": "_symbol",
          "type": "string"
        },
        {
          "internalType": "uint256",
          "name": "_priceWei",
          "type": "uint256"
        },
        {
          "internalType": "uint256",
          "name": "_startTime",
          "type": "uint256"
        },
        {
          "internalType": "address",
          "name": "_owner",
          "type": "address"
        },
        {
          "internalType": "address payable[]",
          "name": "_creators",
          "type": "address[]"
        },
        {
          "internalType": "uint256[]",
          "name": "_amounts",
          "type": "uint256[]"
        },
        {
          "internalType": "uint256[]",
          "name": "_percentages",
          "type": "uint256[]"
        }
      ],
      "stateMutability": "nonpayable",
      "type": "constructor"
    },
    {
      "inputs": [],
      "name": "Empty",
      "type": "error"
    },
    {
      "inputs": [],
      "name": "TooEarly",
      "type": "error"
    },
    {
      "inputs": [],
      "name": "TooLate",
      "type": "error"
    },
    {
      "inputs": [],
      "name": "Unauthorized",
      "type": "error"
    },
    {
      "anonymous": false,
      "inputs": [
        {
          "indexed": true,
          "internalType": "address",
          "name": "owner",
          "type": "address"
        },
        {
          "indexed": true,
          "internalType": "address",
          "name": "approved",
          "type": "address"
        },
        {
          "indexed": true,
          "internalType": "uint256",
          "name": "tokenId",
          "type": "uint256"
        }
      ],
      "name": "Approval",
      "type": "event"
    },
    {
      "anonymous": false,
      "inputs": [
        {
          "indexed": true,
          "internalType": "address",
          "name": "owner",
          "type": "address"
        },
        {
          "indexed": true,
          "internalType": "address",
          "name": "operator",
          "type": "address"
        },
        {
          "indexed": false,
          "internalType": "bool",
          "name": "approved",
          "type": "bool"
        }
      ],
      "name": "ApprovalForAll",
      "type": "event"
    },
    {
      "anonymous": false,
      "inputs": [
        {
          "indexed": false,
          "internalType": "uint256",
          "name": "tokenId",
          "type": "uint256"
        },
        {
          "indexed": false,
          "internalType": "string",
          "name": "url",
          "type": "string"
        },
        {
          "indexed": true,
          "internalType": "address",
          "name": "sender",
          "type": "address"
        }
      ],
      "name": "Mint",
      "type": "event"
    },
    {
      "anonymous": false,
      "inputs": [
        {
          "indexed": true,
          "internalType": "address",
          "name": "from",
          "type": "address"
        },
        {
          "indexed": true,
          "internalType": "address",
          "name": "to",
          "type": "address"
        },
        {
          "indexed": true,
          "internalType": "uint256",
          "name": "tokenId",
          "type": "uint256"
        }
      ],
      "name": "Transfer",
      "type": "event"
    },
    {
      "inputs": [
        {
          "internalType": "uint256",
          "name": "",
          "type": "uint256"
        }
      ],
      "name": "amounts",
      "outputs": [
        {
          "internalType": "uint256",
          "name": "",
          "type": "uint256"
        }
      ],
      "stateMutability": "view",
      "type": "function"
    },
    {
      "inputs": [
        {
          "internalType": "address",
          "name": "to",
          "type": "address"
        },
        {
          "internalType": "uint256",
          "name": "tokenId",
          "type": "uint256"
        }
      ],
      "name": "approve",
      "outputs": [],
      "stateMutability": "nonpayable",
      "type": "function"
    },
    {
      "inputs": [
        {
          "internalType": "address",
          "name": "owner",
          "type": "address"
        }
      ],
      "name": "balanceOf",
      "outputs": [
        {
          "internalType": "uint256",
          "name": "",
          "type": "uint256"
        }
      ],
      "stateMutability": "view",
      "type": "function"
    },
    {
      "inputs": [
        {
          "internalType": "uint256",
          "name": "",
          "type": "uint256"
        }
      ],
      "name": "candidates",
      "outputs": [
        {
          "internalType": "string",
          "name": "",
          "type": "string"
        }
      ],
      "stateMutability": "view",
      "type": "function"
    },
    {
      "inputs": [
        {
          "internalType": "uint256",
          "name": "",
          "type": "uint256"
        }
      ],
      "name": "creators",
      "outputs": [
        {
          "internalType": "address payable",
          "name": "",
          "type": "address"
        }
      ],
      "stateMutability": "view",
      "type": "function"
    },
    {
      "inputs": [
        {
          "internalType": "uint256",
          "name": "tokenId",
          "type": "uint256"
        }
      ],
      "name": "getApproved",
      "outputs": [
        {
          "internalType": "address",
          "name": "",
          "type": "address"
        }
      ],
      "stateMutability": "view",
      "type": "function"
    },
    {
      "inputs": [
        {
          "internalType": "address",
          "name": "owner",
          "type": "address"
        },
        {
          "internalType": "address",
          "name": "operator",
          "type": "address"
        }
      ],
      "name": "isApprovedForAll",
      "outputs": [
        {
          "internalType": "bool",
          "name": "",
          "type": "bool"
        }
      ],
      "stateMutability": "view",
      "type": "function"
    },
    {
      "inputs": [],
      "name": "name",
      "outputs": [
        {
          "internalType": "string",
          "name": "",
          "type": "string"
        }
      ],
      "stateMutability": "view",
      "type": "function"
    },
    {
      "inputs": [],
      "name": "owner",
      "outputs": [
        {
          "internalType": "address payable",
          "name": "",
          "type": "address"
        }
      ],
      "stateMutability": "view",
      "type": "function"
    },
    {
      "inputs": [
        {
          "internalType": "uint256",
          "name": "tokenId",
          "type": "uint256"
        }
      ],
      "name": "ownerOf",
      "outputs": [
        {
          "internalType": "address",
          "name": "",
          "type": "address"
        }
      ],
      "stateMutability": "view",
      "type": "function"
    },
    {
      "inputs": [
        {
          "internalType": "uint256",
          "name": "",
          "type": "uint256"
        }
      ],
      "name": "percentages",
      "outputs": [
        {
          "internalType": "uint256",
          "name": "",
          "type": "uint256"
        }
      ],
      "stateMutability": "view",
      "type": "function"
    },
    {
      "inputs": [],
      "name": "priceWei",
      "outputs": [
        {
          "internalType": "uint256",
          "name": "",
          "type": "uint256"
        }
      ],
      "stateMutability": "view",
      "type": "function"
    },
    {
      "inputs": [
        {
          "internalType": "address",
          "name": "from",
          "type": "address"
        },
        {
          "internalType": "address",
          "name": "to",
          "type": "address"
        },
        {
          "internalType": "uint256",
          "name": "tokenId",
          "type": "uint256"
        }
      ],
      "name": "safeTransferFrom",
      "outputs": [],
      "stateMutability": "nonpayable",
      "type": "function"
    },
    {
      "inputs": [
        {
          "internalType": "address",
          "name": "from",
          "type": "address"
        },
        {
          "internalType": "address",
          "name": "to",
          "type": "address"
        },
        {
          "internalType": "uint256",
          "name": "tokenId",
          "type": "uint256"
        },
        {
          "internalType": "bytes",
          "name": "_data",
          "type": "bytes"
        }
      ],
      "name": "safeTransferFrom",
      "outputs": [],
      "stateMutability": "nonpayable",
      "type": "function"
    },
    {
      "inputs": [
        {
          "internalType": "address",
          "name": "operator",
          "type": "address"
        },
        {
          "internalType": "bool",
          "name": "approved",
          "type": "bool"
        }
      ],
      "name": "setApprovalForAll",
      "outputs": [],
      "stateMutability": "nonpayable",
      "type": "function"
    },
    {
      "inputs": [],
      "name": "startTime",
      "outputs": [
        {
          "internalType": "uint256",
          "name": "",
          "type": "uint256"
        }
      ],
      "stateMutability": "view",
      "type": "function"
    },
    {
      "inputs": [
        {
          "internalType": "bytes4",
          "name": "interfaceId",
          "type": "bytes4"
        }
      ],
      "name": "supportsInterface",
      "outputs": [
        {
          "internalType": "bool",
          "name": "",
          "type": "bool"
        }
      ],
      "stateMutability": "view",
      "type": "function"
    },
    {
      "inputs": [],
      "name": "symbol",
      "outputs": [
        {
          "internalType": "string",
          "name": "",
          "type": "string"
        }
      ],
      "stateMutability": "view",
      "type": "function"
    },
    {
      "inputs": [
        {
          "internalType": "uint256",
          "name": "tokenId",
          "type": "uint256"
        }
      ],
      "name": "tokenURI",
      "outputs": [
        {
          "internalType": "string",
          "name": "",
          "type": "string"
        }
      ],
      "stateMutability": "view",
      "type": "function"
    },
    {
      "inputs": [
        {
          "internalType": "address",
          "name": "from",
          "type": "address"
        },
        {
          "internalType": "address",
          "name": "to",
          "type": "address"
        },
        {
          "internalType": "uint256",
          "name": "tokenId",
          "type": "uint256"
        }
      ],
      "name": "transferFrom",
      "outputs": [],
      "stateMutability": "nonpayable",
      "type": "function"
    },
    {
      "inputs": [
        {
          "internalType": "string[]",
          "name": "_candidates",
          "type": "string[]"
        }
      ],
      "name": "addBatch",
      "outputs": [],
      "stateMutability": "nonpayable",
      "type": "function"
    },
    {
      "inputs": [],
      "name": "getTotalMined",
      "outputs": [
        {
          "internalType": "uint256",
          "name": "",
          "type": "uint256"
        }
      ],
      "stateMutability": "view",
      "type": "function"
    },
    {
      "inputs": [],
      "name": "mintRandom",
      "outputs": [],
      "stateMutability": "payable",
      "type": "function"
    },
    {
      "inputs": [],
      "name": "withdraw",
      "outputs": [],
      "stateMutability": "nonpayable",
      "type": "function"
    }
  ],
  "bytecode": "0x60806040523480156200001157600080fd5b506040516200445738038062004457833981810160405281019062000037919062000606565b8787816000908051906020019062000051929190620001a5565b5080600190805190602001906200006a929190620001a5565b50505084600c81905550600067ffffffffffffffff811115620000b6577f4e487b7100000000000000000000000000000000000000000000000000000000600052604160045260246000fd5b604051908082528060200260200182016040528015620000eb57816020015b6060815260200190600190039081620000d55790505b50600e90805190602001906200010392919062000236565b5083600860006101000a81548173ffffffffffffffffffffffffffffffffffffffff021916908373ffffffffffffffffffffffffffffffffffffffff16021790555085600d819055508260099080519060200190620001649291906200029d565b5081600a90805190602001906200017d9291906200032c565b5080600b9080519060200190620001969291906200032c565b505050505050505050620009b4565b828054620001b3906200088b565b90600052602060002090601f016020900481019282620001d7576000855562000223565b82601f10620001f257805160ff191683800117855562000223565b8280016001018555821562000223579182015b828111156200022257825182559160200191906001019062000205565b5b5090506200023291906200037e565b5090565b8280548282559060005260206000209081019282156200028a579160200282015b828111156200028957825182908051906020019062000278929190620001a5565b509160200191906001019062000257565b5b5090506200029991906200039d565b5090565b82805482825590600052602060002090810192821562000319579160200282015b82811115620003185782518260006101000a81548173ffffffffffffffffffffffffffffffffffffffff021916908373ffffffffffffffffffffffffffffffffffffffff16021790555091602001919060010190620002be565b5b5090506200032891906200037e565b5090565b8280548282559060005260206000209081019282156200036b579160200282015b828111156200036a5782518255916020019190600101906200034d565b5b5090506200037a91906200037e565b5090565b5b80821115620003995760008160009055506001016200037f565b5090565b5b80821115620003c15760008181620003b79190620003c5565b506001016200039e565b5090565b508054620003d3906200088b565b6000825580601f10620003e7575062000408565b601f0160209004906000526020600020908101906200040791906200037e565b5b50565b6000620004226200041c846200076f565b62000746565b905080838252602082019050828560208602820111156200044257600080fd5b60005b858110156200047657816200045b888262000551565b84526020840193506020830192505060018101905062000445565b5050509392505050565b60006200049762000491846200079e565b62000746565b90508083825260208201905082856020860282011115620004b757600080fd5b60005b85811015620004eb5781620004d08882620005ef565b845260208401935060208301925050600181019050620004ba565b5050509392505050565b60006200050c6200050684620007cd565b62000746565b9050828152602081018484840111156200052557600080fd5b6200053284828562000855565b509392505050565b6000815190506200054b8162000966565b92915050565b600081519050620005628162000980565b92915050565b600082601f8301126200057a57600080fd5b81516200058c8482602086016200040b565b91505092915050565b600082601f830112620005a757600080fd5b8151620005b984826020860162000480565b91505092915050565b600082601f830112620005d457600080fd5b8151620005e6848260208601620004f5565b91505092915050565b60008151905062000600816200099a565b92915050565b600080600080600080600080610100898b0312156200062457600080fd5b600089015167ffffffffffffffff8111156200063f57600080fd5b6200064d8b828c01620005c2565b985050602089015167ffffffffffffffff8111156200066b57600080fd5b620006798b828c01620005c2565b97505060406200068c8b828c01620005ef565b96505060606200069f8b828c01620005ef565b9550506080620006b28b828c016200053a565b94505060a089015167ffffffffffffffff811115620006d057600080fd5b620006de8b828c0162000568565b93505060c089015167ffffffffffffffff811115620006fc57600080fd5b6200070a8b828c0162000595565b92505060e089015167ffffffffffffffff8111156200072857600080fd5b620007368b828c0162000595565b9150509295985092959890939650565b60006200075262000765565b9050620007608282620008c1565b919050565b6000604051905090565b600067ffffffffffffffff8211156200078d576200078c62000926565b5b602082029050602081019050919050565b600067ffffffffffffffff821115620007bc57620007bb62000926565b5b602082029050602081019050919050565b600067ffffffffffffffff821115620007eb57620007ea62000926565b5b620007f68262000955565b9050602081019050919050565b600062000810826200082b565b9050919050565b600062000824826200082b565b9050919050565b600073ffffffffffffffffffffffffffffffffffffffff82169050919050565b6000819050919050565b60005b838110156200087557808201518184015260208101905062000858565b8381111562000885576000848401525b50505050565b60006002820490506001821680620008a457607f821691505b60208210811415620008bb57620008ba620008f7565b5b50919050565b620008cc8262000955565b810181811067ffffffffffffffff82111715620008ee57620008ed62000926565b5b80604052505050565b7f4e487b7100000000000000000000000000000000000000000000000000000000600052602260045260246000fd5b7f4e487b7100000000000000000000000000000000000000000000000000000000600052604160045260246000fd5b6000601f19601f8301169050919050565b620009718162000803565b81146200097d57600080fd5b50565b6200098b8162000817565b81146200099757600080fd5b50565b620009a5816200084b565b8114620009b157600080fd5b50565b613a9380620009c46000396000f3fe608060405260043610610168576000357c01000000000000000000000000000000000000000000000000000000009004806378e97925116100d3578063b7ec20861161008c578063b7ec2086146104a0578063b88d4fde146104cb578063c87b56dd146104f4578063cd53d08e14610531578063e985e9c51461056e578063f8858386146105ab57610168565b806378e97925146103c15780638c2d1549146103ec5780638da5cb5b1461041757806395d89b4114610442578063a22cb4651461046d578063b155d7fa1461049657610168565b80633ccfd60b116101255780633ccfd60b146102a157806342842e0e146102b857806345f0a44f146102e1578063531285b91461031e5780636352211e1461034757806370a082311461038457610168565b806301ffc9a71461016d57806306fdde03146101aa578063081812fc146101d5578063095ea7b31461021257806323b872dd1461023b5780633477ee2e14610264575b600080fd5b34801561017957600080fd5b50610194600480360381019061018f919061299b565b6105e8565b6040516101a19190612e31565b60405180910390f35b3480156101b657600080fd5b506101bf6106ca565b6040516101cc9190612e4c565b60405180910390f35b3480156101e157600080fd5b506101fc60048036038101906101f791906129ed565b61075c565b6040516102099190612daf565b60405180910390f35b34801561021e57600080fd5b506102396004803603810190610234919061291a565b6107e1565b005b34801561024757600080fd5b50610262600480360381019061025d9190612814565b6108f9565b005b34801561027057600080fd5b5061028b600480360381019061028691906129ed565b610959565b6040516102989190612e4c565b60405180910390f35b3480156102ad57600080fd5b506102b6610a05565b005b3480156102c457600080fd5b506102df60048036038101906102da9190612814565b610bfe565b005b3480156102ed57600080fd5b50610308600480360381019061030391906129ed565b610c1e565b604051610315919061308e565b60405180910390f35b34801561032a57600080fd5b5061034560048036038101906103409190612956565b610c42565b005b34801561035357600080fd5b5061036e600480360381019061036991906129ed565b610db7565b60405161037b9190612daf565b60405180910390f35b34801561039057600080fd5b506103ab60048036038101906103a691906127af565b610e69565b6040516103b8919061308e565b60405180910390f35b3480156103cd57600080fd5b506103d6610f21565b6040516103e3919061308e565b60405180910390f35b3480156103f857600080fd5b50610401610f27565b60405161040e919061308e565b60405180910390f35b34801561042357600080fd5b5061042c610f38565b6040516104399190612dca565b60405180910390f35b34801561044e57600080fd5b50610457610f5e565b6040516104649190612e4c565b60405180910390f35b34801561047957600080fd5b50610494600480360381019061048f91906128de565b610ff0565b005b61049e611006565b005b3480156104ac57600080fd5b506104b56113cf565b6040516104c2919061308e565b60405180910390f35b3480156104d757600080fd5b506104f260048036038101906104ed9190612863565b6113d5565b005b34801561050057600080fd5b5061051b600480360381019061051691906129ed565b611437565b6040516105289190612e4c565b60405180910390f35b34801561053d57600080fd5b50610558600480360381019061055391906129ed565b611589565b6040516105659190612dca565b60405180910390f35b34801561057a57600080fd5b50610595600480360381019061059091906127d8565b6115c8565b6040516105a29190612e31565b60405180910390f35b3480156105b757600080fd5b506105d260048036038101906105cd91906129ed565b61165c565b6040516105df919061308e565b60405180910390f35b60007f80ac58cd000000000000000000000000000000000000000000000000000000007bffffffffffffffffffffffffffffffffffffffffffffffffffffffff1916827bffffffffffffffffffffffffffffffffffffffffffffffffffffffff191614806106b357507f5b5e139f000000000000000000000000000000000000000000000000000000007bffffffffffffffffffffffffffffffffffffffffffffffffffffffff1916827bffffffffffffffffffffffffffffffffffffffffffffffffffffffff1916145b806106c357506106c282611680565b5b9050919050565b6060600080546106d9906133a6565b80601f0160208091040260200160405190810160405280929190818152602001828054610705906133a6565b80156107525780601f1061072757610100808354040283529160200191610752565b820191906000526020600020905b81548152906001019060200180831161073557829003601f168201915b5050505050905090565b6000610767826116ea565b6107a6576040517f08c379a000000000000000000000000000000000000000000000000000000000815260040161079d90612fee565b60405180910390fd5b6004600083815260200190815260200160002060009054906101000a900473ffffffffffffffffffffffffffffffffffffffff169050919050565b60006107ec82610db7565b90508073ffffffffffffffffffffffffffffffffffffffff168373ffffffffffffffffffffffffffffffffffffffff16141561085d576040517f08c379a00000000000000000000000000000000000000000000000000000000081526004016108549061304e565b60405180910390fd5b8073ffffffffffffffffffffffffffffffffffffffff1661087c611756565b73ffffffffffffffffffffffffffffffffffffffff1614806108ab57506108aa816108a5611756565b6115c8565b5b6108ea576040517f08c379a00000000000000000000000000000000000000000000000000000000081526004016108e190612f2e565b60405180910390fd5b6108f4838361175e565b505050565b61090a610904611756565b82611817565b610949576040517f08c379a00000000000000000000000000000000000000000000000000000000081526004016109409061306e565b60405180910390fd5b6109548383836118f5565b505050565b600e818154811061096957600080fd5b906000526020600020016000915090508054610984906133a6565b80601f01602080910402602001604051908101604052809291908181526020018280546109b0906133a6565b80156109fd5780601f106109d2576101008083540402835291602001916109fd565b820191906000526020600020905b8154815290600101906020018083116109e057829003601f168201915b505050505081565b60005b600980549050811015610bfb573373ffffffffffffffffffffffffffffffffffffffff1660098281548110610a66577f4e487b7100000000000000000000000000000000000000000000000000000000600052603260045260246000fd5b9060005260206000200160009054906101000a900473ffffffffffffffffffffffffffffffffffffffff1673ffffffffffffffffffffffffffffffffffffffff161415610be75760098181548110610ae7577f4e487b7100000000000000000000000000000000000000000000000000000000600052603260045260246000fd5b9060005260206000200160009054906101000a900473ffffffffffffffffffffffffffffffffffffffff1673ffffffffffffffffffffffffffffffffffffffff166108fc600a8381548110610b65577f4e487b7100000000000000000000000000000000000000000000000000000000600052603260045260246000fd5b90600052602060002001549081150290604051600060405180830381858888f19350505050158015610b9b573d6000803e3d6000fd5b506000600a8281548110610bd8577f4e487b7100000000000000000000000000000000000000000000000000000000600052603260045260246000fd5b90600052602060002001819055505b600181610bf491906131c9565b9050610a08565b50565b610c19838383604051806020016040528060008152506113d5565b505050565b600a8181548110610c2e57600080fd5b906000526020600020016000915090505481565b600860009054906101000a900473ffffffffffffffffffffffffffffffffffffffff168073ffffffffffffffffffffffffffffffffffffffff163373ffffffffffffffffffffffffffffffffffffffff1614610cca576040517f82b4290000000000000000000000000000000000000000000000000000000000815260040160405180910390fd5b600c5480421115610d07576040517fecdd1c2900000000000000000000000000000000000000000000000000000000815260040160405180910390fd5b60005b84849050811015610db057600e858583818110610d50577f4e487b7100000000000000000000000000000000000000000000000000000000600052603260045260246000fd5b9050602002810190610d6291906130d9565b90918060018154018082558091505060019003906000526020600020016000909192909192909192909192509190610d9b92919061249e565b50600181610da991906131c9565b9050610d0a565b5050505050565b6000806002600084815260200190815260200160002060009054906101000a900473ffffffffffffffffffffffffffffffffffffffff169050600073ffffffffffffffffffffffffffffffffffffffff168173ffffffffffffffffffffffffffffffffffffffff161415610e60576040517f08c379a0000000000000000000000000000000000000000000000000000000008152600401610e5790612f6e565b60405180910390fd5b80915050919050565b60008073ffffffffffffffffffffffffffffffffffffffff168273ffffffffffffffffffffffffffffffffffffffff161415610eda576040517f08c379a0000000000000000000000000000000000000000000000000000000008152600401610ed190612f4e565b60405180910390fd5b600360008373ffffffffffffffffffffffffffffffffffffffff1673ffffffffffffffffffffffffffffffffffffffff168152602001908152602001600020549050919050565b600c5481565b6000610f336007611b51565b905090565b600860009054906101000a900473ffffffffffffffffffffffffffffffffffffffff1681565b606060018054610f6d906133a6565b80601f0160208091040260200160405190810160405280929190818152602001828054610f99906133a6565b8015610fe65780601f10610fbb57610100808354040283529160200191610fe6565b820191906000526020600020905b815481529060010190602001808311610fc957829003601f168201915b5050505050905090565b611002610ffb611756565b8383611b5f565b5050565b600d5434101561104b576040517f08c379a000000000000000000000000000000000000000000000000000000000815260040161104290612f0e565b60405180910390fd5b60006110576007611b51565b90506000600e805490501415611099576040517f3db2a12a00000000000000000000000000000000000000000000000000000000815260040160405180910390fd5b60006110a3611ccc565b90506000600e80549050826110b8919061345c565b90506000600e82815481106110f6577f4e487b7100000000000000000000000000000000000000000000000000000000600052603260045260246000fd5b90600052602060002001805461110b906133a6565b80601f0160208091040260200160405190810160405280929190818152602001828054611137906133a6565b80156111845780601f1061115957610100808354040283529160200191611184565b820191906000526020600020905b81548152906001019060200180831161116757829003601f168201915b50505050509050600e6001600e8054905061119f91906132aa565b815481106111d6577f4e487b7100000000000000000000000000000000000000000000000000000000600052603260045260246000fd5b90600052602060002001600e838154811061121a577f4e487b7100000000000000000000000000000000000000000000000000000000600052603260045260246000fd5b90600052602060002001908054611230906133a6565b61123b929190612524565b50600e805480611274577f4e487b7100000000000000000000000000000000000000000000000000000000600052603160045260246000fd5b60019003818190600052602060002001600061129091906125b1565b905561129c3385611d00565b6112a68482611d1e565b6112b06007611d92565b60005b600980549050811015611378576064600b82815481106112fc577f4e487b7100000000000000000000000000000000000000000000000000000000600052603260045260246000fd5b9060005260206000200154346113129190613250565b61131c919061321f565b600a8281548110611356577f4e487b7100000000000000000000000000000000000000000000000000000000600052603260045260246000fd5b906000526020600020018190555060018161137191906131c9565b90506112b3565b503373ffffffffffffffffffffffffffffffffffffffff167f983d37d8751fcfa80e95e5fe2c0f46fb7b541b280961dc7ac00aa2670e2edd8785836040516113c19291906130a9565b60405180910390a250505050565b600d5481565b6113e66113e0611756565b83611817565b611425576040517f08c379a000000000000000000000000000000000000000000000000000000000815260040161141c9061306e565b60405180910390fd5b61143184848484611da8565b50505050565b6060611442826116ea565b611481576040517f08c379a000000000000000000000000000000000000000000000000000000000815260040161147890612fce565b60405180910390fd5b60006006600084815260200190815260200160002080546114a1906133a6565b80601f01602080910402602001604051908101604052809291908181526020018280546114cd906133a6565b801561151a5780601f106114ef5761010080835404028352916020019161151a565b820191906000526020600020905b8154815290600101906020018083116114fd57829003601f168201915b50505050509050600061152b611e04565b9050600081511415611541578192505050611584565b60008251111561157657808260405160200161155e929190612d5f565b60405160208183030381529060405292505050611584565b61157f84611e1b565b925050505b919050565b6009818154811061159957600080fd5b906000526020600020016000915054906101000a900473ffffffffffffffffffffffffffffffffffffffff1681565b6000600560008473ffffffffffffffffffffffffffffffffffffffff1673ffffffffffffffffffffffffffffffffffffffff16815260200190815260200160002060008373ffffffffffffffffffffffffffffffffffffffff1673ffffffffffffffffffffffffffffffffffffffff16815260200190815260200160002060009054906101000a900460ff16905092915050565b600b818154811061166c57600080fd5b906000526020600020016000915090505481565b60007f01ffc9a7000000000000000000000000000000000000000000000000000000007bffffffffffffffffffffffffffffffffffffffffffffffffffffffff1916827bffffffffffffffffffffffffffffffffffffffffffffffffffffffff1916149050919050565b60008073ffffffffffffffffffffffffffffffffffffffff166002600084815260200190815260200160002060009054906101000a900473ffffffffffffffffffffffffffffffffffffffff1673ffffffffffffffffffffffffffffffffffffffff1614159050919050565b600033905090565b816004600083815260200190815260200160002060006101000a81548173ffffffffffffffffffffffffffffffffffffffff021916908373ffffffffffffffffffffffffffffffffffffffff160217905550808273ffffffffffffffffffffffffffffffffffffffff166117d183610db7565b73ffffffffffffffffffffffffffffffffffffffff167f8c5be1e5ebec7d5bd14f71427d1e84f3dd0314c0f7b2291e5b200ac8c7c3b92560405160405180910390a45050565b6000611822826116ea565b611861576040517f08c379a000000000000000000000000000000000000000000000000000000000815260040161185890612eee565b60405180910390fd5b600061186c83610db7565b90508073ffffffffffffffffffffffffffffffffffffffff168473ffffffffffffffffffffffffffffffffffffffff1614806118db57508373ffffffffffffffffffffffffffffffffffffffff166118c38461075c565b73ffffffffffffffffffffffffffffffffffffffff16145b806118ec57506118eb81856115c8565b5b91505092915050565b8273ffffffffffffffffffffffffffffffffffffffff1661191582610db7565b73ffffffffffffffffffffffffffffffffffffffff161461196b576040517f08c379a00000000000000000000000000000000000000000000000000000000081526004016119629061300e565b60405180910390fd5b600073ffffffffffffffffffffffffffffffffffffffff168273ffffffffffffffffffffffffffffffffffffffff1614156119db576040517f08c379a00000000000000000000000000000000000000000000000000000000081526004016119d290612eae565b60405180910390fd5b6119e6838383611ec2565b6119f160008261175e565b6001600360008573ffffffffffffffffffffffffffffffffffffffff1673ffffffffffffffffffffffffffffffffffffffff1681526020019081526020016000206000828254611a4191906132aa565b925050819055506001600360008473ffffffffffffffffffffffffffffffffffffffff1673ffffffffffffffffffffffffffffffffffffffff1681526020019081526020016000206000828254611a9891906131c9565b92505081905550816002600083815260200190815260200160002060006101000a81548173ffffffffffffffffffffffffffffffffffffffff021916908373ffffffffffffffffffffffffffffffffffffffff160217905550808273ffffffffffffffffffffffffffffffffffffffff168473ffffffffffffffffffffffffffffffffffffffff167fddf252ad1be2c89b69c2b068fc378daa952ba7f163c4a11628f55a4df523b3ef60405160405180910390a4505050565b600081600001549050919050565b8173ffffffffffffffffffffffffffffffffffffffff168373ffffffffffffffffffffffffffffffffffffffff161415611bce576040517f08c379a0000000000000000000000000000000000000000000000000000000008152600401611bc590612ece565b60405180910390fd5b80600560008573ffffffffffffffffffffffffffffffffffffffff1673ffffffffffffffffffffffffffffffffffffffff16815260200190815260200160002060008473ffffffffffffffffffffffffffffffffffffffff1673ffffffffffffffffffffffffffffffffffffffff16815260200190815260200160002060006101000a81548160ff0219169083151502179055508173ffffffffffffffffffffffffffffffffffffffff168373ffffffffffffffffffffffffffffffffffffffff167f17307eab39ab6107e8899845ad3d59bd9653f200f220920489ca2b5937696c3183604051611cbf9190612e31565b60405180910390a3505050565b60004442604051602001611ce1929190612d83565b6040516020818303038152906040528051906020012060019004905090565b611d1a828260405180602001604052806000815250611ec7565b5050565b611d27826116ea565b611d66576040517f08c379a0000000000000000000000000000000000000000000000000000000008152600401611d5d90612f8e565b60405180910390fd5b80600660008481526020019081526020016000209080519060200190611d8d9291906125f1565b505050565b6001816000016000828254019250508190555050565b611db38484846118f5565b611dbf84848484611f22565b611dfe576040517f08c379a0000000000000000000000000000000000000000000000000000000008152600401611df590612e6e565b60405180910390fd5b50505050565b606060405180602001604052806000815250905090565b6060611e26826116ea565b611e65576040517f08c379a0000000000000000000000000000000000000000000000000000000008152600401611e5c9061302e565b60405180910390fd5b6000611e6f611e04565b90506000815111611e8f5760405180602001604052806000815250611eba565b80611e99846120f1565b604051602001611eaa929190612d5f565b6040516020818303038152906040525b915050919050565b505050565b611ed183836122bd565b611ede6000848484611f22565b611f1d576040517f08c379a0000000000000000000000000000000000000000000000000000000008152600401611f1490612e6e565b60405180910390fd5b505050565b6000611f438473ffffffffffffffffffffffffffffffffffffffff1661248b565b156120e4578373ffffffffffffffffffffffffffffffffffffffff1663150b7a02611f6c611756565b8786866040518563ffffffff167c0100000000000000000000000000000000000000000000000000000000028152600401611faa9493929190612de5565b602060405180830381600087803b158015611fc457600080fd5b505af1925050508015611ff557506040513d601f19601f82011682018060405250810190611ff291906129c4565b60015b612078573d8060008114612025576040519150601f19603f3d011682016040523d82523d6000602084013e61202a565b606091505b50600081511415612070576040517f08c379a000000000000000000000000000000000000000000000000000000000815260040161206790612e6e565b60405180910390fd5b805181602001fd5b63150b7a027c0100000000000000000000000000000000000000000000000000000000027bffffffffffffffffffffffffffffffffffffffffffffffffffffffff1916817bffffffffffffffffffffffffffffffffffffffffffffffffffffffff1916149150506120e9565b600190505b949350505050565b60606000821415612139576040518060400160405280600181526020017f300000000000000000000000000000000000000000000000000000000000000081525090506122b8565b600082905060005b6000821461216b57808061215490613409565b915050600a82612164919061321f565b9150612141565b60008167ffffffffffffffff8111156121ad577f4e487b7100000000000000000000000000000000000000000000000000000000600052604160045260246000fd5b6040519080825280601f01601f1916602001820160405280156121df5781602001600182028036833780820191505090505b5090505b600085146122b1576001826121f891906132aa565b9150600a85612207919061345c565b603061221391906131c9565b7f01000000000000000000000000000000000000000000000000000000000000000281838151811061226e577f4e487b7100000000000000000000000000000000000000000000000000000000600052603260045260246000fd5b60200101907effffffffffffffffffffffffffffffffffffffffffffffffffffffffffffff1916908160001a905350600a856122aa919061321f565b94506121e3565b8093505050505b919050565b600073ffffffffffffffffffffffffffffffffffffffff168273ffffffffffffffffffffffffffffffffffffffff16141561232d576040517f08c379a000000000000000000000000000000000000000000000000000000000815260040161232490612fae565b60405180910390fd5b612336816116ea565b15612376576040517f08c379a000000000000000000000000000000000000000000000000000000000815260040161236d90612e8e565b60405180910390fd5b61238260008383611ec2565b6001600360008473ffffffffffffffffffffffffffffffffffffffff1673ffffffffffffffffffffffffffffffffffffffff16815260200190815260200160002060008282546123d291906131c9565b92505081905550816002600083815260200190815260200160002060006101000a81548173ffffffffffffffffffffffffffffffffffffffff021916908373ffffffffffffffffffffffffffffffffffffffff160217905550808273ffffffffffffffffffffffffffffffffffffffff16600073ffffffffffffffffffffffffffffffffffffffff167fddf252ad1be2c89b69c2b068fc378daa952ba7f163c4a11628f55a4df523b3ef60405160405180910390a45050565b600080823b905060008111915050919050565b8280546124aa906133a6565b90600052602060002090601f0160209004810192826124cc5760008555612513565b82601f106124e557803560ff1916838001178555612513565b82800160010185558215612513579182015b828111156125125782358255916020019190600101906124f7565b5b5090506125209190612677565b5090565b828054612530906133a6565b90600052602060002090601f01602090048101928261255257600085556125a0565b82601f1061256357805485556125a0565b828001600101855582156125a057600052602060002091601f016020900482015b8281111561259f578254825591600101919060010190612584565b5b5090506125ad9190612677565b5090565b5080546125bd906133a6565b6000825580601f106125cf57506125ee565b601f0160209004906000526020600020908101906125ed9190612677565b5b50565b8280546125fd906133a6565b90600052602060002090601f01602090048101928261261f5760008555612666565b82601f1061263857805160ff1916838001178555612666565b82800160010185558215612666579182015b8281111561266557825182559160200191906001019061264a565b5b5090506126739190612677565b5090565b5b80821115612690576000816000905550600101612678565b5090565b60006126a76126a284613155565b613130565b9050828152602081018484840111156126bf57600080fd5b6126ca848285613364565b509392505050565b6000813590506126e181613a01565b92915050565b60008083601f8401126126f957600080fd5b8235905067ffffffffffffffff81111561271257600080fd5b60208301915083602082028301111561272a57600080fd5b9250929050565b60008135905061274081613a18565b92915050565b60008135905061275581613a2f565b92915050565b60008151905061276a81613a2f565b92915050565b600082601f83011261278157600080fd5b8135612791848260208601612694565b91505092915050565b6000813590506127a981613a46565b92915050565b6000602082840312156127c157600080fd5b60006127cf848285016126d2565b91505092915050565b600080604083850312156127eb57600080fd5b60006127f9858286016126d2565b925050602061280a858286016126d2565b9150509250929050565b60008060006060848603121561282957600080fd5b6000612837868287016126d2565b9350506020612848868287016126d2565b92505060406128598682870161279a565b9150509250925092565b6000806000806080858703121561287957600080fd5b6000612887878288016126d2565b9450506020612898878288016126d2565b93505060406128a98782880161279a565b925050606085013567ffffffffffffffff8111156128c657600080fd5b6128d287828801612770565b91505092959194509250565b600080604083850312156128f157600080fd5b60006128ff858286016126d2565b925050602061291085828601612731565b9150509250929050565b6000806040838503121561292d57600080fd5b600061293b858286016126d2565b925050602061294c8582860161279a565b9150509250929050565b6000806020838503121561296957600080fd5b600083013567ffffffffffffffff81111561298357600080fd5b61298f858286016126e7565b92509250509250929050565b6000602082840312156129ad57600080fd5b60006129bb84828501612746565b91505092915050565b6000602082840312156129d657600080fd5b60006129e48482850161275b565b91505092915050565b6000602082840312156129ff57600080fd5b6000612a0d8482850161279a565b91505092915050565b612a1f816132f0565b82525050565b612a2e816132de565b82525050565b612a3d81613302565b82525050565b6000612a4e82613186565b612a58818561319c565b9350612a68818560208601613373565b612a7181613549565b840191505092915050565b6000612a8782613191565b612a9181856131ad565b9350612aa1818560208601613373565b612aaa81613549565b840191505092915050565b6000612ac082613191565b612aca81856131be565b9350612ada818560208601613373565b80840191505092915050565b6000612af36032836131ad565b9150612afe8261355a565b604082019050919050565b6000612b16601c836131ad565b9150612b21826135a9565b602082019050919050565b6000612b396024836131ad565b9150612b44826135d2565b604082019050919050565b6000612b5c6019836131ad565b9150612b6782613621565b602082019050919050565b6000612b7f602c836131ad565b9150612b8a8261364a565b604082019050919050565b6000612ba26012836131ad565b9150612bad82613699565b602082019050919050565b6000612bc56038836131ad565b9150612bd0826136c2565b604082019050919050565b6000612be8602a836131ad565b9150612bf382613711565b604082019050919050565b6000612c0b6029836131ad565b9150612c1682613760565b604082019050919050565b6000612c2e602e836131ad565b9150612c39826137af565b604082019050919050565b6000612c516020836131ad565b9150612c5c826137fe565b602082019050919050565b6000612c746031836131ad565b9150612c7f82613827565b604082019050919050565b6000612c97602c836131ad565b9150612ca282613876565b604082019050919050565b6000612cba6029836131ad565b9150612cc5826138c5565b604082019050919050565b6000612cdd602f836131ad565b9150612ce882613914565b604082019050919050565b6000612d006021836131ad565b9150612d0b82613963565b604082019050919050565b6000612d236031836131ad565b9150612d2e826139b2565b604082019050919050565b612d428161335a565b82525050565b612d59612d548261335a565b613452565b82525050565b6000612d6b8285612ab5565b9150612d778284612ab5565b91508190509392505050565b6000612d8f8285612d48565b602082019150612d9f8284612d48565b6020820191508190509392505050565b6000602082019050612dc46000830184612a25565b92915050565b6000602082019050612ddf6000830184612a16565b92915050565b6000608082019050612dfa6000830187612a25565b612e076020830186612a25565b612e146040830185612d39565b8181036060830152612e268184612a43565b905095945050505050565b6000602082019050612e466000830184612a34565b92915050565b60006020820190508181036000830152612e668184612a7c565b905092915050565b60006020820190508181036000830152612e8781612ae6565b9050919050565b60006020820190508181036000830152612ea781612b09565b9050919050565b60006020820190508181036000830152612ec781612b2c565b9050919050565b60006020820190508181036000830152612ee781612b4f565b9050919050565b60006020820190508181036000830152612f0781612b72565b9050919050565b60006020820190508181036000830152612f2781612b95565b9050919050565b60006020820190508181036000830152612f4781612bb8565b9050919050565b60006020820190508181036000830152612f6781612bdb565b9050919050565b60006020820190508181036000830152612f8781612bfe565b9050919050565b60006020820190508181036000830152612fa781612c21565b9050919050565b60006020820190508181036000830152612fc781612c44565b9050919050565b60006020820190508181036000830152612fe781612c67565b9050919050565b6000602082019050818103600083015261300781612c8a565b9050919050565b6000602082019050818103600083015261302781612cad565b9050919050565b6000602082019050818103600083015261304781612cd0565b9050919050565b6000602082019050818103600083015261306781612cf3565b9050919050565b6000602082019050818103600083015261308781612d16565b9050919050565b60006020820190506130a36000830184612d39565b92915050565b60006040820190506130be6000830185612d39565b81810360208301526130d08184612a7c565b90509392505050565b600080833560016020038436030381126130f257600080fd5b80840192508235915067ffffffffffffffff82111561311057600080fd5b60208301925060018202360383131561312857600080fd5b509250929050565b600061313a61314b565b905061314682826133d8565b919050565b6000604051905090565b600067ffffffffffffffff8211156131705761316f61351a565b5b61317982613549565b9050602081019050919050565b600081519050919050565b600081519050919050565b600082825260208201905092915050565b600082825260208201905092915050565b600081905092915050565b60006131d48261335a565b91506131df8361335a565b9250827fffffffffffffffffffffffffffffffffffffffffffffffffffffffffffffffff038211156132145761321361348d565b5b828201905092915050565b600061322a8261335a565b91506132358361335a565b925082613245576132446134bc565b5b828204905092915050565b600061325b8261335a565b91506132668361335a565b9250817fffffffffffffffffffffffffffffffffffffffffffffffffffffffffffffffff048311821515161561329f5761329e61348d565b5b828202905092915050565b60006132b58261335a565b91506132c08361335a565b9250828210156132d3576132d261348d565b5b828203905092915050565b60006132e98261333a565b9050919050565b60006132fb8261333a565b9050919050565b60008115159050919050565b60007fffffffff0000000000000000000000000000000000000000000000000000000082169050919050565b600073ffffffffffffffffffffffffffffffffffffffff82169050919050565b6000819050919050565b82818337600083830152505050565b60005b83811015613391578082015181840152602081019050613376565b838111156133a0576000848401525b50505050565b600060028204905060018216806133be57607f821691505b602082108114156133d2576133d16134eb565b5b50919050565b6133e182613549565b810181811067ffffffffffffffff82111715613400576133ff61351a565b5b80604052505050565b60006134148261335a565b91507fffffffffffffffffffffffffffffffffffffffffffffffffffffffffffffffff8214156134475761344661348d565b5b600182019050919050565b6000819050919050565b60006134678261335a565b91506134728361335a565b925082613482576134816134bc565b5b828206905092915050565b7f4e487b7100000000000000000000000000000000000000000000000000000000600052601160045260246000fd5b7f4e487b7100000000000000000000000000000000000000000000000000000000600052601260045260246000fd5b7f4e487b7100000000000000000000000000000000000000000000000000000000600052602260045260246000fd5b7f4e487b7100000000000000000000000000000000000000000000000000000000600052604160045260246000fd5b6000601f19601f8301169050919050565b7f4552433732313a207472616e7366657220746f206e6f6e20455243373231526560008201527f63656976657220696d706c656d656e7465720000000000000000000000000000602082015250565b7f4552433732313a20746f6b656e20616c7265616479206d696e74656400000000600082015250565b7f4552433732313a207472616e7366657220746f20746865207a65726f2061646460008201527f7265737300000000000000000000000000000000000000000000000000000000602082015250565b7f4552433732313a20617070726f766520746f2063616c6c657200000000000000600082015250565b7f4552433732313a206f70657261746f7220717565727920666f72206e6f6e657860008201527f697374656e7420746f6b656e0000000000000000000000000000000000000000602082015250565b7f496e73756666696369656e742070726963650000000000000000000000000000600082015250565b7f4552433732313a20617070726f76652063616c6c6572206973206e6f74206f7760008201527f6e6572206e6f7220617070726f76656420666f7220616c6c0000000000000000602082015250565b7f4552433732313a2062616c616e636520717565727920666f7220746865207a6560008201527f726f206164647265737300000000000000000000000000000000000000000000602082015250565b7f4552433732313a206f776e657220717565727920666f72206e6f6e657869737460008201527f656e7420746f6b656e0000000000000000000000000000000000000000000000602082015250565b7f45524337323155524953746f726167653a2055524920736574206f66206e6f6e60008201527f6578697374656e7420746f6b656e000000000000000000000000000000000000602082015250565b7f4552433732313a206d696e7420746f20746865207a65726f2061646472657373600082015250565b7f45524337323155524953746f726167653a2055524920717565727920666f722060008201527f6e6f6e6578697374656e7420746f6b656e000000000000000000000000000000602082015250565b7f4552433732313a20617070726f76656420717565727920666f72206e6f6e657860008201527f697374656e7420746f6b656e0000000000000000000000000000000000000000602082015250565b7f4552433732313a207472616e73666572206f6620746f6b656e2074686174206960008201527f73206e6f74206f776e0000000000000000000000000000000000000000000000602082015250565b7f4552433732314d657461646174613a2055524920717565727920666f72206e6f60008201527f6e6578697374656e7420746f6b656e0000000000000000000000000000000000602082015250565b7f4552433732313a20617070726f76616c20746f2063757272656e74206f776e6560008201527f7200000000000000000000000000000000000000000000000000000000000000602082015250565b7f4552433732313a207472616e736665722063616c6c6572206973206e6f74206f60008201527f776e6572206e6f7220617070726f766564000000000000000000000000000000602082015250565b613a0a816132de565b8114613a1557600080fd5b50565b613a2181613302565b8114613a2c57600080fd5b50565b613a388161330e565b8114613a4357600080fd5b50565b613a4f8161335a565b8114613a5a57600080fd5b5056fea264697066735822122033ce9cbf92a2f77c8ed5766cce877d86c46afa4c0f68d6b3b7ef20932ff35e4b64736f6c63430008040033",
  "immutableReferences": {},
  "source": "// SPDX-License-Identifier: MIT\r\npragma solidity ^0.8.0;\r\n\r\nimport \"@openzeppelin/contracts/utils/Strings.sol\";\r\nimport \"@openzeppelin/contracts/token/ERC721/extensions/ERC721URIStorage.sol\";\r\nimport \"@openzeppelin/contracts/utils/Counters.sol\";\r\nimport \"@openzeppelin/contracts/utils/math/SafeMath.sol\";\r\n\r\n// We need to import the helper functions from the contract that we copy/pasted.\r\nimport {Base64} from \"../libraries/Base64.sol\";\r\n\r\ncontract MintToken is ERC721URIStorage {\r\n    using Counters for Counters.Counter;\r\n    using SafeMath for uint256;\r\n    Counters.Counter private _tokenIds;\r\n\r\n    address payable public owner;\r\n    address payable[] public creators;\r\n    uint256[] public amounts;\r\n    uint256[] public percentages;\r\n\r\n    uint256 public startTime;\r\n    uint256 public priceWei;\r\n\r\n    string[] public candidates;\r\n\r\n    error Unauthorized();\r\n    error TooEarly();\r\n    error TooLate();\r\n    error Empty();\r\n    event Mint(uint256 tokenId, string url, address indexed sender);\r\n\r\n    constructor(\r\n        string memory _name,\r\n        string memory _symbol,\r\n        uint256 _priceWei,\r\n        uint256 _startTime,\r\n        address _owner,\r\n        address payable[] memory _creators,\r\n        uint256[] memory _amounts,\r\n        uint256[] memory _percentages\r\n    ) ERC721(_name, _symbol) {\r\n        startTime = _startTime;\r\n        candidates = new string[](0);\r\n        owner = payable(_owner);\r\n        priceWei = _priceWei;\r\n        creators = _creators;\r\n        amounts = _amounts;\r\n        percentages = _percentages;\r\n    }\r\n\r\n    modifier onlyBy(address _account) {\r\n        if (msg.sender != _account) revert Unauthorized();\r\n        _;\r\n    }\r\n\r\n    modifier onlyAfter(uint256 _time) {\r\n        if (block.timestamp < _time) revert TooEarly();\r\n        _;\r\n    }\r\n\r\n    modifier onlyBefore(uint256 _time) {\r\n        if (block.timestamp > _time) revert TooLate();\r\n        _;\r\n    }\r\n\r\n    function addBatch(string[] calldata _candidates)\r\n        public\r\n        onlyBy(owner)\r\n        onlyBefore(startTime)\r\n    {\r\n        for (uint256 i = 0; i < _candidates.length; i += 1) {\r\n            candidates.push(_candidates[i]);\r\n        }\r\n    }\r\n\r\n    function random() private view returns (uint256) {\r\n        return\r\n            uint256(\r\n                keccak256(abi.encodePacked(block.difficulty, block.timestamp))\r\n            );\r\n    }\r\n\r\n    function getTotalMined() public view returns (uint256) {\r\n        return _tokenIds.current();\r\n    }\r\n\r\n    function mintRandom() public payable {\r\n        require(msg.value >= priceWei, \"Insufficient price\");\r\n\r\n        uint256 newItemId = _tokenIds.current();\r\n        if (candidates.length == 0) {\r\n            revert Empty();\r\n        }\r\n        uint256 rand = random();\r\n        uint256 idx = rand % candidates.length;\r\n        string memory element = candidates[idx];\r\n        candidates[idx] = candidates[candidates.length - 1];\r\n        candidates.pop();\r\n\r\n        _safeMint(msg.sender, newItemId);\r\n        _setTokenURI(newItemId, element);\r\n\r\n        _tokenIds.increment();\r\n        for (uint256 i = 0; i < creators.length; i += 1) {\r\n            amounts[i] = uint256((msg.value * percentages[i]) / 100);\r\n        }\r\n        emit Mint(newItemId, element, msg.sender);\r\n    }\r\n\r\n    function withdraw() public {\r\n        for (uint256 i = 0; i < creators.length; i += 1) {\r\n            if (creators[i] == msg.sender) {\r\n                creators[i].transfer(amounts[i]);\r\n                amounts[i] = 0;\r\n            }\r\n        }\r\n    }\r\n}\r\n",
  "sourcePath": "C:\\Users\\kumquatexpress\\projects\\test-polygon\\src\\contracts\\contracts\\polygon\\MintToken.sol",
  "compiler": {
    "name": "solc",
    "version": "0.8.4+commit.c7e474f2.Emscripten.clang"
  },
  "schemaVersion": "3.4.4",
  "updatedAt": "2022-01-14T02:17:20.368Z",
  "devdoc": {
    "kind": "dev",
    "methods": {
      "approve(address,uint256)": {
        "details": "See {IERC721-approve}."
      },
      "balanceOf(address)": {
        "details": "See {IERC721-balanceOf}."
      },
      "getApproved(uint256)": {
        "details": "See {IERC721-getApproved}."
      },
      "isApprovedForAll(address,address)": {
        "details": "See {IERC721-isApprovedForAll}."
      },
      "name()": {
        "details": "See {IERC721Metadata-name}."
      },
      "ownerOf(uint256)": {
        "details": "See {IERC721-ownerOf}."
      },
      "safeTransferFrom(address,address,uint256)": {
        "details": "See {IERC721-safeTransferFrom}."
      },
      "safeTransferFrom(address,address,uint256,bytes)": {
        "details": "See {IERC721-safeTransferFrom}."
      },
      "setApprovalForAll(address,bool)": {
        "details": "See {IERC721-setApprovalForAll}."
      },
      "supportsInterface(bytes4)": {
        "details": "See {IERC165-supportsInterface}."
      },
      "symbol()": {
        "details": "See {IERC721Metadata-symbol}."
      },
      "tokenURI(uint256)": {
        "details": "See {IERC721Metadata-tokenURI}."
      },
      "transferFrom(address,address,uint256)": {
        "details": "See {IERC721-transferFrom}."
      }
    },
    "version": 1
  },
  "userdoc": {
    "kind": "user",
    "methods": {},
    "version": 1
  },
  "db": {
    "callBytecode": {
      "id": "0x504681a31f6b2b1f05c6e7800f7bd629312202db657949d199e10060a330dde2"
    },
    "createBytecode": {
      "id": "0xe40b139d286d7480e563d2c53154ee6c2cf65f478271bb2915ea3d9932ffc42f"
    },
    "contract": {
      "id": "0x9e273d2b963e3352f654734720f14d09649f25773830d2305ef3d21e2feae096"
    }
  }
}