{
  "contractName": "MyEpicRandomSVG",
  "abi": [
    {
      "inputs": [],
      "stateMutability": "nonpayable",
      "type": "constructor"
    },
    {
      "anonymous": false,
      "inputs": [
        {
          "indexed": true,
          "internalType": "address",
          "name": "owner",
          "type": "address"
        },
        {
          "indexed": true,
          "internalType": "address",
          "name": "approved",
          "type": "address"
        },
        {
          "indexed": true,
          "internalType": "uint256",
          "name": "tokenId",
          "type": "uint256"
        }
      ],
      "name": "Approval",
      "type": "event"
    },
    {
      "anonymous": false,
      "inputs": [
        {
          "indexed": true,
          "internalType": "address",
          "name": "owner",
          "type": "address"
        },
        {
          "indexed": true,
          "internalType": "address",
          "name": "operator",
          "type": "address"
        },
        {
          "indexed": false,
          "internalType": "bool",
          "name": "approved",
          "type": "bool"
        }
      ],
      "name": "ApprovalForAll",
      "type": "event"
    },
    {
      "anonymous": false,
      "inputs": [
        {
          "indexed": false,
          "internalType": "address",
          "name": "sender",
          "type": "address"
        },
        {
          "indexed": false,
          "internalType": "uint256",
          "name": "tokenId",
          "type": "uint256"
        }
      ],
      "name": "NewEpicNFTMinted",
      "type": "event"
    },
    {
      "anonymous": false,
      "inputs": [
        {
          "indexed": true,
          "internalType": "address",
          "name": "from",
          "type": "address"
        },
        {
          "indexed": true,
          "internalType": "address",
          "name": "to",
          "type": "address"
        },
        {
          "indexed": true,
          "internalType": "uint256",
          "name": "tokenId",
          "type": "uint256"
        }
      ],
      "name": "Transfer",
      "type": "event"
    },
    {
      "inputs": [
        {
          "internalType": "address",
          "name": "to",
          "type": "address"
        },
        {
          "internalType": "uint256",
          "name": "tokenId",
          "type": "uint256"
        }
      ],
      "name": "approve",
      "outputs": [],
      "stateMutability": "nonpayable",
      "type": "function"
    },
    {
      "inputs": [
        {
          "internalType": "address",
          "name": "owner",
          "type": "address"
        }
      ],
      "name": "balanceOf",
      "outputs": [
        {
          "internalType": "uint256",
          "name": "",
          "type": "uint256"
        }
      ],
      "stateMutability": "view",
      "type": "function"
    },
    {
      "inputs": [
        {
          "internalType": "uint256",
          "name": "tokenId",
          "type": "uint256"
        }
      ],
      "name": "getApproved",
      "outputs": [
        {
          "internalType": "address",
          "name": "",
          "type": "address"
        }
      ],
      "stateMutability": "view",
      "type": "function"
    },
    {
      "inputs": [
        {
          "internalType": "address",
          "name": "owner",
          "type": "address"
        },
        {
          "internalType": "address",
          "name": "operator",
          "type": "address"
        }
      ],
      "name": "isApprovedForAll",
      "outputs": [
        {
          "internalType": "bool",
          "name": "",
          "type": "bool"
        }
      ],
      "stateMutability": "view",
      "type": "function"
    },
    {
      "inputs": [],
      "name": "name",
      "outputs": [
        {
          "internalType": "string",
          "name": "",
          "type": "string"
        }
      ],
      "stateMutability": "view",
      "type": "function"
    },
    {
      "inputs": [
        {
          "internalType": "uint256",
          "name": "tokenId",
          "type": "uint256"
        }
      ],
      "name": "ownerOf",
      "outputs": [
        {
          "internalType": "address",
          "name": "",
          "type": "address"
        }
      ],
      "stateMutability": "view",
      "type": "function"
    },
    {
      "inputs": [
        {
          "internalType": "address",
          "name": "from",
          "type": "address"
        },
        {
          "internalType": "address",
          "name": "to",
          "type": "address"
        },
        {
          "internalType": "uint256",
          "name": "tokenId",
          "type": "uint256"
        }
      ],
      "name": "safeTransferFrom",
      "outputs": [],
      "stateMutability": "nonpayable",
      "type": "function"
    },
    {
      "inputs": [
        {
          "internalType": "address",
          "name": "from",
          "type": "address"
        },
        {
          "internalType": "address",
          "name": "to",
          "type": "address"
        },
        {
          "internalType": "uint256",
          "name": "tokenId",
          "type": "uint256"
        },
        {
          "internalType": "bytes",
          "name": "_data",
          "type": "bytes"
        }
      ],
      "name": "safeTransferFrom",
      "outputs": [],
      "stateMutability": "nonpayable",
      "type": "function"
    },
    {
      "inputs": [
        {
          "internalType": "address",
          "name": "operator",
          "type": "address"
        },
        {
          "internalType": "bool",
          "name": "approved",
          "type": "bool"
        }
      ],
      "name": "setApprovalForAll",
      "outputs": [],
      "stateMutability": "nonpayable",
      "type": "function"
    },
    {
      "inputs": [
        {
          "internalType": "bytes4",
          "name": "interfaceId",
          "type": "bytes4"
        }
      ],
      "name": "supportsInterface",
      "outputs": [
        {
          "internalType": "bool",
          "name": "",
          "type": "bool"
        }
      ],
      "stateMutability": "view",
      "type": "function"
    },
    {
      "inputs": [],
      "name": "symbol",
      "outputs": [
        {
          "internalType": "string",
          "name": "",
          "type": "string"
        }
      ],
      "stateMutability": "view",
      "type": "function"
    },
    {
      "inputs": [
        {
          "internalType": "uint256",
          "name": "tokenId",
          "type": "uint256"
        }
      ],
      "name": "tokenURI",
      "outputs": [
        {
          "internalType": "string",
          "name": "",
          "type": "string"
        }
      ],
      "stateMutability": "view",
      "type": "function"
    },
    {
      "inputs": [
        {
          "internalType": "address",
          "name": "from",
          "type": "address"
        },
        {
          "internalType": "address",
          "name": "to",
          "type": "address"
        },
        {
          "internalType": "uint256",
          "name": "tokenId",
          "type": "uint256"
        }
      ],
      "name": "transferFrom",
      "outputs": [],
      "stateMutability": "nonpayable",
      "type": "function"
    },
    {
      "inputs": [],
      "name": "getTotalMined",
      "outputs": [
        {
          "internalType": "uint256",
          "name": "",
          "type": "uint256"
        }
      ],
      "stateMutability": "view",
      "type": "function"
    },
    {
      "inputs": [],
      "name": "makeAnEpicNFT",
      "outputs": [],
      "stateMutability": "nonpayable",
      "type": "function"
    }
  ],
  "bytecode": "0x608060405260405180610160016040528061012f815260200162003ee661012f91396008908051906020019062000038929190620000ed565b503480156200004657600080fd5b506040518060400160405280600981526020017f5371756172654e465400000000000000000000000000000000000000000000008152506040518060400160405280600681526020017f53515541524500000000000000000000000000000000000000000000000000008152508160009080519060200190620000cb929190620000ed565b508060019080519060200190620000e4929190620000ed565b50505062000202565b828054620000fb906200019d565b90600052602060002090601f0160209004810192826200011f57600085556200016b565b82601f106200013a57805160ff19168380011785556200016b565b828001600101855582156200016b579182015b828111156200016a5782518255916020019190600101906200014d565b5b5090506200017a91906200017e565b5090565b5b80821115620001995760008160009055506001016200017f565b5090565b60006002820490506001821680620001b657607f821691505b60208210811415620001cd57620001cc620001d3565b5b50919050565b7f4e487b7100000000000000000000000000000000000000000000000000000000600052602260045260246000fd5b613cd480620002126000396000f3fe608060405234801561001057600080fd5b5060043610610112576000357c01000000000000000000000000000000000000000000000000000000009004806370a08231116100b4578063b88d4fde11610083578063b88d4fde146102a1578063c87b56dd146102bd578063de9d132f146102ed578063e985e9c5146102f757610112565b806370a08231146102195780638c2d15491461024957806395d89b4114610267578063a22cb4651461028557610112565b8063095ea7b3116100f0578063095ea7b31461019557806323b872dd146101b157806342842e0e146101cd5780636352211e146101e957610112565b806301ffc9a71461011757806306fdde0314610147578063081812fc14610165575b600080fd5b610131600480360381019061012c9190612914565b610327565b60405161013e9190612f5b565b60405180910390f35b61014f610409565b60405161015c9190612f76565b60405180910390f35b61017f600480360381019061017a9190612966565b61049b565b60405161018c9190612ecb565b60405180910390f35b6101af60048036038101906101aa91906128d8565b610520565b005b6101cb60048036038101906101c691906127d2565b610638565b005b6101e760048036038101906101e291906127d2565b610698565b005b61020360048036038101906101fe9190612966565b6106b8565b6040516102109190612ecb565b60405180910390f35b610233600480360381019061022e919061276d565b61076a565b60405161024091906131b8565b60405180910390f35b610251610822565b60405161025e91906131b8565b60405180910390f35b61026f610833565b60405161027c9190612f76565b60405180910390f35b61029f600480360381019061029a919061289c565b6108c5565b005b6102bb60048036038101906102b69190612821565b6108db565b005b6102d760048036038101906102d29190612966565b61093d565b6040516102e49190612f76565b60405180910390f35b6102f5610a8f565b005b610311600480360381019061030c9190612796565b610c98565b60405161031e9190612f5b565b60405180910390f35b60007f80ac58cd000000000000000000000000000000000000000000000000000000007bffffffffffffffffffffffffffffffffffffffffffffffffffffffff1916827bffffffffffffffffffffffffffffffffffffffffffffffffffffffff191614806103f257507f5b5e139f000000000000000000000000000000000000000000000000000000007bffffffffffffffffffffffffffffffffffffffffffffffffffffffff1916827bffffffffffffffffffffffffffffffffffffffffffffffffffffffff1916145b80610402575061040182610d2c565b5b9050919050565b6060600080546104189061344c565b80601f01602080910402602001604051908101604052809291908181526020018280546104449061344c565b80156104915780601f1061046657610100808354040283529160200191610491565b820191906000526020600020905b81548152906001019060200180831161047457829003601f168201915b5050505050905090565b60006104a682610d96565b6104e5576040517f08c379a00000000000000000000000000000000000000000000000000000000081526004016104dc906130f8565b60405180910390fd5b6004600083815260200190815260200160002060009054906101000a900473ffffffffffffffffffffffffffffffffffffffff169050919050565b600061052b826106b8565b90508073ffffffffffffffffffffffffffffffffffffffff168373ffffffffffffffffffffffffffffffffffffffff16141561059c576040517f08c379a000000000000000000000000000000000000000000000000000000000815260040161059390613158565b60405180910390fd5b8073ffffffffffffffffffffffffffffffffffffffff166105bb610e02565b73ffffffffffffffffffffffffffffffffffffffff1614806105ea57506105e9816105e4610e02565b610c98565b5b610629576040517f08c379a000000000000000000000000000000000000000000000000000000000815260040161062090613038565b60405180910390fd5b6106338383610e0a565b505050565b610649610643610e02565b82610ec3565b610688576040517f08c379a000000000000000000000000000000000000000000000000000000000815260040161067f90613178565b60405180910390fd5b610693838383610fa1565b505050565b6106b3838383604051806020016040528060008152506108db565b505050565b6000806002600084815260200190815260200160002060009054906101000a900473ffffffffffffffffffffffffffffffffffffffff169050600073ffffffffffffffffffffffffffffffffffffffff168173ffffffffffffffffffffffffffffffffffffffff161415610761576040517f08c379a000000000000000000000000000000000000000000000000000000000815260040161075890613078565b60405180910390fd5b80915050919050565b60008073ffffffffffffffffffffffffffffffffffffffff168273ffffffffffffffffffffffffffffffffffffffff1614156107db576040517f08c379a00000000000000000000000000000000000000000000000000000000081526004016107d290613058565b60405180910390fd5b600360008373ffffffffffffffffffffffffffffffffffffffff1673ffffffffffffffffffffffffffffffffffffffff168152602001908152602001600020549050919050565b600061082e60076111fd565b905090565b6060600180546108429061344c565b80601f016020809104026020016040519081016040528092919081815260200182805461086e9061344c565b80156108bb5780601f10610890576101008083540402835291602001916108bb565b820191906000526020600020905b81548152906001019060200180831161089e57829003601f168201915b5050505050905090565b6108d76108d0610e02565b838361120b565b5050565b6108ec6108e6610e02565b83610ec3565b61092b576040517f08c379a000000000000000000000000000000000000000000000000000000000815260040161092290613178565b60405180910390fd5b61093784848484611378565b50505050565b606061094882610d96565b610987576040517f08c379a000000000000000000000000000000000000000000000000000000000815260040161097e906130d8565b60405180910390fd5b60006006600084815260200190815260200160002080546109a79061344c565b80601f01602080910402602001604051908101604052809291908181526020018280546109d39061344c565b8015610a205780601f106109f557610100808354040283529160200191610a20565b820191906000526020600020905b815481529060010190602001808311610a0357829003601f168201915b505050505090506000610a316113d4565b9050600081511415610a47578192505050610a8a565b600082511115610a7c578082604051602001610a64929190612de0565b60405160208183030381529060405292505050610a8a565b610a85846113eb565b925050505b919050565b6000610a9b60076111fd565b905060328110610ae0576040517f08c379a0000000000000000000000000000000000000000000000000000000008152600401610ad790613198565b60405180910390fd5b60006040518060400160405280600581526020017f6170706c65000000000000000000000000000000000000000000000000000000815250905060006040518060400160405280600581526020017f6170706c65000000000000000000000000000000000000000000000000000000815250905060006040518060400160405280600581526020017f6170706c6500000000000000000000000000000000000000000000000000000081525090506000838383604051602001610ba593929190612e04565b60405160208183030381529060405290506000600882604051602001610bcc929190612e35565b60405160208183030381529060405290506000610c1183610bec84611492565b604051602001610bfd929190612e64565b604051602081830303815290604052611492565b9050600081604051602001610c269190612ea9565b6040516020818303038152906040529050610c413389611c92565b610c4b8882611cb0565b610c556007611d24565b7febb98688741ffa4c7589bf325de30cf7becb63de567842e1ccdb6cb949fdc82c3389604051610c86929190612f32565b60405180910390a15050505050505050565b6000600560008473ffffffffffffffffffffffffffffffffffffffff1673ffffffffffffffffffffffffffffffffffffffff16815260200190815260200160002060008373ffffffffffffffffffffffffffffffffffffffff1673ffffffffffffffffffffffffffffffffffffffff16815260200190815260200160002060009054906101000a900460ff16905092915050565b60007f01ffc9a7000000000000000000000000000000000000000000000000000000007bffffffffffffffffffffffffffffffffffffffffffffffffffffffff1916827bffffffffffffffffffffffffffffffffffffffffffffffffffffffff1916149050919050565b60008073ffffffffffffffffffffffffffffffffffffffff166002600084815260200190815260200160002060009054906101000a900473ffffffffffffffffffffffffffffffffffffffff1673ffffffffffffffffffffffffffffffffffffffff1614159050919050565b600033905090565b816004600083815260200190815260200160002060006101000a81548173ffffffffffffffffffffffffffffffffffffffff021916908373ffffffffffffffffffffffffffffffffffffffff160217905550808273ffffffffffffffffffffffffffffffffffffffff16610e7d836106b8565b73ffffffffffffffffffffffffffffffffffffffff167f8c5be1e5ebec7d5bd14f71427d1e84f3dd0314c0f7b2291e5b200ac8c7c3b92560405160405180910390a45050565b6000610ece82610d96565b610f0d576040517f08c379a0000000000000000000000000000000000000000000000000000000008152600401610f0490613018565b60405180910390fd5b6000610f18836106b8565b90508073ffffffffffffffffffffffffffffffffffffffff168473ffffffffffffffffffffffffffffffffffffffff161480610f8757508373ffffffffffffffffffffffffffffffffffffffff16610f6f8461049b565b73ffffffffffffffffffffffffffffffffffffffff16145b80610f985750610f978185610c98565b5b91505092915050565b8273ffffffffffffffffffffffffffffffffffffffff16610fc1826106b8565b73ffffffffffffffffffffffffffffffffffffffff1614611017576040517f08c379a000000000000000000000000000000000000000000000000000000000815260040161100e90613118565b60405180910390fd5b600073ffffffffffffffffffffffffffffffffffffffff168273ffffffffffffffffffffffffffffffffffffffff161415611087576040517f08c379a000000000000000000000000000000000000000000000000000000000815260040161107e90612fd8565b60405180910390fd5b611092838383611d3a565b61109d600082610e0a565b6001600360008573ffffffffffffffffffffffffffffffffffffffff1673ffffffffffffffffffffffffffffffffffffffff16815260200190815260200160002060008282546110ed9190613362565b925050819055506001600360008473ffffffffffffffffffffffffffffffffffffffff1673ffffffffffffffffffffffffffffffffffffffff16815260200190815260200160002060008282546111449190613281565b92505081905550816002600083815260200190815260200160002060006101000a81548173ffffffffffffffffffffffffffffffffffffffff021916908373ffffffffffffffffffffffffffffffffffffffff160217905550808273ffffffffffffffffffffffffffffffffffffffff168473ffffffffffffffffffffffffffffffffffffffff167fddf252ad1be2c89b69c2b068fc378daa952ba7f163c4a11628f55a4df523b3ef60405160405180910390a4505050565b600081600001549050919050565b8173ffffffffffffffffffffffffffffffffffffffff168373ffffffffffffffffffffffffffffffffffffffff16141561127a576040517f08c379a000000000000000000000000000000000000000000000000000000000815260040161127190612ff8565b60405180910390fd5b80600560008573ffffffffffffffffffffffffffffffffffffffff1673ffffffffffffffffffffffffffffffffffffffff16815260200190815260200160002060008473ffffffffffffffffffffffffffffffffffffffff1673ffffffffffffffffffffffffffffffffffffffff16815260200190815260200160002060006101000a81548160ff0219169083151502179055508173ffffffffffffffffffffffffffffffffffffffff168373ffffffffffffffffffffffffffffffffffffffff167f17307eab39ab6107e8899845ad3d59bd9653f200f220920489ca2b5937696c318360405161136b9190612f5b565b60405180910390a3505050565b611383848484610fa1565b61138f84848484611d3f565b6113ce576040517f08c379a00000000000000000000000000000000000000000000000000000000081526004016113c590612f98565b60405180910390fd5b50505050565b606060405180602001604052806000815250905090565b60606113f682610d96565b611435576040517f08c379a000000000000000000000000000000000000000000000000000000000815260040161142c90613138565b60405180910390fd5b600061143f6113d4565b9050600081511161145f576040518060200160405280600081525061148a565b8061146984611f0e565b60405160200161147a929190612de0565b6040516020818303038152906040525b915050919050565b606060008290506000600382516114a991906134f8565b9050600060038260036114bc9190613362565b6114c691906134f8565b60046003600286516114d89190613281565b6114e291906132d7565b6114ec9190613308565b6114f69190613362565b905060008167ffffffffffffffff81111561153a577f4e487b7100000000000000000000000000000000000000000000000000000000600052604160045260246000fd5b6040519080825280601f01601f19166020018201604052801561156c5781602001600182028036833780820191505090505b5090506000805b85516003836115829190613281565b11611981576117a28683815181106115c3577f4e487b7100000000000000000000000000000000000000000000000000000000600052603260045260246000fd5b60200101517f010000000000000000000000000000000000000000000000000000000000000090047f0100000000000000000000000000000000000000000000000000000000000000027f0100000000000000000000000000000000000000000000000000000000000000900460ff16876001856116419190613281565b81518110611678577f4e487b7100000000000000000000000000000000000000000000000000000000600052603260045260246000fd5b60200101517f010000000000000000000000000000000000000000000000000000000000000090047f0100000000000000000000000000000000000000000000000000000000000000027f0100000000000000000000000000000000000000000000000000000000000000900460ff16886002866116f69190613281565b8151811061172d577f4e487b7100000000000000000000000000000000000000000000000000000000600052603260045260246000fd5b60200101517f010000000000000000000000000000000000000000000000000000000000000090047f0100000000000000000000000000000000000000000000000000000000000000027f0100000000000000000000000000000000000000000000000000000000000000900460ff166120da565b8685815181106117db577f4e487b7100000000000000000000000000000000000000000000000000000000600052603260045260246000fd5b60200101876001876117ed9190613281565b81518110611824577f4e487b7100000000000000000000000000000000000000000000000000000000600052603260045260246000fd5b60200101886002886118369190613281565b8151811061186d577f4e487b7100000000000000000000000000000000000000000000000000000000600052603260045260246000fd5b602001018960038961187f9190613281565b815181106118b6577f4e487b7100000000000000000000000000000000000000000000000000000000600052603260045260246000fd5b60200101847effffffffffffffffffffffffffffffffffffffffffffffffffffffffffffff191660001a9053847effffffffffffffffffffffffffffffffffffffffffffffffffffffffffffff191660001a9053847effffffffffffffffffffffffffffffffffffffffffffffffffffffffffffff191660001a9053847effffffffffffffffffffffffffffffffffffffffffffffffffffffffffffff191660001a90535050505060048161196b9190613281565b905060038261197a9190613281565b9150611573565b60008514611c84576000868688516119999190613362565b815181106119d0577f4e487b7100000000000000000000000000000000000000000000000000000000600052603260045260246000fd5b60200101517f010000000000000000000000000000000000000000000000000000000000000090047f0100000000000000000000000000000000000000000000000000000000000000027f01000000000000000000000000000000000000000000000000000000000000009004905060006002871415611b00578760018951611a599190613362565b81518110611a90577f4e487b7100000000000000000000000000000000000000000000000000000000600052603260045260246000fd5b60200101517f010000000000000000000000000000000000000000000000000000000000000090047f0100000000000000000000000000000000000000000000000000000000000000027f0100000000000000000000000000000000000000000000000000000000000000900490505b600080600080611b188660ff168660ff1660006120da565b935093509350935083898881518110611b5a577f4e487b7100000000000000000000000000000000000000000000000000000000600052603260045260246000fd5b60200101907effffffffffffffffffffffffffffffffffffffffffffffffffffffffffffff1916908160001a9053508289600189611b989190613281565b81518110611bcf577f4e487b7100000000000000000000000000000000000000000000000000000000600052603260045260246000fd5b60200101907effffffffffffffffffffffffffffffffffffffffffffffffffffffffffffff1916908160001a90535060028b1415611c7d578189600289611c169190613281565b81518110611c4d577f4e487b7100000000000000000000000000000000000000000000000000000000600052603260045260246000fd5b60200101907effffffffffffffffffffffffffffffffffffffffffffffffffffffffffffff1916908160001a9053505b5050505050505b829650505050505050919050565b611cac8282604051806020016040528060008152506123bd565b5050565b611cb982610d96565b611cf8576040517f08c379a0000000000000000000000000000000000000000000000000000000008152600401611cef90613098565b60405180910390fd5b80600660008481526020019081526020016000209080519060200190611d1f9291906125f9565b505050565b6001816000016000828254019250508190555050565b505050565b6000611d608473ffffffffffffffffffffffffffffffffffffffff16612418565b15611f01578373ffffffffffffffffffffffffffffffffffffffff1663150b7a02611d89610e02565b8786866040518563ffffffff167c0100000000000000000000000000000000000000000000000000000000028152600401611dc79493929190612ee6565b602060405180830381600087803b158015611de157600080fd5b505af1925050508015611e1257506040513d601f19601f82011682018060405250810190611e0f919061293d565b60015b611e95573d8060008114611e42576040519150601f19603f3d011682016040523d82523d6000602084013e611e47565b606091505b50600081511415611e8d576040517f08c379a0000000000000000000000000000000000000000000000000000000008152600401611e8490612f98565b60405180910390fd5b805181602001fd5b63150b7a027c0100000000000000000000000000000000000000000000000000000000027bffffffffffffffffffffffffffffffffffffffffffffffffffffffff1916817bffffffffffffffffffffffffffffffffffffffffffffffffffffffff191614915050611f06565b600190505b949350505050565b60606000821415611f56576040518060400160405280600181526020017f300000000000000000000000000000000000000000000000000000000000000081525090506120d5565b600082905060005b60008214611f88578080611f71906134af565b915050600a82611f8191906132d7565b9150611f5e565b60008167ffffffffffffffff811115611fca577f4e487b7100000000000000000000000000000000000000000000000000000000600052604160045260246000fd5b6040519080825280601f01601f191660200182016040528015611ffc5781602001600182028036833780820191505090505b5090505b600085146120ce576001826120159190613362565b9150600a8561202491906134f8565b60306120309190613281565b7f01000000000000000000000000000000000000000000000000000000000000000281838151811061208b577f4e487b7100000000000000000000000000000000000000000000000000000000600052603260045260246000fd5b60200101907effffffffffffffffffffffffffffffffffffffffffffffffffffffffffffff1916908160001a905350600a856120c791906132d7565b9450612000565b8093505050505b919050565b6000806000806000856008889060020a0260108a9060020a02171790506000603f601283908060020a82049150501690506000603f600c84908060020a82049150501690506000603f600685908060020a82049150501690506000603f85169050604051806060016040528060408152602001613c5f60409139848151811061218c577f4e487b7100000000000000000000000000000000000000000000000000000000600052603260045260246000fd5b60200101517f010000000000000000000000000000000000000000000000000000000000000090047f0100000000000000000000000000000000000000000000000000000000000000029850604051806060016040528060408152602001613c5f604091398381518110612229577f4e487b7100000000000000000000000000000000000000000000000000000000600052603260045260246000fd5b60200101517f010000000000000000000000000000000000000000000000000000000000000090047f0100000000000000000000000000000000000000000000000000000000000000029750604051806060016040528060408152602001613c5f6040913982815181106122c6577f4e487b7100000000000000000000000000000000000000000000000000000000600052603260045260246000fd5b60200101517f010000000000000000000000000000000000000000000000000000000000000090047f0100000000000000000000000000000000000000000000000000000000000000029650604051806060016040528060408152602001613c5f604091398181518110612363577f4e487b7100000000000000000000000000000000000000000000000000000000600052603260045260246000fd5b60200101517f010000000000000000000000000000000000000000000000000000000000000090047f0100000000000000000000000000000000000000000000000000000000000000029550505050505093509350935093565b6123c7838361242b565b6123d46000848484611d3f565b612413576040517f08c379a000000000000000000000000000000000000000000000000000000000815260040161240a90612f98565b60405180910390fd5b505050565b600080823b905060008111915050919050565b600073ffffffffffffffffffffffffffffffffffffffff168273ffffffffffffffffffffffffffffffffffffffff16141561249b576040517f08c379a0000000000000000000000000000000000000000000000000000000008152600401612492906130b8565b60405180910390fd5b6124a481610d96565b156124e4576040517f08c379a00000000000000000000000000000000000000000000000000000000081526004016124db90612fb8565b60405180910390fd5b6124f060008383611d3a565b6001600360008473ffffffffffffffffffffffffffffffffffffffff1673ffffffffffffffffffffffffffffffffffffffff16815260200190815260200160002060008282546125409190613281565b92505081905550816002600083815260200190815260200160002060006101000a81548173ffffffffffffffffffffffffffffffffffffffff021916908373ffffffffffffffffffffffffffffffffffffffff160217905550808273ffffffffffffffffffffffffffffffffffffffff16600073ffffffffffffffffffffffffffffffffffffffff167fddf252ad1be2c89b69c2b068fc378daa952ba7f163c4a11628f55a4df523b3ef60405160405180910390a45050565b8280546126059061344c565b90600052602060002090601f016020900481019282612627576000855561266e565b82601f1061264057805160ff191683800117855561266e565b8280016001018555821561266e579182015b8281111561266d578251825591602001919060010190612652565b5b50905061267b919061267f565b5090565b5b80821115612698576000816000905550600101612680565b5090565b60006126af6126aa846131f8565b6131d3565b9050828152602081018484840111156126c757600080fd5b6126d284828561340a565b509392505050565b6000813590506126e981613c02565b92915050565b6000813590506126fe81613c19565b92915050565b60008135905061271381613c30565b92915050565b60008151905061272881613c30565b92915050565b600082601f83011261273f57600080fd5b813561274f84826020860161269c565b91505092915050565b60008135905061276781613c47565b92915050565b60006020828403121561277f57600080fd5b600061278d848285016126da565b91505092915050565b600080604083850312156127a957600080fd5b60006127b7858286016126da565b92505060206127c8858286016126da565b9150509250929050565b6000806000606084860312156127e757600080fd5b60006127f5868287016126da565b9350506020612806868287016126da565b925050604061281786828701612758565b9150509250925092565b6000806000806080858703121561283757600080fd5b6000612845878288016126da565b9450506020612856878288016126da565b935050604061286787828801612758565b925050606085013567ffffffffffffffff81111561288457600080fd5b6128908782880161272e565b91505092959194509250565b600080604083850312156128af57600080fd5b60006128bd858286016126da565b92505060206128ce858286016126ef565b9150509250929050565b600080604083850312156128eb57600080fd5b60006128f9858286016126da565b925050602061290a85828601612758565b9150509250929050565b60006020828403121561292657600080fd5b600061293484828501612704565b91505092915050565b60006020828403121561294f57600080fd5b600061295d84828501612719565b91505092915050565b60006020828403121561297857600080fd5b600061298684828501612758565b91505092915050565b61299881613396565b82525050565b6129a7816133a8565b82525050565b60006129b88261323e565b6129c28185613254565b93506129d2818560208601613419565b6129db816135e5565b840191505092915050565b60006129f182613249565b6129fb8185613265565b9350612a0b818560208601613419565b612a14816135e5565b840191505092915050565b6000612a2a82613249565b612a348185613276565b9350612a44818560208601613419565b80840191505092915050565b60008154612a5d8161344c565b612a678186613276565b94506001821660008114612a825760018114612a9357612ac6565b60ff19831686528186019350612ac6565b612a9c85613229565b60005b83811015612abe57815481890152600182019150602081019050612a9f565b838801955050505b50505092915050565b6000612adc603283613265565b9150612ae7826135f6565b604082019050919050565b6000612aff601c83613265565b9150612b0a82613645565b602082019050919050565b6000612b22602483613265565b9150612b2d8261366e565b604082019050919050565b6000612b45601983613265565b9150612b50826136bd565b602082019050919050565b6000612b68606383613276565b9150612b73826136e6565b606382019050919050565b6000612b8b602c83613265565b9150612b9682613781565b604082019050919050565b6000612bae600d83613276565b9150612bb9826137d0565b600d82019050919050565b6000612bd1603883613265565b9150612bdc826137f9565b604082019050919050565b6000612bf4602a83613265565b9150612bff82613848565b604082019050919050565b6000612c17602983613265565b9150612c2282613897565b604082019050919050565b6000612c3a602e83613265565b9150612c45826138e6565b604082019050919050565b6000612c5d600283613276565b9150612c6882613935565b600282019050919050565b6000612c80602083613265565b9150612c8b8261395e565b602082019050919050565b6000612ca3603183613265565b9150612cae82613987565b604082019050919050565b6000612cc6602c83613265565b9150612cd1826139d6565b604082019050919050565b6000612ce9602983613265565b9150612cf482613a25565b604082019050919050565b6000612d0c602f83613265565b9150612d1782613a74565b604082019050919050565b6000612d2f600a83613276565b9150612d3a82613ac3565b600a82019050919050565b6000612d52602183613265565b9150612d5d82613aec565b604082019050919050565b6000612d75601d83613276565b9150612d8082613b3b565b601d82019050919050565b6000612d98603183613265565b9150612da382613b64565b604082019050919050565b6000612dbb602283613265565b9150612dc682613bb3565b604082019050919050565b612dda81613400565b82525050565b6000612dec8285612a1f565b9150612df88284612a1f565b91508190509392505050565b6000612e108286612a1f565b9150612e1c8285612a1f565b9150612e288284612a1f565b9150819050949350505050565b6000612e418285612a50565b9150612e4d8284612a1f565b9150612e5882612ba1565b91508190509392505050565b6000612e6f82612d22565b9150612e7b8285612a1f565b9150612e8682612b5b565b9150612e928284612a1f565b9150612e9d82612c50565b91508190509392505050565b6000612eb482612d68565b9150612ec08284612a1f565b915081905092915050565b6000602082019050612ee0600083018461298f565b92915050565b6000608082019050612efb600083018761298f565b612f08602083018661298f565b612f156040830185612dd1565b8181036060830152612f2781846129ad565b905095945050505050565b6000604082019050612f47600083018561298f565b612f546020830184612dd1565b9392505050565b6000602082019050612f70600083018461299e565b92915050565b60006020820190508181036000830152612f9081846129e6565b905092915050565b60006020820190508181036000830152612fb181612acf565b9050919050565b60006020820190508181036000830152612fd181612af2565b9050919050565b60006020820190508181036000830152612ff181612b15565b9050919050565b6000602082019050818103600083015261301181612b38565b9050919050565b6000602082019050818103600083015261303181612b7e565b9050919050565b6000602082019050818103600083015261305181612bc4565b9050919050565b6000602082019050818103600083015261307181612be7565b9050919050565b6000602082019050818103600083015261309181612c0a565b9050919050565b600060208201905081810360008301526130b181612c2d565b9050919050565b600060208201905081810360008301526130d181612c73565b9050919050565b600060208201905081810360008301526130f181612c96565b9050919050565b6000602082019050818103600083015261311181612cb9565b9050919050565b6000602082019050818103600083015261313181612cdc565b9050919050565b6000602082019050818103600083015261315181612cff565b9050919050565b6000602082019050818103600083015261317181612d45565b9050919050565b6000602082019050818103600083015261319181612d8b565b9050919050565b600060208201905081810360008301526131b181612dae565b9050919050565b60006020820190506131cd6000830184612dd1565b92915050565b60006131dd6131ee565b90506131e9828261347e565b919050565b6000604051905090565b600067ffffffffffffffff821115613213576132126135b6565b5b61321c826135e5565b9050602081019050919050565b60008190508160005260206000209050919050565b600081519050919050565b600081519050919050565b600082825260208201905092915050565b600082825260208201905092915050565b600081905092915050565b600061328c82613400565b915061329783613400565b9250827fffffffffffffffffffffffffffffffffffffffffffffffffffffffffffffffff038211156132cc576132cb613529565b5b828201905092915050565b60006132e282613400565b91506132ed83613400565b9250826132fd576132fc613558565b5b828204905092915050565b600061331382613400565b915061331e83613400565b9250817fffffffffffffffffffffffffffffffffffffffffffffffffffffffffffffffff048311821515161561335757613356613529565b5b828202905092915050565b600061336d82613400565b915061337883613400565b92508282101561338b5761338a613529565b5b828203905092915050565b60006133a1826133e0565b9050919050565b60008115159050919050565b60007fffffffff0000000000000000000000000000000000000000000000000000000082169050919050565b600073ffffffffffffffffffffffffffffffffffffffff82169050919050565b6000819050919050565b82818337600083830152505050565b60005b8381101561343757808201518184015260208101905061341c565b83811115613446576000848401525b50505050565b6000600282049050600182168061346457607f821691505b6020821081141561347857613477613587565b5b50919050565b613487826135e5565b810181811067ffffffffffffffff821117156134a6576134a56135b6565b5b80604052505050565b60006134ba82613400565b91507fffffffffffffffffffffffffffffffffffffffffffffffffffffffffffffffff8214156134ed576134ec613529565b5b600182019050919050565b600061350382613400565b915061350e83613400565b92508261351e5761351d613558565b5b828206905092915050565b7f4e487b7100000000000000000000000000000000000000000000000000000000600052601160045260246000fd5b7f4e487b7100000000000000000000000000000000000000000000000000000000600052601260045260246000fd5b7f4e487b7100000000000000000000000000000000000000000000000000000000600052602260045260246000fd5b7f4e487b7100000000000000000000000000000000000000000000000000000000600052604160045260246000fd5b6000601f19601f8301169050919050565b7f4552433732313a207472616e7366657220746f206e6f6e20455243373231526560008201527f63656976657220696d706c656d656e7465720000000000000000000000000000602082015250565b7f4552433732313a20746f6b656e20616c7265616479206d696e74656400000000600082015250565b7f4552433732313a207472616e7366657220746f20746865207a65726f2061646460008201527f7265737300000000000000000000000000000000000000000000000000000000602082015250565b7f4552433732313a20617070726f766520746f2063616c6c657200000000000000600082015250565b7f222c20226465736372697074696f6e223a20224120686967686c79206163636c60008201527f61696d656420636f6c6c656374696f6e206f6620737175617265732e222c202260208201527f696d616765223a2022646174613a696d6167652f7376672b786d6c3b6261736560408201527f36342c0000000000000000000000000000000000000000000000000000000000606082015250565b7f4552433732313a206f70657261746f7220717565727920666f72206e6f6e657860008201527f697374656e7420746f6b656e0000000000000000000000000000000000000000602082015250565b7f3c2f746578743e3c2f7376673e00000000000000000000000000000000000000600082015250565b7f4552433732313a20617070726f76652063616c6c6572206973206e6f74206f7760008201527f6e6572206e6f7220617070726f76656420666f7220616c6c0000000000000000602082015250565b7f4552433732313a2062616c616e636520717565727920666f7220746865207a6560008201527f726f206164647265737300000000000000000000000000000000000000000000602082015250565b7f4552433732313a206f776e657220717565727920666f72206e6f6e657869737460008201527f656e7420746f6b656e0000000000000000000000000000000000000000000000602082015250565b7f45524337323155524953746f726167653a2055524920736574206f66206e6f6e60008201527f6578697374656e7420746f6b656e000000000000000000000000000000000000602082015250565b7f227d000000000000000000000000000000000000000000000000000000000000600082015250565b7f4552433732313a206d696e7420746f20746865207a65726f2061646472657373600082015250565b7f45524337323155524953746f726167653a2055524920717565727920666f722060008201527f6e6f6e6578697374656e7420746f6b656e000000000000000000000000000000602082015250565b7f4552433732313a20617070726f76656420717565727920666f72206e6f6e657860008201527f697374656e7420746f6b656e0000000000000000000000000000000000000000602082015250565b7f4552433732313a207472616e73666572206f6620746f6b656e2074686174206960008201527f73206e6f74206f776e0000000000000000000000000000000000000000000000602082015250565b7f4552433732314d657461646174613a2055524920717565727920666f72206e6f60008201527f6e6578697374656e7420746f6b656e0000000000000000000000000000000000602082015250565b7f7b226e616d65223a202200000000000000000000000000000000000000000000600082015250565b7f4552433732313a20617070726f76616c20746f2063757272656e74206f776e6560008201527f7200000000000000000000000000000000000000000000000000000000000000602082015250565b7f646174613a6170706c69636174696f6e2f6a736f6e3b6261736536342c000000600082015250565b7f4552433732313a207472616e736665722063616c6c6572206973206e6f74206f60008201527f776e6572206e6f7220617070726f766564000000000000000000000000000000602082015250565b7f4e6f206d6f7265207468616e203530204e4654732063616e206265206d696e7460008201527f6564000000000000000000000000000000000000000000000000000000000000602082015250565b613c0b81613396565b8114613c1657600080fd5b50565b613c22816133a8565b8114613c2d57600080fd5b50565b613c39816133b4565b8114613c4457600080fd5b50565b613c5081613400565b8114613c5b57600080fd5b5056fe4142434445464748494a4b4c4d4e4f505152535455565758595a6162636465666768696a6b6c6d6e6f707172737475767778797a303132333435363738392d5fa2646970667358221220e6ab451eeab8f8ac5a5fe7c3e0144e41534ec18bbf55b268be28526ba545157b64736f6c634300080400333c73766720786d6c6e733d27687474703a2f2f7777772e77332e6f72672f323030302f73766727207072657365727665417370656374526174696f3d27784d696e594d696e206d656574272076696577426f783d273020302033353020333530273e3c7374796c653e2e62617365207b2066696c6c3a2077686974653b20666f6e742d66616d696c793a2073657269663b20666f6e742d73697a653a20323470783b207d3c2f7374796c653e3c726563742077696474683d273130302527206865696768743d2731303025272066696c6c3d27626c61636b27202f3e3c7465787420783d273530252720793d273530252720636c6173733d27626173652720646f6d696e616e742d626173656c696e653d276d6964646c652720746578742d616e63686f723d276d6964646c65273e",
  "immutableReferences": {},
  "source": "// SPDX-License-Identifier: MIT\r\npragma solidity ^0.8.0;\r\n\r\nimport \"@openzeppelin/contracts/utils/Strings.sol\";\r\nimport \"@openzeppelin/contracts/token/ERC721/extensions/ERC721URIStorage.sol\";\r\nimport \"@openzeppelin/contracts/utils/Counters.sol\";\r\n\r\n// We need to import the helper functions from the contract that we copy/pasted.\r\nimport {Base64} from \"../libraries/Base64.sol\";\r\n\r\ncontract MyEpicRandomSVG is ERC721URIStorage {\r\n    using Counters for Counters.Counter;\r\n    Counters.Counter private _tokenIds;\r\n\r\n    string baseSvg =\r\n        \"<svg xmlns='http://www.w3.org/2000/svg' preserveAspectRatio='xMinYMin meet' viewBox='0 0 350 350'><style>.base { fill: white; font-family: serif; font-size: 24px; }</style><rect width='100%' height='100%' fill='black' /><text x='50%' y='50%' class='base' dominant-baseline='middle' text-anchor='middle'>\";\r\n\r\n    event NewEpicNFTMinted(address sender, uint256 tokenId);\r\n\r\n    constructor() ERC721(\"SquareNFT\", \"SQUARE\") {}\r\n\r\n    function random(string memory input) internal pure returns (uint256) {\r\n        return uint256(keccak256(abi.encodePacked(input)));\r\n    }\r\n\r\n    function getTotalMined() public view returns (uint256) {\r\n        return _tokenIds.current();\r\n    }\r\n\r\n    function makeAnEpicNFT() public {\r\n        uint256 newItemId = _tokenIds.current();\r\n        require(newItemId < 50, \"No more than 50 NFTs can be minted\");\r\n\r\n        string memory first = \"apple\";\r\n        string memory second = \"apple\";\r\n        string memory third = \"apple\";\r\n        string memory combinedWord = string(\r\n            abi.encodePacked(first, second, third)\r\n        );\r\n\r\n        string memory finalSvg = string(\r\n            abi.encodePacked(baseSvg, combinedWord, \"</text></svg>\")\r\n        );\r\n\r\n        // Get all the JSON metadata in place and base64 encode it.\r\n        string memory json = Base64.encode(\r\n            string(\r\n                abi.encodePacked(\r\n                    '{\"name\": \"',\r\n                    // We set the title of our NFT as the generated word.\r\n                    combinedWord,\r\n                    '\", \"description\": \"A highly acclaimed collection of squares.\", \"image\": \"data:image/svg+xml;base64,',\r\n                    // We add data:image/svg+xml;base64 and then append our base64 encode our svg.\r\n                    Base64.encode(finalSvg),\r\n                    '\"}'\r\n                )\r\n            )\r\n        );\r\n\r\n        // Just like before, we prepend data:application/json;base64, to our data.\r\n        string memory finalTokenUri = string(\r\n            abi.encodePacked(\"data:application/json;base64,\", json)\r\n        );\r\n\r\n        _safeMint(msg.sender, newItemId);\r\n\r\n        // Update your URI!!!\r\n        _setTokenURI(newItemId, finalTokenUri);\r\n\r\n        _tokenIds.increment();\r\n        emit NewEpicNFTMinted(msg.sender, newItemId);\r\n    }\r\n}\r\n",
  "sourcePath": "C:\\Users\\kumquatexpress\\projects\\test-polygon\\src\\contracts\\contracts\\polygon\\MintToken.sol",
  "compiler": {
    "name": "solc",
    "version": "0.8.4+commit.c7e474f2.Emscripten.clang"
  },
  "schemaVersion": "3.4.4",
  "updatedAt": "2022-01-13T02:49:34.583Z",
  "devdoc": {
    "kind": "dev",
    "methods": {
      "approve(address,uint256)": {
        "details": "See {IERC721-approve}."
      },
      "balanceOf(address)": {
        "details": "See {IERC721-balanceOf}."
      },
      "getApproved(uint256)": {
        "details": "See {IERC721-getApproved}."
      },
      "isApprovedForAll(address,address)": {
        "details": "See {IERC721-isApprovedForAll}."
      },
      "name()": {
        "details": "See {IERC721Metadata-name}."
      },
      "ownerOf(uint256)": {
        "details": "See {IERC721-ownerOf}."
      },
      "safeTransferFrom(address,address,uint256)": {
        "details": "See {IERC721-safeTransferFrom}."
      },
      "safeTransferFrom(address,address,uint256,bytes)": {
        "details": "See {IERC721-safeTransferFrom}."
      },
      "setApprovalForAll(address,bool)": {
        "details": "See {IERC721-setApprovalForAll}."
      },
      "supportsInterface(bytes4)": {
        "details": "See {IERC165-supportsInterface}."
      },
      "symbol()": {
        "details": "See {IERC721Metadata-symbol}."
      },
      "tokenURI(uint256)": {
        "details": "See {IERC721Metadata-tokenURI}."
      },
      "transferFrom(address,address,uint256)": {
        "details": "See {IERC721-transferFrom}."
      }
    },
    "version": 1
  },
  "userdoc": {
    "kind": "user",
    "methods": {},
    "version": 1
  },
  "db": {
    "callBytecode": {
      "id": "0x8a7317adf5c7f8fd190bbad89f876d3e828b53d68b975e74af213f073c2e0d8a"
    },
    "createBytecode": {
      "id": "0x64c4f7729ee6db1ad3780d2e9efabca6b26642787f94b4941e7d9888e9b56228"
    },
    "contract": {
      "id": "0xa66820fa21ccb16d4d85438fadf72f677dd57bd8e6e997ca2927ec3074c3793c"
    }
  }
}